{
  "abi": [
    {
      "inputs": [
        {
          "internalType": "address",
          "name": "_creator_address",
          "type": "address"
        },
        {
          "internalType": "address",
          "name": "_timelock_address",
          "type": "address"
        }
      ],
      "stateMutability": "nonpayable",
      "type": "constructor"
    },
    {
      "anonymous": false,
      "inputs": [
        {
          "indexed": true,
          "internalType": "address",
          "name": "owner",
          "type": "address"
        },
        {
          "indexed": true,
          "internalType": "address",
          "name": "spender",
          "type": "address"
        },
        {
          "indexed": false,
          "internalType": "uint256",
          "name": "value",
          "type": "uint256"
        }
      ],
      "name": "Approval",
      "type": "event"
    },
    {
      "anonymous": false,
      "inputs": [
        {
          "indexed": false,
          "internalType": "address",
          "name": "minter_address",
          "type": "address"
        }
      ],
      "name": "MinterAdded",
      "type": "event"
    },
    {
      "anonymous": false,
      "inputs": [
        {
          "indexed": false,
          "internalType": "address",
          "name": "minter_address",
          "type": "address"
        }
      ],
      "name": "MinterRemoved",
      "type": "event"
    },
    {
      "anonymous": false,
      "inputs": [
        {
          "indexed": false,
          "internalType": "address",
          "name": "oldOwner",
          "type": "address"
        },
        {
          "indexed": false,
          "internalType": "address",
          "name": "newOwner",
          "type": "address"
        }
      ],
      "name": "OwnerChanged",
      "type": "event"
    },
    {
      "anonymous": false,
      "inputs": [
        {
          "indexed": false,
          "internalType": "address",
          "name": "newOwner",
          "type": "address"
        }
      ],
      "name": "OwnerNominated",
      "type": "event"
    },
    {
      "anonymous": false,
      "inputs": [
        {
          "indexed": false,
          "internalType": "address",
          "name": "timelock_address",
          "type": "address"
        }
      ],
      "name": "TimelockChanged",
      "type": "event"
    },
    {
      "anonymous": false,
      "inputs": [
        {
          "indexed": true,
          "internalType": "address",
          "name": "from",
          "type": "address"
        },
        {
          "indexed": true,
          "internalType": "address",
          "name": "to",
          "type": "address"
        },
        {
          "indexed": false,
          "internalType": "uint256",
          "name": "amount",
          "type": "uint256"
        }
      ],
      "name": "TokenMinterBurned",
      "type": "event"
    },
    {
      "anonymous": false,
      "inputs": [
        {
          "indexed": true,
          "internalType": "address",
          "name": "from",
          "type": "address"
        },
        {
          "indexed": true,
          "internalType": "address",
          "name": "to",
          "type": "address"
        },
        {
          "indexed": false,
          "internalType": "uint256",
          "name": "amount",
          "type": "uint256"
        }
      ],
      "name": "TokenMinterMinted",
      "type": "event"
    },
    {
      "anonymous": false,
      "inputs": [
        {
          "indexed": true,
          "internalType": "address",
          "name": "from",
          "type": "address"
        },
        {
          "indexed": true,
          "internalType": "address",
          "name": "to",
          "type": "address"
        },
        {
          "indexed": false,
          "internalType": "uint256",
          "name": "value",
          "type": "uint256"
        }
      ],
      "name": "Transfer",
      "type": "event"
    },
    {
      "inputs": [],
      "name": "DOMAIN_SEPARATOR",
      "outputs": [
        {
          "internalType": "bytes32",
          "name": "",
          "type": "bytes32"
        }
      ],
      "stateMutability": "view",
      "type": "function"
    },
    {
      "inputs": [],
      "name": "acceptOwnership",
      "outputs": [],
      "stateMutability": "nonpayable",
      "type": "function"
    },
    {
      "inputs": [
        {
          "internalType": "address",
          "name": "minter_address",
          "type": "address"
        }
      ],
      "name": "addMinter",
      "outputs": [],
      "stateMutability": "nonpayable",
      "type": "function"
    },
    {
      "inputs": [
        {
          "internalType": "address",
          "name": "owner",
          "type": "address"
        },
        {
          "internalType": "address",
          "name": "spender",
          "type": "address"
        }
      ],
      "name": "allowance",
      "outputs": [
        {
          "internalType": "uint256",
          "name": "",
          "type": "uint256"
        }
      ],
      "stateMutability": "view",
      "type": "function"
    },
    {
      "inputs": [
        {
          "internalType": "address",
          "name": "spender",
          "type": "address"
        },
        {
          "internalType": "uint256",
          "name": "amount",
          "type": "uint256"
        }
      ],
      "name": "approve",
      "outputs": [
        {
          "internalType": "bool",
          "name": "",
          "type": "bool"
        }
      ],
      "stateMutability": "nonpayable",
      "type": "function"
    },
    {
      "inputs": [
        {
          "internalType": "address",
          "name": "account",
          "type": "address"
        }
      ],
      "name": "balanceOf",
      "outputs": [
        {
          "internalType": "uint256",
          "name": "",
          "type": "uint256"
        }
      ],
      "stateMutability": "view",
      "type": "function"
    },
    {
      "inputs": [
        {
          "internalType": "uint256",
          "name": "amount",
          "type": "uint256"
        }
      ],
      "name": "burn",
      "outputs": [],
      "stateMutability": "nonpayable",
      "type": "function"
    },
    {
      "inputs": [
        {
          "internalType": "address",
          "name": "account",
          "type": "address"
        },
        {
          "internalType": "uint256",
          "name": "amount",
          "type": "uint256"
        }
      ],
      "name": "burnFrom",
      "outputs": [],
      "stateMutability": "nonpayable",
      "type": "function"
    },
    {
      "inputs": [],
      "name": "decimals",
      "outputs": [
        {
          "internalType": "uint8",
          "name": "",
          "type": "uint8"
        }
      ],
      "stateMutability": "view",
      "type": "function"
    },
    {
      "inputs": [
        {
          "internalType": "address",
          "name": "spender",
          "type": "address"
        },
        {
          "internalType": "uint256",
          "name": "subtractedValue",
          "type": "uint256"
        }
      ],
      "name": "decreaseAllowance",
      "outputs": [
        {
          "internalType": "bool",
          "name": "",
          "type": "bool"
        }
      ],
      "stateMutability": "nonpayable",
      "type": "function"
    },
    {
      "inputs": [
        {
          "internalType": "address",
          "name": "spender",
          "type": "address"
        },
        {
          "internalType": "uint256",
          "name": "addedValue",
          "type": "uint256"
        }
      ],
      "name": "increaseAllowance",
      "outputs": [
        {
          "internalType": "bool",
          "name": "",
          "type": "bool"
        }
      ],
      "stateMutability": "nonpayable",
      "type": "function"
    },
    {
      "inputs": [
        {
          "internalType": "address",
          "name": "b_address",
          "type": "address"
        },
        {
          "internalType": "uint256",
          "name": "b_amount",
          "type": "uint256"
        }
      ],
      "name": "minter_burn_from",
      "outputs": [],
      "stateMutability": "nonpayable",
      "type": "function"
    },
    {
      "inputs": [
        {
          "internalType": "address",
          "name": "m_address",
          "type": "address"
        },
        {
          "internalType": "uint256",
          "name": "m_amount",
          "type": "uint256"
        }
      ],
      "name": "minter_mint",
      "outputs": [],
      "stateMutability": "nonpayable",
      "type": "function"
    },
    {
      "inputs": [
        {
          "internalType": "address",
          "name": "",
          "type": "address"
        }
      ],
      "name": "minters",
      "outputs": [
        {
          "internalType": "bool",
          "name": "",
          "type": "bool"
        }
      ],
      "stateMutability": "view",
      "type": "function"
    },
    {
      "inputs": [
        {
          "internalType": "uint256",
          "name": "",
          "type": "uint256"
        }
      ],
      "name": "minters_array",
      "outputs": [
        {
          "internalType": "address",
          "name": "",
          "type": "address"
        }
      ],
      "stateMutability": "view",
      "type": "function"
    },
    {
      "inputs": [],
      "name": "name",
      "outputs": [
        {
          "internalType": "string",
          "name": "",
          "type": "string"
        }
      ],
      "stateMutability": "view",
      "type": "function"
    },
    {
      "inputs": [
        {
          "internalType": "address",
          "name": "_owner",
          "type": "address"
        }
      ],
      "name": "nominateNewOwner",
      "outputs": [],
      "stateMutability": "nonpayable",
      "type": "function"
    },
    {
      "inputs": [],
      "name": "nominatedOwner",
      "outputs": [
        {
          "internalType": "address",
          "name": "",
          "type": "address"
        }
      ],
      "stateMutability": "view",
      "type": "function"
    },
    {
      "inputs": [
        {
          "internalType": "address",
          "name": "owner",
          "type": "address"
        }
      ],
      "name": "nonces",
      "outputs": [
        {
          "internalType": "uint256",
          "name": "",
          "type": "uint256"
        }
      ],
      "stateMutability": "view",
      "type": "function"
    },
    {
      "inputs": [],
      "name": "owner",
      "outputs": [
        {
          "internalType": "address",
          "name": "",
          "type": "address"
        }
      ],
      "stateMutability": "view",
      "type": "function"
    },
    {
      "inputs": [
        {
          "internalType": "address",
          "name": "owner",
          "type": "address"
        },
        {
          "internalType": "address",
          "name": "spender",
          "type": "address"
        },
        {
          "internalType": "uint256",
          "name": "value",
          "type": "uint256"
        },
        {
          "internalType": "uint256",
          "name": "deadline",
          "type": "uint256"
        },
        {
          "internalType": "uint8",
          "name": "v",
          "type": "uint8"
        },
        {
          "internalType": "bytes32",
          "name": "r",
          "type": "bytes32"
        },
        {
          "internalType": "bytes32",
          "name": "s",
          "type": "bytes32"
        }
      ],
      "name": "permit",
      "outputs": [],
      "stateMutability": "nonpayable",
      "type": "function"
    },
    {
      "inputs": [
        {
          "internalType": "address",
          "name": "minter_address",
          "type": "address"
        }
      ],
      "name": "removeMinter",
      "outputs": [],
      "stateMutability": "nonpayable",
      "type": "function"
    },
    {
      "inputs": [
        {
          "internalType": "address",
          "name": "_timelock_address",
          "type": "address"
        }
      ],
      "name": "setTimelock",
      "outputs": [],
      "stateMutability": "nonpayable",
      "type": "function"
    },
    {
      "inputs": [],
      "name": "symbol",
      "outputs": [
        {
          "internalType": "string",
          "name": "",
          "type": "string"
        }
      ],
      "stateMutability": "view",
      "type": "function"
    },
    {
      "inputs": [],
      "name": "timelock_address",
      "outputs": [
        {
          "internalType": "address",
          "name": "",
          "type": "address"
        }
      ],
      "stateMutability": "view",
      "type": "function"
    },
    {
      "inputs": [],
      "name": "totalSupply",
      "outputs": [
        {
          "internalType": "uint256",
          "name": "",
          "type": "uint256"
        }
      ],
      "stateMutability": "view",
      "type": "function"
    },
    {
      "inputs": [
        {
          "internalType": "address",
          "name": "to",
          "type": "address"
        },
        {
          "internalType": "uint256",
          "name": "amount",
          "type": "uint256"
        }
      ],
      "name": "transfer",
      "outputs": [
        {
          "internalType": "bool",
          "name": "",
          "type": "bool"
        }
      ],
      "stateMutability": "nonpayable",
      "type": "function"
    },
    {
      "inputs": [
        {
          "internalType": "address",
          "name": "from",
          "type": "address"
        },
        {
          "internalType": "address",
          "name": "to",
          "type": "address"
        },
        {
          "internalType": "uint256",
          "name": "amount",
          "type": "uint256"
        }
      ],
      "name": "transferFrom",
      "outputs": [
        {
          "internalType": "bool",
          "name": "",
          "type": "bool"
        }
      ],
      "stateMutability": "nonpayable",
      "type": "function"
    }
  ],
  "bytecode": {
    "object": "0x6101406040523480156200001257600080fd5b5060405162001e1c38038062001e1c8339810160408190526200003591620002fe565b81816040518060400160405280600a815260200169233930bc1022ba3432b960b11b815250604051806040016040528060068152602001650cce4f08aa8960d31b815250838280604051806040016040528060018152602001603160f81b81525085858160039080519060200190620000b09291906200023b565b508051620000c69060049060208401906200023b565b5050825160209384012082519284019290922060e08390526101008190524660a0818152604080517f8b73c3c69bb8fe3d512ecc4cf759cc79239f7b179b0ffacaa9a75d522b39400f818901819052818301979097526060810194909452608080850193909352308483018190528151808603909301835260c0948501909152815191909601209052929092526101205250506001600160a01b038116620001b45760405162461bcd60e51b815260206004820152601960248201527f4f776e657220616464726573732063616e6e6f74206265203000000000000000604482015260640160405180910390fd5b600780546001600160a01b0319166001600160a01b038316908117909155604080516000815260208101929092527fb532073b38c83145e3e5135377a08bf9aab55bc0fd7c1179cd4fb995d2a5159c910160405180910390a15050600980546001600160a01b0319166001600160a01b039390931692909217909155506200037292505050565b828054620002499062000336565b90600052602060002090601f0160209004810192826200026d5760008555620002b8565b82601f106200028857805160ff1916838001178555620002b8565b82800160010185558215620002b8579182015b82811115620002b85782518255916020019190600101906200029b565b50620002c6929150620002ca565b5090565b5b80821115620002c65760008155600101620002cb565b80516001600160a01b0381168114620002f957600080fd5b919050565b600080604083850312156200031257600080fd5b6200031d83620002e1565b91506200032d60208401620002e1565b90509250929050565b600181811c908216806200034b57607f821691505b6020821081036200036c57634e487b7160e01b600052602260045260246000fd5b50919050565b60805160a05160c05160e0516101005161012051611a5a620003c26000396000611235015260006112840152600061125f015260006111b8015260006111e20152600061120c0152611a5a6000f3fe608060405234801561001057600080fd5b50600436106101c45760003560e01c806379ba5097116100f9578063a9059cbb11610097578063d73ced0411610071578063d73ced04146103b6578063dc6663c7146103c9578063dd62ed3e146103dc578063f46eccc4146103ef57600080fd5b8063a9059cbb1461037d578063bdacb30314610390578063d505accf146103a357600080fd5b80638da5cb5b116100d35780638da5cb5b1461033c57806395d89b411461034f578063983b2d5614610357578063a457c2d71461036a57600080fd5b806379ba50971461030e57806379cc6790146103165780637ecebe001461032957600080fd5b80633644e5151161016657806353a47bb71161014057806353a47bb7146102945780636a257ebc146102bf57806370a08231146102d25780637941bc89146102fb57600080fd5b80633644e51514610266578063395093511461026e57806342966c681461028157600080fd5b806318160ddd116101a257806318160ddd1461021f57806323b872dd146102315780633092afd514610244578063313ce5671461025757600080fd5b806306fdde03146101c9578063095ea7b3146101e75780631627540c1461020a575b600080fd5b6101d1610412565b6040516101de9190611767565b60405180910390f35b6101fa6101f53660046117d8565b6104a4565b60405190151581526020016101de565b61021d610218366004611802565b6104bc565b005b6002545b6040519081526020016101de565b6101fa61023f366004611824565b610588565b61021d610252366004611802565b6105ac565b604051601281526020016101de565b61022361076a565b6101fa61027c3660046117d8565b610779565b61021d61028f366004611860565b61079b565b6008546102a7906001600160a01b031681565b6040516001600160a01b0390911681526020016101de565b61021d6102cd3660046117d8565b6107a8565b6102236102e0366004611802565b6001600160a01b031660009081526020819052604090205490565b61021d6103093660046117d8565b61084a565b61021d6108e4565b61021d6103243660046117d8565b6109ce565b610223610337366004611802565b6109e7565b6007546102a7906001600160a01b031681565b6101d1610a07565b61021d610365366004611802565b610a16565b6101fa6103783660046117d8565b610b73565b6101fa61038b3660046117d8565b610bee565b61021d61039e366004611802565b610bfc565b61021d6103b1366004611879565b610caf565b6102a76103c4366004611860565b610e13565b6009546102a7906001600160a01b031681565b6102236103ea3660046118ec565b610e3d565b6101fa6103fd366004611802565b600b6020526000908152604090205460ff1681565b6060600380546104219061191f565b80601f016020809104026020016040519081016040528092919081815260200182805461044d9061191f565b801561049a5780601f1061046f5761010080835404028352916020019161049a565b820191906000526020600020905b81548152906001019060200180831161047d57829003601f168201915b5050505050905090565b6000336104b2818585610e68565b5060019392505050565b6007546001600160a01b031633146105335760405162461bcd60e51b815260206004820152602f60248201527f4f6e6c792074686520636f6e7472616374206f776e6572206d6179207065726660448201526e37b936903a3434b99030b1ba34b7b760891b60648201526084015b60405180910390fd5b600880546001600160a01b0319166001600160a01b0383169081179091556040519081527f906a1c6bd7e3091ea86693dd029a831c19049ce77f1dce2ce0bab1cacbabce22906020015b60405180910390a150565b600033610596858285610f8d565b6105a1858585611007565b506001949350505050565b6009546001600160a01b03163314806105cf57506007546001600160a01b031633145b6105eb5760405162461bcd60e51b815260040161052a90611953565b6001600160a01b0381166106115760405162461bcd60e51b815260040161052a90611982565b6001600160a01b0381166000908152600b602052604090205460ff1615156001146106745760405162461bcd60e51b81526020600482015260136024820152721059191c995cdcc81b9bdb995e1a5cdd185b9d606a1b604482015260640161052a565b6001600160a01b0381166000908152600b60205260408120805460ff191690555b600a5481101561073057816001600160a01b0316600a82815481106106bc576106bc6119b1565b6000918252602090912001546001600160a01b03160361071e576000600a82815481106106eb576106eb6119b1565b9060005260206000200160006101000a8154816001600160a01b0302191690836001600160a01b03160217905550610730565b80610728816119dd565b915050610695565b506040516001600160a01b03821681527fe94479a9f7e1952cc78f2d6baab678adc1b772d936c6583def489e524cb666929060200161057d565b60006107746111ab565b905090565b6000336104b281858561078c8383610e3d565b61079691906119f6565b610e68565b6107a533826112d2565b50565b336000908152600b602052604090205460ff1615156001146107fb5760405162461bcd60e51b815260206004820152600c60248201526b4f6e6c79206d696e7465727360a01b604482015260640161052a565b61080582826113fc565b6040518181526001600160a01b0383169033907fe0dcb47e0eb67e20e87f3e34aab31c669ecec7466e8b7fb329d586dadebac6b6906020015b60405180910390a35050565b336000908152600b602052604090205460ff16151560011461089d5760405162461bcd60e51b815260206004820152600c60248201526b4f6e6c79206d696e7465727360a01b604482015260640161052a565b6108a782826109ce565b60405181815233906001600160a01b038416907fdc7fd22bc401e7c6b9be2c2736286a2a42ea0c6307bc97ff0fb12bd0abd2c7479060200161083e565b6008546001600160a01b0316331461095c5760405162461bcd60e51b815260206004820152603560248201527f596f75206d757374206265206e6f6d696e61746564206265666f726520796f7560448201527402063616e20616363657074206f776e65727368697605c1b606482015260840161052a565b600754600854604080516001600160a01b0393841681529290911660208301527fb532073b38c83145e3e5135377a08bf9aab55bc0fd7c1179cd4fb995d2a5159c910160405180910390a160088054600780546001600160a01b03199081166001600160a01b03841617909155169055565b6109d9823383610f8d565b6109e382826112d2565b5050565b6001600160a01b0381166000908152600560205260408120545b92915050565b6060600480546104219061191f565b6009546001600160a01b0316331480610a3957506007546001600160a01b031633145b610a555760405162461bcd60e51b815260040161052a90611953565b6001600160a01b038116610a7b5760405162461bcd60e51b815260040161052a90611982565b6001600160a01b0381166000908152600b602052604090205460ff1615610add5760405162461bcd60e51b81526020600482015260166024820152754164647265737320616c72656164792065786973747360501b604482015260640161052a565b6001600160a01b0381166000818152600b60209081526040808320805460ff19166001908117909155600a805491820181559093527fc65a7bb8d6351c1cf70c95a316cc6a92839c986682d98bc35f958f4883f9d2a890920180546001600160a01b0319168417905590519182527f6ae172837ea30b801fbfcdd4108aa1d5bf8ff775444fd70256b44e6bf3dfc3f6910161057d565b60003381610b818286610e3d565b905083811015610be15760405162461bcd60e51b815260206004820152602560248201527f45524332303a2064656372656173656420616c6c6f77616e63652062656c6f77604482015264207a65726f60d81b606482015260840161052a565b6105a18286868403610e68565b6000336104b2818585611007565b6009546001600160a01b0316331480610c1f57506007546001600160a01b031633145b610c3b5760405162461bcd60e51b815260040161052a90611953565b6001600160a01b038116610c615760405162461bcd60e51b815260040161052a90611982565b600980546001600160a01b0319166001600160a01b0383169081179091556040519081527ff02fdf7b40fb25784d39342249bbb15cee2bc0288f75ded1cf8ad2e63d4d91aa9060200161057d565b83421115610cff5760405162461bcd60e51b815260206004820152601d60248201527f45524332305065726d69743a206578706972656420646561646c696e65000000604482015260640161052a565b60007f6e71edae12b1b97f4d1f60370fef10105fa2faae0126114a169c64845d6126c9888888610d2e8c6114bb565b6040805160208101969096526001600160a01b0394851690860152929091166060840152608083015260a082015260c0810186905260e0016040516020818303038152906040528051906020012090506000610d89826114e3565b90506000610d9982878787611531565b9050896001600160a01b0316816001600160a01b031614610dfc5760405162461bcd60e51b815260206004820152601e60248201527f45524332305065726d69743a20696e76616c6964207369676e61747572650000604482015260640161052a565b610e078a8a8a610e68565b50505050505050505050565b600a8181548110610e2357600080fd5b6000918252602090912001546001600160a01b0316905081565b6001600160a01b03918216600090815260016020908152604080832093909416825291909152205490565b6001600160a01b038316610eca5760405162461bcd60e51b8152602060048201526024808201527f45524332303a20617070726f76652066726f6d20746865207a65726f206164646044820152637265737360e01b606482015260840161052a565b6001600160a01b038216610f2b5760405162461bcd60e51b815260206004820152602260248201527f45524332303a20617070726f766520746f20746865207a65726f206164647265604482015261737360f01b606482015260840161052a565b6001600160a01b0383811660008181526001602090815260408083209487168084529482529182902085905590518481527f8c5be1e5ebec7d5bd14f71427d1e84f3dd0314c0f7b2291e5b200ac8c7c3b92591015b60405180910390a3505050565b6000610f998484610e3d565b905060001981146110015781811015610ff45760405162461bcd60e51b815260206004820152601d60248201527f45524332303a20696e73756666696369656e7420616c6c6f77616e6365000000604482015260640161052a565b6110018484848403610e68565b50505050565b6001600160a01b03831661106b5760405162461bcd60e51b815260206004820152602560248201527f45524332303a207472616e736665722066726f6d20746865207a65726f206164604482015264647265737360d81b606482015260840161052a565b6001600160a01b0382166110cd5760405162461bcd60e51b815260206004820152602360248201527f45524332303a207472616e7366657220746f20746865207a65726f206164647260448201526265737360e81b606482015260840161052a565b6001600160a01b038316600090815260208190526040902054818110156111455760405162461bcd60e51b815260206004820152602660248201527f45524332303a207472616e7366657220616d6f756e7420657863656564732062604482015265616c616e636560d01b606482015260840161052a565b6001600160a01b03848116600081815260208181526040808320878703905593871680835291849020805487019055925185815290927fddf252ad1be2c89b69c2b068fc378daa952ba7f163c4a11628f55a4df523b3ef910160405180910390a3611001565b6000306001600160a01b037f00000000000000000000000000000000000000000000000000000000000000001614801561120457507f000000000000000000000000000000000000000000000000000000000000000046145b1561122e57507f000000000000000000000000000000000000000000000000000000000000000090565b50604080517f00000000000000000000000000000000000000000000000000000000000000006020808301919091527f0000000000000000000000000000000000000000000000000000000000000000828401527f000000000000000000000000000000000000000000000000000000000000000060608301524660808301523060a0808401919091528351808403909101815260c0909201909252805191012090565b6001600160a01b0382166113325760405162461bcd60e51b815260206004820152602160248201527f45524332303a206275726e2066726f6d20746865207a65726f206164647265736044820152607360f81b606482015260840161052a565b6001600160a01b038216600090815260208190526040902054818110156113a65760405162461bcd60e51b815260206004820152602260248201527f45524332303a206275726e20616d6f756e7420657863656564732062616c616e604482015261636560f01b606482015260840161052a565b6001600160a01b0383166000818152602081815260408083208686039055600280548790039055518581529192917fddf252ad1be2c89b69c2b068fc378daa952ba7f163c4a11628f55a4df523b3ef9101610f80565b6001600160a01b0382166114525760405162461bcd60e51b815260206004820152601f60248201527f45524332303a206d696e7420746f20746865207a65726f206164647265737300604482015260640161052a565b806002600082825461146491906119f6565b90915550506001600160a01b038216600081815260208181526040808320805486019055518481527fddf252ad1be2c89b69c2b068fc378daa952ba7f163c4a11628f55a4df523b3ef910160405180910390a35050565b6001600160a01b03811660009081526005602052604090208054600181018255905b50919050565b6000610a016114f06111ab565b8360405161190160f01b6020820152602281018390526042810182905260009060620160405160208183030381529060405280519060200120905092915050565b600080600061154287878787611559565b9150915061154f8161161d565b5095945050505050565b6000807f7fffffffffffffffffffffffffffffff5d576e7357a4501ddfe92f46681b20a08311156115905750600090506003611614565b6040805160008082526020820180845289905260ff881692820192909252606081018690526080810185905260019060a0016020604051602081039080840390855afa1580156115e4573d6000803e3d6000fd5b5050604051601f1901519150506001600160a01b03811661160d57600060019250925050611614565b9150600090505b94509492505050565b600081600481111561163157611631611a0e565b036116395750565b600181600481111561164d5761164d611a0e565b0361169a5760405162461bcd60e51b815260206004820152601860248201527f45434453413a20696e76616c6964207369676e61747572650000000000000000604482015260640161052a565b60028160048111156116ae576116ae611a0e565b036116fb5760405162461bcd60e51b815260206004820152601f60248201527f45434453413a20696e76616c6964207369676e6174757265206c656e67746800604482015260640161052a565b600381600481111561170f5761170f611a0e565b036107a55760405162461bcd60e51b815260206004820152602260248201527f45434453413a20696e76616c6964207369676e6174757265202773272076616c604482015261756560f01b606482015260840161052a565b600060208083528351808285015260005b8181101561179457858101830151858201604001528201611778565b818111156117a6576000604083870101525b50601f01601f1916929092016040019392505050565b80356001600160a01b03811681146117d357600080fd5b919050565b600080604083850312156117eb57600080fd5b6117f4836117bc565b946020939093013593505050565b60006020828403121561181457600080fd5b61181d826117bc565b9392505050565b60008060006060848603121561183957600080fd5b611842846117bc565b9250611850602085016117bc565b9150604084013590509250925092565b60006020828403121561187257600080fd5b5035919050565b600080600080600080600060e0888a03121561189457600080fd5b61189d886117bc565b96506118ab602089016117bc565b95506040880135945060608801359350608088013560ff811681146118cf57600080fd5b9699959850939692959460a0840135945060c09093013592915050565b600080604083850312156118ff57600080fd5b611908836117bc565b9150611916602084016117bc565b90509250929050565b600181811c9082168061193357607f821691505b6020821081036114dd57634e487b7160e01b600052602260045260246000fd5b6020808252601590820152744e6f74206f776e6572206f722074696d656c6f636b60581b604082015260600190565b60208082526015908201527416995c9bc81859191c995cdcc819195d1958dd1959605a1b604082015260600190565b634e487b7160e01b600052603260045260246000fd5b634e487b7160e01b600052601160045260246000fd5b6000600182016119ef576119ef6119c7565b5060010190565b60008219821115611a0957611a096119c7565b500190565b634e487b7160e01b600052602160045260246000fdfea26469706673582212204c869881d481f681753f4c6d9e1f5fa91e1157424014e7a129c780d199b0c24d64736f6c634300080d0033",
    "linkReferences": {}
  },
  "methodIdentifiers": {
    "DOMAIN_SEPARATOR()": "3644e515",
    "acceptOwnership()": "79ba5097",
    "addMinter(address)": "983b2d56",
    "allowance(address,address)": "dd62ed3e",
    "approve(address,uint256)": "095ea7b3",
    "balanceOf(address)": "70a08231",
    "burn(uint256)": "42966c68",
    "burnFrom(address,uint256)": "79cc6790",
    "decimals()": "313ce567",
    "decreaseAllowance(address,uint256)": "a457c2d7",
    "increaseAllowance(address,uint256)": "39509351",
    "minter_burn_from(address,uint256)": "7941bc89",
    "minter_mint(address,uint256)": "6a257ebc",
    "minters(address)": "f46eccc4",
    "minters_array(uint256)": "d73ced04",
    "name()": "06fdde03",
    "nominateNewOwner(address)": "1627540c",
    "nominatedOwner()": "53a47bb7",
    "nonces(address)": "7ecebe00",
    "owner()": "8da5cb5b",
    "permit(address,address,uint256,uint256,uint8,bytes32,bytes32)": "d505accf",
    "removeMinter(address)": "3092afd5",
    "setTimelock(address)": "bdacb303",
    "symbol()": "95d89b41",
    "timelock_address()": "dc6663c7",
    "totalSupply()": "18160ddd",
    "transfer(address,uint256)": "a9059cbb",
    "transferFrom(address,address,uint256)": "23b872dd"
  },
  "userdoc": {
    "version": 1,
    "kind": "user"
  },
  "devdoc": {
    "version": 1,
    "kind": "dev",
    "methods": {
      "DOMAIN_SEPARATOR()": {
        "details": "See {IERC20Permit-DOMAIN_SEPARATOR}."
      },
      "allowance(address,address)": {
        "details": "See {IERC20-allowance}."
      },
      "approve(address,uint256)": {
        "details": "See {IERC20-approve}. NOTE: If `amount` is the maximum `uint256`, the allowance is not updated on `transferFrom`. This is semantically equivalent to an infinite approval. Requirements: - `spender` cannot be the zero address."
      },
      "balanceOf(address)": {
        "details": "See {IERC20-balanceOf}."
      },
      "burn(uint256)": {
        "details": "Destroys `amount` tokens from the caller. See {ERC20-_burn}."
      },
      "burnFrom(address,uint256)": {
        "details": "Destroys `amount` tokens from `account`, deducting from the caller's allowance. See {ERC20-_burn} and {ERC20-allowance}. Requirements: - the caller must have allowance for ``accounts``'s tokens of at least `amount`."
      },
      "decimals()": {
        "details": "Returns the number of decimals used to get its user representation. For example, if `decimals` equals `2`, a balance of `505` tokens should be displayed to a user as `5.05` (`505 / 10 ** 2`). Tokens usually opt for a value of 18, imitating the relationship between Ether and Wei. This is the value {ERC20} uses, unless this function is overridden; NOTE: This information is only used for _display_ purposes: it in no way affects any of the arithmetic of the contract, including {IERC20-balanceOf} and {IERC20-transfer}."
      },
      "decreaseAllowance(address,uint256)": {
        "details": "Atomically decreases the allowance granted to `spender` by the caller. This is an alternative to {approve} that can be used as a mitigation for problems described in {IERC20-approve}. Emits an {Approval} event indicating the updated allowance. Requirements: - `spender` cannot be the zero address. - `spender` must have allowance for the caller of at least `subtractedValue`."
      },
      "increaseAllowance(address,uint256)": {
        "details": "Atomically increases the allowance granted to `spender` by the caller. This is an alternative to {approve} that can be used as a mitigation for problems described in {IERC20-approve}. Emits an {Approval} event indicating the updated allowance. Requirements: - `spender` cannot be the zero address."
      },
      "name()": {
        "details": "Returns the name of the token."
      },
      "nonces(address)": {
        "details": "See {IERC20Permit-nonces}."
      },
      "permit(address,address,uint256,uint256,uint8,bytes32,bytes32)": {
        "details": "See {IERC20Permit-permit}."
      },
      "symbol()": {
        "details": "Returns the symbol of the token, usually a shorter version of the name."
      },
      "totalSupply()": {
        "details": "See {IERC20-totalSupply}."
      },
      "transfer(address,uint256)": {
        "details": "See {IERC20-transfer}. Requirements: - `to` cannot be the zero address. - the caller must have a balance of at least `amount`."
      },
      "transferFrom(address,address,uint256)": {
        "details": "See {IERC20-transferFrom}. Emits an {Approval} event indicating the updated allowance. This is not required by the EIP. See the note at the beginning of {ERC20}. NOTE: Does not update the allowance if the current allowance is the maximum `uint256`. Requirements: - `from` and `to` cannot be the zero address. - `from` must have a balance of at least `amount`. - the caller must have allowance for ``from``'s tokens of at least `amount`."
      }
    }
  },
  "id": 35
}