{
  "abi": [
    {
      "inputs": [],
      "stateMutability": "nonpayable",
      "type": "constructor"
    },
    {
      "anonymous": false,
      "inputs": [
        {
          "indexed": false,
          "internalType": "bytes",
          "name": "pubkey",
          "type": "bytes"
        },
        {
          "indexed": false,
          "internalType": "bytes",
          "name": "withdrawal_credentials",
          "type": "bytes"
        },
        {
          "indexed": false,
          "internalType": "bytes",
          "name": "amount",
          "type": "bytes"
        },
        {
          "indexed": false,
          "internalType": "bytes",
          "name": "signature",
          "type": "bytes"
        },
        {
          "indexed": false,
          "internalType": "bytes",
          "name": "index",
          "type": "bytes"
        }
      ],
      "name": "DepositEvent",
      "type": "event"
    },
    {
      "inputs": [
        {
          "internalType": "bytes",
          "name": "pubkey",
          "type": "bytes"
        },
        {
          "internalType": "bytes",
          "name": "withdrawal_credentials",
          "type": "bytes"
        },
        {
          "internalType": "bytes",
          "name": "signature",
          "type": "bytes"
        },
        {
          "internalType": "bytes32",
          "name": "deposit_data_root",
          "type": "bytes32"
        }
      ],
      "name": "deposit",
      "outputs": [],
      "stateMutability": "payable",
      "type": "function"
    },
    {
      "inputs": [],
      "name": "get_deposit_count",
      "outputs": [
        {
          "internalType": "bytes",
          "name": "",
          "type": "bytes"
        }
      ],
      "stateMutability": "view",
      "type": "function"
    },
    {
      "inputs": [],
      "name": "get_deposit_root",
      "outputs": [
        {
          "internalType": "bytes32",
          "name": "",
          "type": "bytes32"
        }
      ],
      "stateMutability": "view",
      "type": "function"
    },
    {
      "inputs": [
        {
          "internalType": "bytes4",
          "name": "interfaceId",
          "type": "bytes4"
        }
      ],
      "name": "supportsInterface",
      "outputs": [
        {
          "internalType": "bool",
          "name": "",
          "type": "bool"
        }
      ],
      "stateMutability": "pure",
      "type": "function"
    }
  ],
  "bytecode": {
    "object": "0x60806040523480156200001157600080fd5b5060005b620000236001602062000124565b81101562000107576002602182602081106200004357620000436200013e565b0154602183602081106200005b576200005b6200013e565b015460408051602081019390935282015260600160408051601f19818403018152908290526200008b9162000154565b602060405180830381855afa158015620000a9573d6000803e3d6000fd5b5050506040513d601f19601f82011682018060405250810190620000ce919062000192565b6021620000dd836001620001ac565b60208110620000f057620000f06200013e565b015580620000fe81620001c7565b91505062000015565b50620001e3565b634e487b7160e01b600052601160045260246000fd5b6000828210156200013957620001396200010e565b500390565b634e487b7160e01b600052603260045260246000fd5b6000825160005b818110156200017757602081860181015185830152016200015b565b8181111562000187576000828501525b509190910192915050565b600060208284031215620001a557600080fd5b5051919050565b60008219821115620001c257620001c26200010e565b500190565b600060018201620001dc57620001dc6200010e565b5060010190565b61072e80620001f36000396000f3fe60806040526004361061003f5760003560e01c806301ffc9a7146100445780632289511814610079578063621fd13014610092578063c5f2892f146100b4575b600080fd5b34801561005057600080fd5b5061006461005f3660046104a8565b6100d7565b60405190151581526020015b60405180910390f35b610090610087366004610522565b50505050505050565b005b34801561009e57600080fd5b506100a761010e565b60405161007091906105f5565b3480156100c057600080fd5b506100c9610120565b604051908152602001610070565b60006001600160e01b031982166301ffc9a760e01b148061010857506001600160e01b03198216638564090760e01b145b92915050565b606061011b6020546102f4565b905090565b6020546000908190815b602081101561027057816001166001036101ca5760026000826020811061015357610153610628565b0154604080516020810192909252810185905260600160408051601f19818403018152908290526101839161063e565b602060405180830381855afa1580156101a0573d6000803e3d6000fd5b5050506040513d601f19601f820116820180604052508101906101c3919061065a565b9250610251565b600283602183602081106101e0576101e0610628565b015460408051602081019390935282015260600160408051601f198184030181529082905261020e9161063e565b602060405180830381855afa15801561022b573d6000803e3d6000fd5b5050506040513d601f19601f8201168201806040525081019061024e919061065a565b92505b61025c600283610673565b91508061026881610695565b91505061012a565b5060028261027f6020546102f4565b6040516102939291906000906020016106bc565b60408051601f19818403018152908290526102ad9161063e565b602060405180830381855afa1580156102ca573d6000803e3d6000fd5b5050506040513d601f19601f820116820180604052508101906102ed919061065a565b9250505090565b60408051600880825281830190925260609160208201818036833701905050905060c082901b8060071a60f81b8260008151811061033457610334610628565b60200101906001600160f81b031916908160001a9053508060061a60f81b8260018151811061036557610365610628565b60200101906001600160f81b031916908160001a9053508060051a60f81b8260028151811061039657610396610628565b60200101906001600160f81b031916908160001a9053508060041a60f81b826003815181106103c7576103c7610628565b60200101906001600160f81b031916908160001a9053508060031a60f81b826004815181106103f8576103f8610628565b60200101906001600160f81b031916908160001a9053508060021a60f81b8260058151811061042957610429610628565b60200101906001600160f81b031916908160001a9053508060011a60f81b8260068151811061045a5761045a610628565b60200101906001600160f81b031916908160001a9053508060001a60f81b8260078151811061048b5761048b610628565b60200101906001600160f81b031916908160001a90535050919050565b6000602082840312156104ba57600080fd5b81356001600160e01b0319811681146104d257600080fd5b9392505050565b60008083601f8401126104eb57600080fd5b50813567ffffffffffffffff81111561050357600080fd5b60208301915083602082850101111561051b57600080fd5b9250929050565b60008060008060008060006080888a03121561053d57600080fd5b873567ffffffffffffffff8082111561055557600080fd5b6105618b838c016104d9565b909950975060208a013591508082111561057a57600080fd5b6105868b838c016104d9565b909750955060408a013591508082111561059f57600080fd5b506105ac8a828b016104d9565b989b979a50959894979596606090950135949350505050565b60005b838110156105e05781810151838201526020016105c8565b838111156105ef576000848401525b50505050565b60208152600082518060208401526106148160408501602087016105c5565b601f01601f19169190910160400192915050565b634e487b7160e01b600052603260045260246000fd5b600082516106508184602087016105c5565b9190910192915050565b60006020828403121561066c57600080fd5b5051919050565b60008261069057634e487b7160e01b600052601260045260246000fd5b500490565b6000600182016106b557634e487b7160e01b600052601160045260246000fd5b5060010190565b838152600083516106d48160208501602088016105c5565b67ffffffffffffffff1993909316919092016020810191909152603801939250505056fea264697066735822122007285487a1e74e2a5a4918ced543ffe4cd70b1595ff211f58160271e24c00b1d64736f6c634300080d0033",
    "linkReferences": {}
  },
  "methodIdentifiers": {
    "deposit(bytes,bytes,bytes,bytes32)": "22895118",
    "get_deposit_count()": "621fd130",
    "get_deposit_root()": "c5f2892f",
    "supportsInterface(bytes4)": "01ffc9a7"
  },
  "id": 29
}