{
  "abi": [
    {
      "inputs": [
        {
          "internalType": "contract ERC20",
          "name": "_underlying",
          "type": "address"
        },
        {
          "internalType": "uint32",
          "name": "_rewardsCycleLength",
          "type": "uint32"
        }
      ],
      "stateMutability": "nonpayable",
      "type": "constructor"
    },
    {
      "inputs": [],
      "name": "SyncError",
      "type": "error"
    },
    {
      "anonymous": false,
      "inputs": [
        {
          "indexed": true,
          "internalType": "address",
          "name": "owner",
          "type": "address"
        },
        {
          "indexed": true,
          "internalType": "address",
          "name": "spender",
          "type": "address"
        },
        {
          "indexed": false,
          "internalType": "uint256",
          "name": "amount",
          "type": "uint256"
        }
      ],
      "name": "Approval",
      "type": "event"
    },
    {
      "anonymous": false,
      "inputs": [
        {
          "indexed": true,
          "internalType": "address",
          "name": "caller",
          "type": "address"
        },
        {
          "indexed": true,
          "internalType": "address",
          "name": "owner",
          "type": "address"
        },
        {
          "indexed": false,
          "internalType": "uint256",
          "name": "assets",
          "type": "uint256"
        },
        {
          "indexed": false,
          "internalType": "uint256",
          "name": "shares",
          "type": "uint256"
        }
      ],
      "name": "Deposit",
      "type": "event"
    },
    {
      "anonymous": false,
      "inputs": [
        {
          "indexed": true,
          "internalType": "uint32",
          "name": "cycleEnd",
          "type": "uint32"
        },
        {
          "indexed": false,
          "internalType": "uint256",
          "name": "rewardAmount",
          "type": "uint256"
        }
      ],
      "name": "NewRewardsCycle",
      "type": "event"
    },
    {
      "anonymous": false,
      "inputs": [
        {
          "indexed": true,
          "internalType": "address",
          "name": "from",
          "type": "address"
        },
        {
          "indexed": true,
          "internalType": "address",
          "name": "to",
          "type": "address"
        },
        {
          "indexed": false,
          "internalType": "uint256",
          "name": "amount",
          "type": "uint256"
        }
      ],
      "name": "Transfer",
      "type": "event"
    },
    {
      "anonymous": false,
      "inputs": [
        {
          "indexed": true,
          "internalType": "address",
          "name": "caller",
          "type": "address"
        },
        {
          "indexed": true,
          "internalType": "address",
          "name": "receiver",
          "type": "address"
        },
        {
          "indexed": true,
          "internalType": "address",
          "name": "owner",
          "type": "address"
        },
        {
          "indexed": false,
          "internalType": "uint256",
          "name": "assets",
          "type": "uint256"
        },
        {
          "indexed": false,
          "internalType": "uint256",
          "name": "shares",
          "type": "uint256"
        }
      ],
      "name": "Withdraw",
      "type": "event"
    },
    {
      "inputs": [],
      "name": "DOMAIN_SEPARATOR",
      "outputs": [
        {
          "internalType": "bytes32",
          "name": "",
          "type": "bytes32"
        }
      ],
      "stateMutability": "view",
      "type": "function"
    },
    {
      "inputs": [
        {
          "internalType": "address",
          "name": "",
          "type": "address"
        },
        {
          "internalType": "address",
          "name": "",
          "type": "address"
        }
      ],
      "name": "allowance",
      "outputs": [
        {
          "internalType": "uint256",
          "name": "",
          "type": "uint256"
        }
      ],
      "stateMutability": "view",
      "type": "function"
    },
    {
      "inputs": [
        {
          "internalType": "address",
          "name": "spender",
          "type": "address"
        },
        {
          "internalType": "uint256",
          "name": "amount",
          "type": "uint256"
        }
      ],
      "name": "approve",
      "outputs": [
        {
          "internalType": "bool",
          "name": "",
          "type": "bool"
        }
      ],
      "stateMutability": "nonpayable",
      "type": "function"
    },
    {
      "inputs": [],
      "name": "asset",
      "outputs": [
        {
          "internalType": "contract ERC20",
          "name": "",
          "type": "address"
        }
      ],
      "stateMutability": "view",
      "type": "function"
    },
    {
      "inputs": [
        {
          "internalType": "address",
          "name": "",
          "type": "address"
        }
      ],
      "name": "balanceOf",
      "outputs": [
        {
          "internalType": "uint256",
          "name": "",
          "type": "uint256"
        }
      ],
      "stateMutability": "view",
      "type": "function"
    },
    {
      "inputs": [
        {
          "internalType": "uint256",
          "name": "shares",
          "type": "uint256"
        }
      ],
      "name": "convertToAssets",
      "outputs": [
        {
          "internalType": "uint256",
          "name": "",
          "type": "uint256"
        }
      ],
      "stateMutability": "view",
      "type": "function"
    },
    {
      "inputs": [
        {
          "internalType": "uint256",
          "name": "assets",
          "type": "uint256"
        }
      ],
      "name": "convertToShares",
      "outputs": [
        {
          "internalType": "uint256",
          "name": "",
          "type": "uint256"
        }
      ],
      "stateMutability": "view",
      "type": "function"
    },
    {
      "inputs": [],
      "name": "decimals",
      "outputs": [
        {
          "internalType": "uint8",
          "name": "",
          "type": "uint8"
        }
      ],
      "stateMutability": "view",
      "type": "function"
    },
    {
      "inputs": [
        {
          "internalType": "uint256",
          "name": "assets",
          "type": "uint256"
        },
        {
          "internalType": "address",
          "name": "receiver",
          "type": "address"
        }
      ],
      "name": "deposit",
      "outputs": [
        {
          "internalType": "uint256",
          "name": "shares",
          "type": "uint256"
        }
      ],
      "stateMutability": "nonpayable",
      "type": "function"
    },
    {
      "inputs": [
        {
          "internalType": "uint256",
          "name": "assets",
          "type": "uint256"
        },
        {
          "internalType": "address",
          "name": "receiver",
          "type": "address"
        },
        {
          "internalType": "uint256",
          "name": "deadline",
          "type": "uint256"
        },
        {
          "internalType": "bool",
          "name": "approveMax",
          "type": "bool"
        },
        {
          "internalType": "uint8",
          "name": "v",
          "type": "uint8"
        },
        {
          "internalType": "bytes32",
          "name": "r",
          "type": "bytes32"
        },
        {
          "internalType": "bytes32",
          "name": "s",
          "type": "bytes32"
        }
      ],
      "name": "depositWithSignature",
      "outputs": [
        {
          "internalType": "uint256",
          "name": "shares",
          "type": "uint256"
        }
      ],
      "stateMutability": "nonpayable",
      "type": "function"
    },
    {
      "inputs": [
        {
          "internalType": "uint256",
          "name": "assets",
          "type": "uint256"
        },
        {
          "internalType": "address",
          "name": "receiver",
          "type": "address"
        }
      ],
      "name": "input",
      "outputs": [
        {
          "internalType": "uint256",
          "name": "shares",
          "type": "uint256"
        }
      ],
      "stateMutability": "nonpayable",
      "type": "function"
    },
    {
      "inputs": [],
      "name": "lastRewardAmount",
      "outputs": [
        {
          "internalType": "uint192",
          "name": "",
          "type": "uint192"
        }
      ],
      "stateMutability": "view",
      "type": "function"
    },
    {
      "inputs": [],
      "name": "lastSync",
      "outputs": [
        {
          "internalType": "uint32",
          "name": "",
          "type": "uint32"
        }
      ],
      "stateMutability": "view",
      "type": "function"
    },
    {
      "inputs": [
        {
          "internalType": "address",
          "name": "",
          "type": "address"
        }
      ],
      "name": "maxDeposit",
      "outputs": [
        {
          "internalType": "uint256",
          "name": "",
          "type": "uint256"
        }
      ],
      "stateMutability": "view",
      "type": "function"
    },
    {
      "inputs": [
        {
          "internalType": "address",
          "name": "",
          "type": "address"
        }
      ],
      "name": "maxMint",
      "outputs": [
        {
          "internalType": "uint256",
          "name": "",
          "type": "uint256"
        }
      ],
      "stateMutability": "view",
      "type": "function"
    },
    {
      "inputs": [
        {
          "internalType": "address",
          "name": "owner",
          "type": "address"
        }
      ],
      "name": "maxRedeem",
      "outputs": [
        {
          "internalType": "uint256",
          "name": "",
          "type": "uint256"
        }
      ],
      "stateMutability": "view",
      "type": "function"
    },
    {
      "inputs": [
        {
          "internalType": "address",
          "name": "owner",
          "type": "address"
        }
      ],
      "name": "maxWithdraw",
      "outputs": [
        {
          "internalType": "uint256",
          "name": "",
          "type": "uint256"
        }
      ],
      "stateMutability": "view",
      "type": "function"
    },
    {
      "inputs": [
        {
          "internalType": "uint256",
          "name": "shares",
          "type": "uint256"
        },
        {
          "internalType": "address",
          "name": "receiver",
          "type": "address"
        }
      ],
      "name": "mint",
      "outputs": [
        {
          "internalType": "uint256",
          "name": "assets",
          "type": "uint256"
        }
      ],
      "stateMutability": "nonpayable",
      "type": "function"
    },
    {
      "inputs": [
        {
          "internalType": "uint256",
          "name": "shares",
          "type": "uint256"
        },
        {
          "internalType": "address",
          "name": "receiver",
          "type": "address"
        },
        {
          "internalType": "uint256",
          "name": "deadline",
          "type": "uint256"
        },
        {
          "internalType": "bool",
          "name": "approveMax",
          "type": "bool"
        },
        {
          "internalType": "uint8",
          "name": "v",
          "type": "uint8"
        },
        {
          "internalType": "bytes32",
          "name": "r",
          "type": "bytes32"
        },
        {
          "internalType": "bytes32",
          "name": "s",
          "type": "bytes32"
        }
      ],
      "name": "mintWithSignature",
      "outputs": [
        {
          "internalType": "uint256",
          "name": "assets",
          "type": "uint256"
        }
      ],
      "stateMutability": "nonpayable",
      "type": "function"
    },
    {
      "inputs": [],
      "name": "name",
      "outputs": [
        {
          "internalType": "string",
          "name": "",
          "type": "string"
        }
      ],
      "stateMutability": "view",
      "type": "function"
    },
    {
      "inputs": [
        {
          "internalType": "address",
          "name": "",
          "type": "address"
        }
      ],
      "name": "nonces",
      "outputs": [
        {
          "internalType": "uint256",
          "name": "",
          "type": "uint256"
        }
      ],
      "stateMutability": "view",
      "type": "function"
    },
    {
      "inputs": [
        {
          "internalType": "address",
          "name": "owner",
          "type": "address"
        },
        {
          "internalType": "address",
          "name": "spender",
          "type": "address"
        },
        {
          "internalType": "uint256",
          "name": "value",
          "type": "uint256"
        },
        {
          "internalType": "uint256",
          "name": "deadline",
          "type": "uint256"
        },
        {
          "internalType": "uint8",
          "name": "v",
          "type": "uint8"
        },
        {
          "internalType": "bytes32",
          "name": "r",
          "type": "bytes32"
        },
        {
          "internalType": "bytes32",
          "name": "s",
          "type": "bytes32"
        }
      ],
      "name": "permit",
      "outputs": [],
      "stateMutability": "nonpayable",
      "type": "function"
    },
    {
      "inputs": [
        {
          "internalType": "uint256",
          "name": "assets",
          "type": "uint256"
        }
      ],
      "name": "previewDeposit",
      "outputs": [
        {
          "internalType": "uint256",
          "name": "",
          "type": "uint256"
        }
      ],
      "stateMutability": "view",
      "type": "function"
    },
    {
      "inputs": [
        {
          "internalType": "uint256",
          "name": "shares",
          "type": "uint256"
        }
      ],
      "name": "previewMint",
      "outputs": [
        {
          "internalType": "uint256",
          "name": "",
          "type": "uint256"
        }
      ],
      "stateMutability": "view",
      "type": "function"
    },
    {
      "inputs": [
        {
          "internalType": "uint256",
          "name": "shares",
          "type": "uint256"
        }
      ],
      "name": "previewRedeem",
      "outputs": [
        {
          "internalType": "uint256",
          "name": "",
          "type": "uint256"
        }
      ],
      "stateMutability": "view",
      "type": "function"
    },
    {
      "inputs": [
        {
          "internalType": "uint256",
          "name": "assets",
          "type": "uint256"
        }
      ],
      "name": "previewWithdraw",
      "outputs": [
        {
          "internalType": "uint256",
          "name": "",
          "type": "uint256"
        }
      ],
      "stateMutability": "view",
      "type": "function"
    },
    {
      "inputs": [],
      "name": "pricePerShare",
      "outputs": [
        {
          "internalType": "uint256",
          "name": "",
          "type": "uint256"
        }
      ],
      "stateMutability": "view",
      "type": "function"
    },
    {
      "inputs": [
        {
          "internalType": "uint256",
          "name": "shares",
          "type": "uint256"
        },
        {
          "internalType": "address",
          "name": "receiver",
          "type": "address"
        },
        {
          "internalType": "address",
          "name": "owner",
          "type": "address"
        }
      ],
      "name": "redeem",
      "outputs": [
        {
          "internalType": "uint256",
          "name": "assets",
          "type": "uint256"
        }
      ],
      "stateMutability": "nonpayable",
      "type": "function"
    },
    {
      "inputs": [],
      "name": "rewardsCycleEnd",
      "outputs": [
        {
          "internalType": "uint32",
          "name": "",
          "type": "uint32"
        }
      ],
      "stateMutability": "view",
      "type": "function"
    },
    {
      "inputs": [],
      "name": "rewardsCycleLength",
      "outputs": [
        {
          "internalType": "uint32",
          "name": "",
          "type": "uint32"
        }
      ],
      "stateMutability": "view",
      "type": "function"
    },
    {
      "inputs": [],
      "name": "symbol",
      "outputs": [
        {
          "internalType": "string",
          "name": "",
          "type": "string"
        }
      ],
      "stateMutability": "view",
      "type": "function"
    },
    {
      "inputs": [],
      "name": "syncRewards",
      "outputs": [],
      "stateMutability": "nonpayable",
      "type": "function"
    },
    {
      "inputs": [],
      "name": "totalAssets",
      "outputs": [
        {
          "internalType": "uint256",
          "name": "",
          "type": "uint256"
        }
      ],
      "stateMutability": "view",
      "type": "function"
    },
    {
      "inputs": [],
      "name": "totalSupply",
      "outputs": [
        {
          "internalType": "uint256",
          "name": "",
          "type": "uint256"
        }
      ],
      "stateMutability": "view",
      "type": "function"
    },
    {
      "inputs": [
        {
          "internalType": "address",
          "name": "to",
          "type": "address"
        },
        {
          "internalType": "uint256",
          "name": "amount",
          "type": "uint256"
        }
      ],
      "name": "transfer",
      "outputs": [
        {
          "internalType": "bool",
          "name": "",
          "type": "bool"
        }
      ],
      "stateMutability": "nonpayable",
      "type": "function"
    },
    {
      "inputs": [
        {
          "internalType": "address",
          "name": "from",
          "type": "address"
        },
        {
          "internalType": "address",
          "name": "to",
          "type": "address"
        },
        {
          "internalType": "uint256",
          "name": "amount",
          "type": "uint256"
        }
      ],
      "name": "transferFrom",
      "outputs": [
        {
          "internalType": "bool",
          "name": "",
          "type": "bool"
        }
      ],
      "stateMutability": "nonpayable",
      "type": "function"
    },
    {
      "inputs": [
        {
          "internalType": "uint256",
          "name": "assets",
          "type": "uint256"
        },
        {
          "internalType": "address",
          "name": "receiver",
          "type": "address"
        },
        {
          "internalType": "address",
          "name": "owner",
          "type": "address"
        }
      ],
      "name": "withdraw",
      "outputs": [
        {
          "internalType": "uint256",
          "name": "shares",
          "type": "uint256"
        }
      ],
      "stateMutability": "nonpayable",
      "type": "function"
    }
  ],
  "bytecode": {
    "object": "0x6101206040523480156200001257600080fd5b506040516200215238038062002152833981016040819052620000359162000301565b80826040518060400160405280601181526020017029ba30b5b2b210233930bc1022ba3432b960791b815250604051806040016040528060078152602001660e6cce4f08aa8960cb1b8152508181846001600160a01b031663313ce5676040518163ffffffff1660e01b8152600401602060405180830381865afa158015620000c2573d6000803e3d6000fd5b505050506040513d601f19601f82011682018060405250810190620000e8919062000353565b8251620000fd90600090602086019062000265565b5081516200011390600190602085019062000265565b5060ff81166080524660a05262000129620001b1565b60c052505050506001600160a01b039190911660e0525063ffffffff81166101008190528062000165426200024d602090811b6200135917901c565b6200017191906200037f565b6200017d9190620003b1565b6006805463ffffffff929092166401000000000263ffffffff60201b199092169190911790555050600160085550620004cb565b60007f8b73c3c69bb8fe3d512ecc4cf759cc79239f7b179b0ffacaa9a75d522b39400f6000604051620001e5919062000428565b6040805191829003822060208301939093528101919091527fc89efdaa54c0f20c7adf612882df0950f5a951637e0307cdcb4c672f298b8bc660608201524660808201523060a082015260c00160405160208183030381529060405280519060200120905090565b600064010000000082106200026157600080fd5b5090565b8280546200027390620003ec565b90600052602060002090601f016020900481019282620002975760008555620002e2565b82601f10620002b257805160ff1916838001178555620002e2565b82800160010185558215620002e2579182015b82811115620002e2578251825591602001919060010190620002c5565b50620002619291505b80821115620002615760008155600101620002eb565b600080604083850312156200031557600080fd5b82516001600160a01b03811681146200032d57600080fd5b602084015190925063ffffffff811681146200034857600080fd5b809150509250929050565b6000602082840312156200036657600080fd5b815160ff811681146200037857600080fd5b9392505050565b600063ffffffff80841680620003a557634e487b7160e01b600052601260045260246000fd5b92169190910492915050565b600063ffffffff80831681851681830481118215151615620003e357634e487b7160e01b600052601160045260246000fd5b02949350505050565b600181811c908216806200040157607f821691505b6020821081036200042257634e487b7160e01b600052602260045260246000fd5b50919050565b600080835481600182811c9150808316806200044557607f831692505b602080841082036200046557634e487b7160e01b86526022600452602486fd5b8180156200047c57600181146200048e57620004bd565b60ff19861689528489019650620004bd565b60008a81526020902060005b86811015620004b55781548b8201529085019083016200049a565b505084890196505b509498975050505050505050565b60805160a05160c05160e05161010051611c0a62000548600039600081816103cc0152610bb60152600081816103070152818161091601528181610a1301528181610b1301528181610cb001528181610d4701528181610f5501526110a1015260006108ab01526000610876015260006102c60152611c0a6000f3fe608060405234801561001057600080fd5b50600436106102275760003560e01c806372c0c21111610130578063ba087652116100b8578063d505accf1161007c578063d505accf14610512578063d905777e14610525578063dd62ed3e1461054e578063e7ff69f114610579578063ef8b30f71461059157600080fd5b8063ba087652146104a7578063bafedcaa146104ba578063c63d75b614610354578063c6e6f592146104ec578063ce96cb77146104ff57600080fd5b806395d89b41116100ff57806395d89b411461045e57806399530b0614610466578063a9059cbb1461046e578063b3d7f6b914610481578063b460af941461049457600080fd5b806372c0c2111461040e57806375e077c3146104185780637ecebe001461042b57806394bf804d1461044b57600080fd5b806338d52e0f116101b35780634cdad506116101825780634cdad5061461037c5780636917516b1461038f5780636e553f65146103b45780636fcf5e5f146103c757806370a08231146103ee57600080fd5b806338d52e0f146103025780633df094f014610341578063402d267d146103545780634af3b3d01461036957600080fd5b80630a28a477116101fa5780630a28a4771461029257806318160ddd146102a557806323b872dd146102ae578063313ce567146102c15780633644e515146102fa57600080fd5b806301e1d1141461022c57806306fdde031461024757806307a2d13a1461025c578063095ea7b31461026f575b600080fd5b6102346105a4565b6040519081526020015b60405180910390f35b61024f61064a565b60405161023e91906116ee565b61023461026a366004611743565b6106d8565b61028261027d366004611778565b610705565b604051901515815260200161023e565b6102346102a0366004611743565b610772565b61023460025481565b6102826102bc3660046117a2565b610792565b6102e87f000000000000000000000000000000000000000000000000000000000000000081565b60405160ff909116815260200161023e565b610234610872565b6103297f000000000000000000000000000000000000000000000000000000000000000081565b6040516001600160a01b03909116815260200161023e565b61023461034f3660046117de565b6108cd565b61023461036236600461180a565b5060001990565b610234610377366004611836565b6108d9565b61023461038a366004611743565b6109ab565b60065461039f9063ffffffff1681565b60405163ffffffff909116815260200161023e565b6102346103c23660046117de565b6109b6565b61039f7f000000000000000000000000000000000000000000000000000000000000000081565b6102346103fc36600461180a565b60036020526000908152604090205481565b610416610a95565b005b610234610426366004611836565b610c7b565b61023461043936600461180a565b60056020526000908152604090205481565b6102346104593660046117de565b610d2d565b61024f610dc9565b610234610dd6565b61028261047c366004611778565b610de9565b61023461048f366004611743565b610e4f565b6102346104a23660046118a7565b610e6e565b6102346104b53660046118a7565b610f7c565b6006546104d490600160401b90046001600160c01b031681565b6040516001600160c01b03909116815260200161023e565b6102346104fa366004611743565b6110c8565b61023461050d36600461180a565b6110e8565b6104166105203660046118e3565b61110a565b61023461053336600461180a565b6001600160a01b031660009081526003602052604090205490565b61023461055c366004611931565b600460209081526000928352604080842090915290825290205481565b60065461039f90640100000000900463ffffffff1681565b61023461059f366004611743565b61134e565b600754600654600091906001600160c01b03600160401b8204169063ffffffff6401000000008204811691164282116105f3576105ea6001600160c01b03841685611971565b94505050505090565b60006105ff8284611989565b63ffffffff168263ffffffff164261061791906119ae565b61062a906001600160c01b0387166119c5565b61063491906119fa565b90506106408186611971565b9550505050505090565b6000805461065790611a0e565b80601f016020809104026020016040519081016040528092919081815260200182805461068390611a0e565b80156106d05780601f106106a5576101008083540402835291602001916106d0565b820191906000526020600020905b8154815290600101906020018083116106b357829003601f168201915b505050505081565b60025460009080156106fc576106f76106ef6105a4565b849083611370565b6106fe565b825b9392505050565b3360008181526004602090815260408083206001600160a01b038716808552925280832085905551919290917f8c5be1e5ebec7d5bd14f71427d1e84f3dd0314c0f7b2291e5b200ac8c7c3b925906107609086815260200190565b60405180910390a35060015b92915050565b60025460009080156106fc576106f78161078a6105a4565b85919061138f565b6001600160a01b038316600090815260046020908152604080832033845290915281205460001981146107ee576107c983826119ae565b6001600160a01b03861660009081526004602090815260408083203384529091529020555b6001600160a01b038516600090815260036020526040812080548592906108169084906119ae565b90915550506001600160a01b0380851660008181526003602052604090819020805487019055519091871690600080516020611bb58339815191529061085f9087815260200190565b60405180910390a3506001949350505050565b60007f000000000000000000000000000000000000000000000000000000000000000046146108a8576108a36113bd565b905090565b507f000000000000000000000000000000000000000000000000000000000000000090565b60006106fe83836109b6565b60006108e3611457565b6000856108f8576108f389610e4f565b6108fc565b6000195b60405163d505accf60e01b81529091506001600160a01b037f0000000000000000000000000000000000000000000000000000000000000000169063d505accf90610957903390309086908d908c908c908c90600401611a48565b600060405180830381600087803b15801561097157600080fd5b505af1158015610985573d6000803e3d6000fd5b505050506109938989610d2d565b9150506109a06001600855565b979650505050505050565b600061076c826106d8565b60006109c18361134e565b905080600003610a065760405162461bcd60e51b815260206004820152600b60248201526a5a45524f5f53484152455360a81b60448201526064015b60405180910390fd5b610a3b6001600160a01b037f0000000000000000000000000000000000000000000000000000000000000000163330866114b0565b610a45828261153a565b60408051848152602081018390526001600160a01b0384169133917fdcbc1c05240f31ff3ad067ef1ee35ce4997762752e3a095284754544f4c709d7910160405180910390a361076c8382611594565b600654600160401b90046001600160c01b03166000610ab342611359565b60065490915063ffffffff64010000000090910481169082161015610aeb5760405163127d33e760e21b815260040160405180910390fd5b6007546040516370a0823160e01b81523060048201526000906001600160c01b0385169083907f00000000000000000000000000000000000000000000000000000000000000006001600160a01b0316906370a0823190602401602060405180830381865afa158015610b62573d6000803e3d6000fd5b505050506040513d601f19601f82011682018060405250810190610b869190611a89565b610b9091906119ae565b610b9a91906119ae565b9050610baf6001600160c01b03851683611971565b60075560007f000000000000000000000000000000000000000000000000000000000000000080610be08187611aa2565b610bea9190611aca565b610bf49190611aed565b9050610bff826115b8565b63ffffffff82811664010000000081026001600160c01b0393909316600160401b0267ffffffffffffffff191691871691909117919091176006556040517f2fa39aac60d1c94cda4ab0e86ae9c0ffab5b926e5b827a4ccba1d9b5b2ef596e90610c6c9085815260200190565b60405180910390a25050505050565b6000610c85611457565b600085610c925788610c96565b6000195b60405163d505accf60e01b81529091506001600160a01b037f0000000000000000000000000000000000000000000000000000000000000000169063d505accf90610cf1903390309086908d908c908c908c90600401611a48565b600060405180830381600087803b158015610d0b57600080fd5b505af1158015610d1f573d6000803e3d6000fd5b5050505061099389896109b6565b6000610d3883610e4f565b9050610d6f6001600160a01b037f0000000000000000000000000000000000000000000000000000000000000000163330846114b0565b610d79828461153a565b60408051828152602081018590526001600160a01b0384169133917fdcbc1c05240f31ff3ad067ef1ee35ce4997762752e3a095284754544f4c709d7910160405180910390a361076c8184611594565b6001805461065790611a0e565b60006108a3670de0b6b3a76400006106d8565b33600090815260036020526040812080548391908390610e0a9084906119ae565b90915550506001600160a01b03831660008181526003602052604090819020805485019055513390600080516020611bb5833981519152906107609086815260200190565b60025460009080156106fc576106f7610e666105a4565b84908361138f565b6000610e7984610772565b9050336001600160a01b03831614610ee9576001600160a01b03821660009081526004602090815260408083203384529091529020546000198114610ee757610ec282826119ae565b6001600160a01b03841660009081526004602090815260408083203384529091529020555b505b610ef384826115ca565b610efd82826115f3565b60408051858152602081018390526001600160a01b03808516929086169133917ffbde797d201c681b91056529119e0b02407c7bb96a4a2c75c01fc9667232c8db910160405180910390a46106fe6001600160a01b037f0000000000000000000000000000000000000000000000000000000000000000168486611655565b6000336001600160a01b03831614610fec576001600160a01b03821660009081526004602090815260408083203384529091529020546000198114610fea57610fc585826119ae565b6001600160a01b03841660009081526004602090815260408083203384529091529020555b505b610ff5846109ab565b9050806000036110355760405162461bcd60e51b815260206004820152600b60248201526a5a45524f5f41535345545360a81b60448201526064016109fd565b61103f81856115ca565b61104982856115f3565b60408051828152602081018690526001600160a01b03808516929086169133917ffbde797d201c681b91056529119e0b02407c7bb96a4a2c75c01fc9667232c8db910160405180910390a46106fe6001600160a01b037f0000000000000000000000000000000000000000000000000000000000000000168483611655565b60025460009080156106fc576106f7816110e06105a4565b859190611370565b6001600160a01b03811660009081526003602052604081205461076c906106d8565b4284101561115a5760405162461bcd60e51b815260206004820152601760248201527f5045524d49545f444541444c494e455f4558504952454400000000000000000060448201526064016109fd565b60006001611166610872565b6001600160a01b038a811660008181526005602090815260409182902080546001810190915582517f6e71edae12b1b97f4d1f60370fef10105fa2faae0126114a169c64845d6126c98184015280840194909452938d166060840152608083018c905260a083019390935260c08083018b90528151808403909101815260e08301909152805192019190912061190160f01b6101008301526101028201929092526101228101919091526101420160408051601f198184030181528282528051602091820120600084529083018083525260ff871690820152606081018590526080810184905260a0016020604051602081039080840390855afa158015611272573d6000803e3d6000fd5b5050604051601f1901519150506001600160a01b038116158015906112a85750876001600160a01b0316816001600160a01b0316145b6112e55760405162461bcd60e51b815260206004820152600e60248201526d24a72b20a624a22fa9a4a3a722a960911b60448201526064016109fd565b6001600160a01b0390811660009081526004602090815260408083208a8516808552908352928190208990555188815291928a16917f8c5be1e5ebec7d5bd14f71427d1e84f3dd0314c0f7b2291e5b200ac8c7c3b925910160405180910390a350505050505050565b600061076c826110c8565b6000640100000000821061136c57600080fd5b5090565b82820281151584158583048514171661138857600080fd5b0492915050565b8282028115158415858304851417166113a757600080fd5b6001826001830304018115150290509392505050565b60007f8b73c3c69bb8fe3d512ecc4cf759cc79239f7b179b0ffacaa9a75d522b39400f60006040516113ef9190611b19565b6040805191829003822060208301939093528101919091527fc89efdaa54c0f20c7adf612882df0950f5a951637e0307cdcb4c672f298b8bc660608201524660808201523060a082015260c00160405160208183030381529060405280519060200120905090565b6002600854036114a95760405162461bcd60e51b815260206004820152601f60248201527f5265656e7472616e637947756172643a207265656e7472616e742063616c6c0060448201526064016109fd565b6002600855565b60006040516323b872dd60e01b81528460048201528360248201528260448201526020600060648360008a5af13d15601f3d11600160005114161716915050806115335760405162461bcd60e51b81526020600482015260146024820152731514905394d1915497d19493d357d1905253115160621b60448201526064016109fd565b5050505050565b806002600082825461154c9190611971565b90915550506001600160a01b038216600081815260036020908152604080832080548601905551848152600080516020611bb583398151915291015b60405180910390a35050565b81600760008282546115a69190611971565b909155506115b49050828282565b5050565b6000600160c01b821061136c57600080fd5b6115d482826116d3565b600654640100000000900463ffffffff1642106115b4576115b4610a95565b6001600160a01b0382166000908152600360205260408120805483929061161b9084906119ae565b90915550506002805482900390556040518181526000906001600160a01b03841690600080516020611bb583398151915290602001611588565b600060405163a9059cbb60e01b8152836004820152826024820152602060006044836000895af13d15601f3d11600160005114161716915050806116cd5760405162461bcd60e51b815260206004820152600f60248201526e1514905394d1915497d19052531151608a1b60448201526064016109fd565b50505050565b81600760008282546116e591906119ae565b90915550505050565b600060208083528351808285015260005b8181101561171b578581018301518582016040015282016116ff565b8181111561172d576000604083870101525b50601f01601f1916929092016040019392505050565b60006020828403121561175557600080fd5b5035919050565b80356001600160a01b038116811461177357600080fd5b919050565b6000806040838503121561178b57600080fd5b6117948361175c565b946020939093013593505050565b6000806000606084860312156117b757600080fd5b6117c08461175c565b92506117ce6020850161175c565b9150604084013590509250925092565b600080604083850312156117f157600080fd5b823591506118016020840161175c565b90509250929050565b60006020828403121561181c57600080fd5b6106fe8261175c565b803560ff8116811461177357600080fd5b600080600080600080600060e0888a03121561185157600080fd5b873596506118616020890161175c565b9550604088013594506060880135801515811461187d57600080fd5b935061188b60808901611825565b925060a0880135915060c0880135905092959891949750929550565b6000806000606084860312156118bc57600080fd5b833592506118cc6020850161175c565b91506118da6040850161175c565b90509250925092565b600080600080600080600060e0888a0312156118fe57600080fd5b6119078861175c565b96506119156020890161175c565b9550604088013594506060880135935061188b60808901611825565b6000806040838503121561194457600080fd5b61194d8361175c565b91506118016020840161175c565b634e487b7160e01b600052601160045260246000fd5b600082198211156119845761198461195b565b500190565b600063ffffffff838116908316818110156119a6576119a661195b565b039392505050565b6000828210156119c0576119c061195b565b500390565b60008160001904831182151516156119df576119df61195b565b500290565b634e487b7160e01b600052601260045260246000fd5b600082611a0957611a096119e4565b500490565b600181811c90821680611a2257607f821691505b602082108103611a4257634e487b7160e01b600052602260045260246000fd5b50919050565b6001600160a01b0397881681529590961660208601526040850193909352606084019190915260ff16608083015260a082015260c081019190915260e00190565b600060208284031215611a9b57600080fd5b5051919050565b600063ffffffff808316818516808303821115611ac157611ac161195b565b01949350505050565b600063ffffffff80841680611ae157611ae16119e4565b92169190910492915050565b600063ffffffff80831681851681830481118215151615611b1057611b1061195b565b02949350505050565b600080835481600182811c915080831680611b3557607f831692505b60208084108203611b5457634e487b7160e01b86526022600452602486fd5b818015611b685760018114611b7957611ba6565b60ff19861689528489019650611ba6565b60008a81526020902060005b86811015611b9e5781548b820152908501908301611b85565b505084890196505b50949897505050505050505056feddf252ad1be2c89b69c2b068fc378daa952ba7f163c4a11628f55a4df523b3efa2646970667358221220988fca4da44c0de2b358f4b40b9be68bfed376e1c008d6077debe6f502e19cb264736f6c634300080d0033",
    "linkReferences": {}
  },
  "methodIdentifiers": {
    "DOMAIN_SEPARATOR()": "3644e515",
    "allowance(address,address)": "dd62ed3e",
    "approve(address,uint256)": "095ea7b3",
    "asset()": "38d52e0f",
    "balanceOf(address)": "70a08231",
    "convertToAssets(uint256)": "07a2d13a",
    "convertToShares(uint256)": "c6e6f592",
    "decimals()": "313ce567",
    "deposit(uint256,address)": "6e553f65",
    "depositWithSignature(uint256,address,uint256,bool,uint8,bytes32,bytes32)": "75e077c3",
    "input(uint256,address)": "3df094f0",
    "lastRewardAmount()": "bafedcaa",
    "lastSync()": "6917516b",
    "maxDeposit(address)": "402d267d",
    "maxMint(address)": "c63d75b6",
    "maxRedeem(address)": "d905777e",
    "maxWithdraw(address)": "ce96cb77",
    "mint(uint256,address)": "94bf804d",
    "mintWithSignature(uint256,address,uint256,bool,uint8,bytes32,bytes32)": "4af3b3d0",
    "name()": "06fdde03",
    "nonces(address)": "7ecebe00",
    "permit(address,address,uint256,uint256,uint8,bytes32,bytes32)": "d505accf",
    "previewDeposit(uint256)": "ef8b30f7",
    "previewMint(uint256)": "b3d7f6b9",
    "previewRedeem(uint256)": "4cdad506",
    "previewWithdraw(uint256)": "0a28a477",
    "pricePerShare()": "99530b06",
    "redeem(uint256,address,address)": "ba087652",
    "rewardsCycleEnd()": "e7ff69f1",
    "rewardsCycleLength()": "6fcf5e5f",
    "symbol()": "95d89b41",
    "syncRewards()": "72c0c211",
    "totalAssets()": "01e1d114",
    "totalSupply()": "18160ddd",
    "transfer(address,uint256)": "a9059cbb",
    "transferFrom(address,address,uint256)": "23b872dd",
    "withdraw(uint256,address,address)": "b460af94"
  },
  "id": 36
}