{
  "abi": [
    {
      "inputs": [
        {
          "internalType": "contract ERC20",
          "name": "_underlying",
          "type": "address"
        },
        {
          "internalType": "uint32",
          "name": "_rewardsCycleLength",
          "type": "uint32"
        }
      ],
      "stateMutability": "nonpayable",
      "type": "constructor"
    },
    {
      "inputs": [],
      "name": "SyncError",
      "type": "error"
    },
    {
      "anonymous": false,
      "inputs": [
        {
          "indexed": true,
          "internalType": "address",
          "name": "owner",
          "type": "address"
        },
        {
          "indexed": true,
          "internalType": "address",
          "name": "spender",
          "type": "address"
        },
        {
          "indexed": false,
          "internalType": "uint256",
          "name": "amount",
          "type": "uint256"
        }
      ],
      "name": "Approval",
      "type": "event"
    },
    {
      "anonymous": false,
      "inputs": [
        {
          "indexed": true,
          "internalType": "address",
          "name": "caller",
          "type": "address"
        },
        {
          "indexed": true,
          "internalType": "address",
          "name": "owner",
          "type": "address"
        },
        {
          "indexed": false,
          "internalType": "uint256",
          "name": "assets",
          "type": "uint256"
        },
        {
          "indexed": false,
          "internalType": "uint256",
          "name": "shares",
          "type": "uint256"
        }
      ],
      "name": "Deposit",
      "type": "event"
    },
    {
      "anonymous": false,
      "inputs": [
        {
          "indexed": true,
          "internalType": "uint32",
          "name": "cycleEnd",
          "type": "uint32"
        },
        {
          "indexed": false,
          "internalType": "uint256",
          "name": "rewardAmount",
          "type": "uint256"
        }
      ],
      "name": "NewRewardsCycle",
      "type": "event"
    },
    {
      "anonymous": false,
      "inputs": [
        {
          "indexed": true,
          "internalType": "address",
          "name": "from",
          "type": "address"
        },
        {
          "indexed": true,
          "internalType": "address",
          "name": "to",
          "type": "address"
        },
        {
          "indexed": false,
          "internalType": "uint256",
          "name": "amount",
          "type": "uint256"
        }
      ],
      "name": "Transfer",
      "type": "event"
    },
    {
      "anonymous": false,
      "inputs": [
        {
          "indexed": true,
          "internalType": "address",
          "name": "caller",
          "type": "address"
        },
        {
          "indexed": true,
          "internalType": "address",
          "name": "receiver",
          "type": "address"
        },
        {
          "indexed": true,
          "internalType": "address",
          "name": "owner",
          "type": "address"
        },
        {
          "indexed": false,
          "internalType": "uint256",
          "name": "assets",
          "type": "uint256"
        },
        {
          "indexed": false,
          "internalType": "uint256",
          "name": "shares",
          "type": "uint256"
        }
      ],
      "name": "Withdraw",
      "type": "event"
    },
    {
      "inputs": [],
      "name": "DOMAIN_SEPARATOR",
      "outputs": [
        {
          "internalType": "bytes32",
          "name": "",
          "type": "bytes32"
        }
      ],
      "stateMutability": "view",
      "type": "function"
    },
    {
      "inputs": [
        {
          "internalType": "address",
          "name": "",
          "type": "address"
        },
        {
          "internalType": "address",
          "name": "",
          "type": "address"
        }
      ],
      "name": "allowance",
      "outputs": [
        {
          "internalType": "uint256",
          "name": "",
          "type": "uint256"
        }
      ],
      "stateMutability": "view",
      "type": "function"
    },
    {
      "inputs": [
        {
          "internalType": "address",
          "name": "spender",
          "type": "address"
        },
        {
          "internalType": "uint256",
          "name": "amount",
          "type": "uint256"
        }
      ],
      "name": "approve",
      "outputs": [
        {
          "internalType": "bool",
          "name": "",
          "type": "bool"
        }
      ],
      "stateMutability": "nonpayable",
      "type": "function"
    },
    {
      "inputs": [],
      "name": "asset",
      "outputs": [
        {
          "internalType": "contract ERC20",
          "name": "",
          "type": "address"
        }
      ],
      "stateMutability": "view",
      "type": "function"
    },
    {
      "inputs": [
        {
          "internalType": "address",
          "name": "",
          "type": "address"
        }
      ],
      "name": "balanceOf",
      "outputs": [
        {
          "internalType": "uint256",
          "name": "",
          "type": "uint256"
        }
      ],
      "stateMutability": "view",
      "type": "function"
    },
    {
      "inputs": [
        {
          "internalType": "uint256",
          "name": "shares",
          "type": "uint256"
        }
      ],
      "name": "convertToAssets",
      "outputs": [
        {
          "internalType": "uint256",
          "name": "",
          "type": "uint256"
        }
      ],
      "stateMutability": "view",
      "type": "function"
    },
    {
      "inputs": [
        {
          "internalType": "uint256",
          "name": "assets",
          "type": "uint256"
        }
      ],
      "name": "convertToShares",
      "outputs": [
        {
          "internalType": "uint256",
          "name": "",
          "type": "uint256"
        }
      ],
      "stateMutability": "view",
      "type": "function"
    },
    {
      "inputs": [],
      "name": "decimals",
      "outputs": [
        {
          "internalType": "uint8",
          "name": "",
          "type": "uint8"
        }
      ],
      "stateMutability": "view",
      "type": "function"
    },
    {
      "inputs": [
        {
          "internalType": "uint256",
          "name": "assets",
          "type": "uint256"
        },
        {
          "internalType": "address",
          "name": "receiver",
          "type": "address"
        }
      ],
      "name": "deposit",
      "outputs": [
        {
          "internalType": "uint256",
          "name": "shares",
          "type": "uint256"
        }
      ],
      "stateMutability": "nonpayable",
      "type": "function"
    },
    {
      "inputs": [
        {
          "internalType": "uint256",
          "name": "assets",
          "type": "uint256"
        },
        {
          "internalType": "address",
          "name": "receiver",
          "type": "address"
        },
        {
          "internalType": "uint256",
          "name": "deadline",
          "type": "uint256"
        },
        {
          "internalType": "bool",
          "name": "approveMax",
          "type": "bool"
        },
        {
          "internalType": "uint8",
          "name": "v",
          "type": "uint8"
        },
        {
          "internalType": "bytes32",
          "name": "r",
          "type": "bytes32"
        },
        {
          "internalType": "bytes32",
          "name": "s",
          "type": "bytes32"
        }
      ],
      "name": "depositWithSignature",
      "outputs": [
        {
          "internalType": "uint256",
          "name": "shares",
          "type": "uint256"
        }
      ],
      "stateMutability": "nonpayable",
      "type": "function"
    },
    {
      "inputs": [
        {
          "internalType": "uint256",
          "name": "assets",
          "type": "uint256"
        },
        {
          "internalType": "address",
          "name": "receiver",
          "type": "address"
        }
      ],
      "name": "input",
      "outputs": [
        {
          "internalType": "uint256",
          "name": "shares",
          "type": "uint256"
        }
      ],
      "stateMutability": "nonpayable",
      "type": "function"
    },
    {
      "inputs": [],
      "name": "lastRewardAmount",
      "outputs": [
        {
          "internalType": "uint192",
          "name": "",
          "type": "uint192"
        }
      ],
      "stateMutability": "view",
      "type": "function"
    },
    {
      "inputs": [],
      "name": "lastSync",
      "outputs": [
        {
          "internalType": "uint32",
          "name": "",
          "type": "uint32"
        }
      ],
      "stateMutability": "view",
      "type": "function"
    },
    {
      "inputs": [
        {
          "internalType": "address",
          "name": "",
          "type": "address"
        }
      ],
      "name": "maxDeposit",
      "outputs": [
        {
          "internalType": "uint256",
          "name": "",
          "type": "uint256"
        }
      ],
      "stateMutability": "view",
      "type": "function"
    },
    {
      "inputs": [
        {
          "internalType": "address",
          "name": "",
          "type": "address"
        }
      ],
      "name": "maxMint",
      "outputs": [
        {
          "internalType": "uint256",
          "name": "",
          "type": "uint256"
        }
      ],
      "stateMutability": "view",
      "type": "function"
    },
    {
      "inputs": [
        {
          "internalType": "address",
          "name": "owner",
          "type": "address"
        }
      ],
      "name": "maxRedeem",
      "outputs": [
        {
          "internalType": "uint256",
          "name": "",
          "type": "uint256"
        }
      ],
      "stateMutability": "view",
      "type": "function"
    },
    {
      "inputs": [
        {
          "internalType": "address",
          "name": "owner",
          "type": "address"
        }
      ],
      "name": "maxWithdraw",
      "outputs": [
        {
          "internalType": "uint256",
          "name": "",
          "type": "uint256"
        }
      ],
      "stateMutability": "view",
      "type": "function"
    },
    {
      "inputs": [
        {
          "internalType": "uint256",
          "name": "shares",
          "type": "uint256"
        },
        {
          "internalType": "address",
          "name": "receiver",
          "type": "address"
        }
      ],
      "name": "mint",
      "outputs": [
        {
          "internalType": "uint256",
          "name": "assets",
          "type": "uint256"
        }
      ],
      "stateMutability": "nonpayable",
      "type": "function"
    },
    {
      "inputs": [
        {
          "internalType": "uint256",
          "name": "shares",
          "type": "uint256"
        },
        {
          "internalType": "address",
          "name": "receiver",
          "type": "address"
        },
        {
          "internalType": "uint256",
          "name": "deadline",
          "type": "uint256"
        },
        {
          "internalType": "bool",
          "name": "approveMax",
          "type": "bool"
        },
        {
          "internalType": "uint8",
          "name": "v",
          "type": "uint8"
        },
        {
          "internalType": "bytes32",
          "name": "r",
          "type": "bytes32"
        },
        {
          "internalType": "bytes32",
          "name": "s",
          "type": "bytes32"
        }
      ],
      "name": "mintWithSignature",
      "outputs": [
        {
          "internalType": "uint256",
          "name": "assets",
          "type": "uint256"
        }
      ],
      "stateMutability": "nonpayable",
      "type": "function"
    },
    {
      "inputs": [],
      "name": "name",
      "outputs": [
        {
          "internalType": "string",
          "name": "",
          "type": "string"
        }
      ],
      "stateMutability": "view",
      "type": "function"
    },
    {
      "inputs": [
        {
          "internalType": "address",
          "name": "",
          "type": "address"
        }
      ],
      "name": "nonces",
      "outputs": [
        {
          "internalType": "uint256",
          "name": "",
          "type": "uint256"
        }
      ],
      "stateMutability": "view",
      "type": "function"
    },
    {
      "inputs": [
        {
          "internalType": "address",
          "name": "owner",
          "type": "address"
        },
        {
          "internalType": "address",
          "name": "spender",
          "type": "address"
        },
        {
          "internalType": "uint256",
          "name": "value",
          "type": "uint256"
        },
        {
          "internalType": "uint256",
          "name": "deadline",
          "type": "uint256"
        },
        {
          "internalType": "uint8",
          "name": "v",
          "type": "uint8"
        },
        {
          "internalType": "bytes32",
          "name": "r",
          "type": "bytes32"
        },
        {
          "internalType": "bytes32",
          "name": "s",
          "type": "bytes32"
        }
      ],
      "name": "permit",
      "outputs": [],
      "stateMutability": "nonpayable",
      "type": "function"
    },
    {
      "inputs": [
        {
          "internalType": "uint256",
          "name": "assets",
          "type": "uint256"
        }
      ],
      "name": "previewDeposit",
      "outputs": [
        {
          "internalType": "uint256",
          "name": "",
          "type": "uint256"
        }
      ],
      "stateMutability": "view",
      "type": "function"
    },
    {
      "inputs": [
        {
          "internalType": "uint256",
          "name": "shares",
          "type": "uint256"
        }
      ],
      "name": "previewMint",
      "outputs": [
        {
          "internalType": "uint256",
          "name": "",
          "type": "uint256"
        }
      ],
      "stateMutability": "view",
      "type": "function"
    },
    {
      "inputs": [
        {
          "internalType": "uint256",
          "name": "shares",
          "type": "uint256"
        }
      ],
      "name": "previewRedeem",
      "outputs": [
        {
          "internalType": "uint256",
          "name": "",
          "type": "uint256"
        }
      ],
      "stateMutability": "view",
      "type": "function"
    },
    {
      "inputs": [
        {
          "internalType": "uint256",
          "name": "assets",
          "type": "uint256"
        }
      ],
      "name": "previewWithdraw",
      "outputs": [
        {
          "internalType": "uint256",
          "name": "",
          "type": "uint256"
        }
      ],
      "stateMutability": "view",
      "type": "function"
    },
    {
      "inputs": [],
      "name": "pricePerShare",
      "outputs": [
        {
          "internalType": "uint256",
          "name": "",
          "type": "uint256"
        }
      ],
      "stateMutability": "view",
      "type": "function"
    },
    {
      "inputs": [
        {
          "internalType": "uint256",
          "name": "shares",
          "type": "uint256"
        },
        {
          "internalType": "address",
          "name": "receiver",
          "type": "address"
        },
        {
          "internalType": "address",
          "name": "owner",
          "type": "address"
        }
      ],
      "name": "redeem",
      "outputs": [
        {
          "internalType": "uint256",
          "name": "assets",
          "type": "uint256"
        }
      ],
      "stateMutability": "nonpayable",
      "type": "function"
    },
    {
      "inputs": [],
      "name": "rewardsCycleEnd",
      "outputs": [
        {
          "internalType": "uint32",
          "name": "",
          "type": "uint32"
        }
      ],
      "stateMutability": "view",
      "type": "function"
    },
    {
      "inputs": [],
      "name": "rewardsCycleLength",
      "outputs": [
        {
          "internalType": "uint32",
          "name": "",
          "type": "uint32"
        }
      ],
      "stateMutability": "view",
      "type": "function"
    },
    {
      "inputs": [],
      "name": "symbol",
      "outputs": [
        {
          "internalType": "string",
          "name": "",
          "type": "string"
        }
      ],
      "stateMutability": "view",
      "type": "function"
    },
    {
      "inputs": [],
      "name": "syncRewards",
      "outputs": [],
      "stateMutability": "nonpayable",
      "type": "function"
    },
    {
      "inputs": [],
      "name": "totalAssets",
      "outputs": [
        {
          "internalType": "uint256",
          "name": "",
          "type": "uint256"
        }
      ],
      "stateMutability": "view",
      "type": "function"
    },
    {
      "inputs": [],
      "name": "totalSupply",
      "outputs": [
        {
          "internalType": "uint256",
          "name": "",
          "type": "uint256"
        }
      ],
      "stateMutability": "view",
      "type": "function"
    },
    {
      "inputs": [
        {
          "internalType": "address",
          "name": "to",
          "type": "address"
        },
        {
          "internalType": "uint256",
          "name": "amount",
          "type": "uint256"
        }
      ],
      "name": "transfer",
      "outputs": [
        {
          "internalType": "bool",
          "name": "",
          "type": "bool"
        }
      ],
      "stateMutability": "nonpayable",
      "type": "function"
    },
    {
      "inputs": [
        {
          "internalType": "address",
          "name": "from",
          "type": "address"
        },
        {
          "internalType": "address",
          "name": "to",
          "type": "address"
        },
        {
          "internalType": "uint256",
          "name": "amount",
          "type": "uint256"
        }
      ],
      "name": "transferFrom",
      "outputs": [
        {
          "internalType": "bool",
          "name": "",
          "type": "bool"
        }
      ],
      "stateMutability": "nonpayable",
      "type": "function"
    },
    {
      "inputs": [
        {
          "internalType": "uint256",
          "name": "assets",
          "type": "uint256"
        },
        {
          "internalType": "address",
          "name": "receiver",
          "type": "address"
        },
        {
          "internalType": "address",
          "name": "owner",
          "type": "address"
        }
      ],
      "name": "withdraw",
      "outputs": [
        {
          "internalType": "uint256",
          "name": "shares",
          "type": "uint256"
        }
      ],
      "stateMutability": "nonpayable",
      "type": "function"
    }
  ],
  "bytecode": {
    "object": "0x6101206040523480156200001257600080fd5b506040516200212138038062002121833981016040819052620000359162000301565b80826040518060400160405280601181526020017029ba30b5b2b210233930bc1022ba3432b960791b815250604051806040016040528060078152602001660e6cce4f08aa8960cb1b8152508181846001600160a01b031663313ce5676040518163ffffffff1660e01b8152600401602060405180830381865afa158015620000c2573d6000803e3d6000fd5b505050506040513d601f19601f82011682018060405250810190620000e8919062000353565b8251620000fd90600090602086019062000265565b5081516200011390600190602085019062000265565b5060ff81166080524660a05262000129620001b1565b60c052505050506001600160a01b039190911660e0525063ffffffff81166101008190528062000165426200024d602090811b6200132817901c565b6200017191906200037f565b6200017d9190620003b1565b6006805463ffffffff929092166401000000000263ffffffff60201b199092169190911790555050600160085550620004cb565b60007f8b73c3c69bb8fe3d512ecc4cf759cc79239f7b179b0ffacaa9a75d522b39400f6000604051620001e5919062000428565b6040805191829003822060208301939093528101919091527fc89efdaa54c0f20c7adf612882df0950f5a951637e0307cdcb4c672f298b8bc660608201524660808201523060a082015260c00160405160208183030381529060405280519060200120905090565b600064010000000082106200026157600080fd5b5090565b8280546200027390620003ec565b90600052602060002090601f016020900481019282620002975760008555620002e2565b82601f10620002b257805160ff1916838001178555620002e2565b82800160010185558215620002e2579182015b82811115620002e2578251825591602001919060010190620002c5565b50620002619291505b80821115620002615760008155600101620002eb565b600080604083850312156200031557600080fd5b82516001600160a01b03811681146200032d57600080fd5b602084015190925063ffffffff811681146200034857600080fd5b809150509250929050565b6000602082840312156200036657600080fd5b815160ff811681146200037857600080fd5b9392505050565b600063ffffffff80841680620003a557634e487b7160e01b600052601260045260246000fd5b92169190910492915050565b600063ffffffff80831681851681830481118215151615620003e357634e487b7160e01b600052601160045260246000fd5b02949350505050565b600181811c908216806200040157607f821691505b6020821081036200042257634e487b7160e01b600052602260045260246000fd5b50919050565b600080835481600182811c9150808316806200044557607f831692505b602080841082036200046557634e487b7160e01b86526022600452602486fd5b8180156200047c57600181146200048e57620004bd565b60ff19861689528489019650620004bd565b60008a81526020902060005b86811015620004b55781548b8201529085019083016200049a565b505084890196505b509498975050505050505050565b60805160a05160c05160e05161010051611bd962000548600039600081816103cc0152610b99015260008181610307015281816108fa015281816109f601528181610af601528181610c7f01528181610d1601528181610f240152611070015260006108ab01526000610876015260006102c60152611bd96000f3fe608060405234801561001057600080fd5b50600436106102275760003560e01c806372c0c21111610130578063ba087652116100b8578063d505accf1161007c578063d505accf14610512578063d905777e14610525578063dd62ed3e1461054e578063e7ff69f114610579578063ef8b30f71461059157600080fd5b8063ba087652146104a7578063bafedcaa146104ba578063c63d75b614610354578063c6e6f592146104ec578063ce96cb77146104ff57600080fd5b806395d89b41116100ff57806395d89b411461045e57806399530b0614610466578063a9059cbb1461046e578063b3d7f6b914610481578063b460af941461049457600080fd5b806372c0c2111461040e57806375e077c3146104185780637ecebe001461042b57806394bf804d1461044b57600080fd5b806338d52e0f116101b35780634cdad506116101825780634cdad5061461037c5780636917516b1461038f5780636e553f65146103b45780636fcf5e5f146103c757806370a08231146103ee57600080fd5b806338d52e0f146103025780633df094f014610341578063402d267d146103545780634af3b3d01461036957600080fd5b80630a28a477116101fa5780630a28a4771461029257806318160ddd146102a557806323b872dd146102ae578063313ce567146102c15780633644e515146102fa57600080fd5b806301e1d1141461022c57806306fdde031461024757806307a2d13a1461025c578063095ea7b31461026f575b600080fd5b6102346105a4565b6040519081526020015b60405180910390f35b61024f61064a565b60405161023e91906116bd565b61023461026a366004611712565b6106d8565b61028261027d366004611747565b610705565b604051901515815260200161023e565b6102346102a0366004611712565b610772565b61023460025481565b6102826102bc366004611771565b610792565b6102e87f000000000000000000000000000000000000000000000000000000000000000081565b60405160ff909116815260200161023e565b610234610872565b6103297f000000000000000000000000000000000000000000000000000000000000000081565b6040516001600160a01b03909116815260200161023e565b61023461034f3660046117ad565b6108cd565b6102346103623660046117d9565b5060001990565b610234610377366004611805565b6108d9565b61023461038a366004611712565b61098e565b60065461039f9063ffffffff1681565b60405163ffffffff909116815260200161023e565b6102346103c23660046117ad565b610999565b61039f7f000000000000000000000000000000000000000000000000000000000000000081565b6102346103fc3660046117d9565b60036020526000908152604090205481565b610416610a78565b005b610234610426366004611805565b610c5e565b6102346104393660046117d9565b60056020526000908152604090205481565b6102346104593660046117ad565b610cfc565b61024f610d98565b610234610da5565b61028261047c366004611747565b610db8565b61023461048f366004611712565b610e1e565b6102346104a2366004611876565b610e3d565b6102346104b5366004611876565b610f4b565b6006546104d490600160401b90046001600160c01b031681565b6040516001600160c01b03909116815260200161023e565b6102346104fa366004611712565b611097565b61023461050d3660046117d9565b6110b7565b6104166105203660046118b2565b6110d9565b6102346105333660046117d9565b6001600160a01b031660009081526003602052604090205490565b61023461055c366004611900565b600460209081526000928352604080842090915290825290205481565b60065461039f90640100000000900463ffffffff1681565b61023461059f366004611712565b61131d565b600754600654600091906001600160c01b03600160401b8204169063ffffffff6401000000008204811691164282116105f3576105ea6001600160c01b03841685611940565b94505050505090565b60006105ff8284611958565b63ffffffff168263ffffffff1642610617919061197d565b61062a906001600160c01b038716611994565b61063491906119c9565b90506106408186611940565b9550505050505090565b60008054610657906119dd565b80601f0160208091040260200160405190810160405280929190818152602001828054610683906119dd565b80156106d05780601f106106a5576101008083540402835291602001916106d0565b820191906000526020600020905b8154815290600101906020018083116106b357829003601f168201915b505050505081565b60025460009080156106fc576106f76106ef6105a4565b84908361133f565b6106fe565b825b9392505050565b3360008181526004602090815260408083206001600160a01b038716808552925280832085905551919290917f8c5be1e5ebec7d5bd14f71427d1e84f3dd0314c0f7b2291e5b200ac8c7c3b925906107609086815260200190565b60405180910390a35060015b92915050565b60025460009080156106fc576106f78161078a6105a4565b85919061135e565b6001600160a01b038316600090815260046020908152604080832033845290915281205460001981146107ee576107c9838261197d565b6001600160a01b03861660009081526004602090815260408083203384529091529020555b6001600160a01b0385166000908152600360205260408120805485929061081690849061197d565b90915550506001600160a01b0380851660008181526003602052604090819020805487019055519091871690600080516020611b848339815191529061085f9087815260200190565b60405180910390a3506001949350505050565b60007f000000000000000000000000000000000000000000000000000000000000000046146108a8576108a361138c565b905090565b507f000000000000000000000000000000000000000000000000000000000000000090565b60006106fe8383610999565b60006108e3611426565b60405163d505accf60e01b81526001600160a01b037f0000000000000000000000000000000000000000000000000000000000000000169063d505accf9061093b90339030908d908c908b908b908b90600401611a17565b600060405180830381600087803b15801561095557600080fd5b505af1158015610969573d6000803e3d6000fd5b505050506109778888610cfc565b90506109836001600855565b979650505050505050565b600061076c826106d8565b60006109a48361131d565b9050806000036109e95760405162461bcd60e51b815260206004820152600b60248201526a5a45524f5f53484152455360a81b60448201526064015b60405180910390fd5b610a1e6001600160a01b037f00000000000000000000000000000000000000000000000000000000000000001633308661147f565b610a288282611509565b60408051848152602081018390526001600160a01b0384169133917fdcbc1c05240f31ff3ad067ef1ee35ce4997762752e3a095284754544f4c709d7910160405180910390a361076c8382611563565b600654600160401b90046001600160c01b03166000610a9642611328565b60065490915063ffffffff64010000000090910481169082161015610ace5760405163127d33e760e21b815260040160405180910390fd5b6007546040516370a0823160e01b81523060048201526000906001600160c01b0385169083907f00000000000000000000000000000000000000000000000000000000000000006001600160a01b0316906370a0823190602401602060405180830381865afa158015610b45573d6000803e3d6000fd5b505050506040513d601f19601f82011682018060405250810190610b699190611a58565b610b73919061197d565b610b7d919061197d565b9050610b926001600160c01b03851683611940565b60075560007f000000000000000000000000000000000000000000000000000000000000000080610bc38187611a71565b610bcd9190611a99565b610bd79190611abc565b9050610be282611587565b63ffffffff82811664010000000081026001600160c01b0393909316600160401b0267ffffffffffffffff191691871691909117919091176006556040517f2fa39aac60d1c94cda4ab0e86ae9c0ffab5b926e5b827a4ccba1d9b5b2ef596e90610c4f9085815260200190565b60405180910390a25050505050565b6000610c68611426565b60405163d505accf60e01b81526001600160a01b037f0000000000000000000000000000000000000000000000000000000000000000169063d505accf90610cc090339030908d908c908b908b908b90600401611a17565b600060405180830381600087803b158015610cda57600080fd5b505af1158015610cee573d6000803e3d6000fd5b505050506109778888610999565b6000610d0783610e1e565b9050610d3e6001600160a01b037f00000000000000000000000000000000000000000000000000000000000000001633308461147f565b610d488284611509565b60408051828152602081018590526001600160a01b0384169133917fdcbc1c05240f31ff3ad067ef1ee35ce4997762752e3a095284754544f4c709d7910160405180910390a361076c8184611563565b60018054610657906119dd565b60006108a3670de0b6b3a76400006106d8565b33600090815260036020526040812080548391908390610dd990849061197d565b90915550506001600160a01b03831660008181526003602052604090819020805485019055513390600080516020611b84833981519152906107609086815260200190565b60025460009080156106fc576106f7610e356105a4565b84908361135e565b6000610e4884610772565b9050336001600160a01b03831614610eb8576001600160a01b03821660009081526004602090815260408083203384529091529020546000198114610eb657610e91828261197d565b6001600160a01b03841660009081526004602090815260408083203384529091529020555b505b610ec28482611599565b610ecc82826115c2565b60408051858152602081018390526001600160a01b03808516929086169133917ffbde797d201c681b91056529119e0b02407c7bb96a4a2c75c01fc9667232c8db910160405180910390a46106fe6001600160a01b037f0000000000000000000000000000000000000000000000000000000000000000168486611624565b6000336001600160a01b03831614610fbb576001600160a01b03821660009081526004602090815260408083203384529091529020546000198114610fb957610f94858261197d565b6001600160a01b03841660009081526004602090815260408083203384529091529020555b505b610fc48461098e565b9050806000036110045760405162461bcd60e51b815260206004820152600b60248201526a5a45524f5f41535345545360a81b60448201526064016109e0565b61100e8185611599565b61101882856115c2565b60408051828152602081018690526001600160a01b03808516929086169133917ffbde797d201c681b91056529119e0b02407c7bb96a4a2c75c01fc9667232c8db910160405180910390a46106fe6001600160a01b037f0000000000000000000000000000000000000000000000000000000000000000168483611624565b60025460009080156106fc576106f7816110af6105a4565b85919061133f565b6001600160a01b03811660009081526003602052604081205461076c906106d8565b428410156111295760405162461bcd60e51b815260206004820152601760248201527f5045524d49545f444541444c494e455f4558504952454400000000000000000060448201526064016109e0565b60006001611135610872565b6001600160a01b038a811660008181526005602090815260409182902080546001810190915582517f6e71edae12b1b97f4d1f60370fef10105fa2faae0126114a169c64845d6126c98184015280840194909452938d166060840152608083018c905260a083019390935260c08083018b90528151808403909101815260e08301909152805192019190912061190160f01b6101008301526101028201929092526101228101919091526101420160408051601f198184030181528282528051602091820120600084529083018083525260ff871690820152606081018590526080810184905260a0016020604051602081039080840390855afa158015611241573d6000803e3d6000fd5b5050604051601f1901519150506001600160a01b038116158015906112775750876001600160a01b0316816001600160a01b0316145b6112b45760405162461bcd60e51b815260206004820152600e60248201526d24a72b20a624a22fa9a4a3a722a960911b60448201526064016109e0565b6001600160a01b0390811660009081526004602090815260408083208a8516808552908352928190208990555188815291928a16917f8c5be1e5ebec7d5bd14f71427d1e84f3dd0314c0f7b2291e5b200ac8c7c3b925910160405180910390a350505050505050565b600061076c82611097565b6000640100000000821061133b57600080fd5b5090565b82820281151584158583048514171661135757600080fd5b0492915050565b82820281151584158583048514171661137657600080fd5b6001826001830304018115150290509392505050565b60007f8b73c3c69bb8fe3d512ecc4cf759cc79239f7b179b0ffacaa9a75d522b39400f60006040516113be9190611ae8565b6040805191829003822060208301939093528101919091527fc89efdaa54c0f20c7adf612882df0950f5a951637e0307cdcb4c672f298b8bc660608201524660808201523060a082015260c00160405160208183030381529060405280519060200120905090565b6002600854036114785760405162461bcd60e51b815260206004820152601f60248201527f5265656e7472616e637947756172643a207265656e7472616e742063616c6c0060448201526064016109e0565b6002600855565b60006040516323b872dd60e01b81528460048201528360248201528260448201526020600060648360008a5af13d15601f3d11600160005114161716915050806115025760405162461bcd60e51b81526020600482015260146024820152731514905394d1915497d19493d357d1905253115160621b60448201526064016109e0565b5050505050565b806002600082825461151b9190611940565b90915550506001600160a01b038216600081815260036020908152604080832080548601905551848152600080516020611b8483398151915291015b60405180910390a35050565b81600760008282546115759190611940565b909155506115839050828282565b5050565b6000600160c01b821061133b57600080fd5b6115a382826116a2565b600654640100000000900463ffffffff16421061158357611583610a78565b6001600160a01b038216600090815260036020526040812080548392906115ea90849061197d565b90915550506002805482900390556040518181526000906001600160a01b03841690600080516020611b8483398151915290602001611557565b600060405163a9059cbb60e01b8152836004820152826024820152602060006044836000895af13d15601f3d116001600051141617169150508061169c5760405162461bcd60e51b815260206004820152600f60248201526e1514905394d1915497d19052531151608a1b60448201526064016109e0565b50505050565b81600760008282546116b4919061197d565b90915550505050565b600060208083528351808285015260005b818110156116ea578581018301518582016040015282016116ce565b818111156116fc576000604083870101525b50601f01601f1916929092016040019392505050565b60006020828403121561172457600080fd5b5035919050565b80356001600160a01b038116811461174257600080fd5b919050565b6000806040838503121561175a57600080fd5b6117638361172b565b946020939093013593505050565b60008060006060848603121561178657600080fd5b61178f8461172b565b925061179d6020850161172b565b9150604084013590509250925092565b600080604083850312156117c057600080fd5b823591506117d06020840161172b565b90509250929050565b6000602082840312156117eb57600080fd5b6106fe8261172b565b803560ff8116811461174257600080fd5b600080600080600080600060e0888a03121561182057600080fd5b873596506118306020890161172b565b9550604088013594506060880135801515811461184c57600080fd5b935061185a608089016117f4565b925060a0880135915060c0880135905092959891949750929550565b60008060006060848603121561188b57600080fd5b8335925061189b6020850161172b565b91506118a96040850161172b565b90509250925092565b600080600080600080600060e0888a0312156118cd57600080fd5b6118d68861172b565b96506118e46020890161172b565b9550604088013594506060880135935061185a608089016117f4565b6000806040838503121561191357600080fd5b61191c8361172b565b91506117d06020840161172b565b634e487b7160e01b600052601160045260246000fd5b600082198211156119535761195361192a565b500190565b600063ffffffff838116908316818110156119755761197561192a565b039392505050565b60008282101561198f5761198f61192a565b500390565b60008160001904831182151516156119ae576119ae61192a565b500290565b634e487b7160e01b600052601260045260246000fd5b6000826119d8576119d86119b3565b500490565b600181811c908216806119f157607f821691505b602082108103611a1157634e487b7160e01b600052602260045260246000fd5b50919050565b6001600160a01b0397881681529590961660208601526040850193909352606084019190915260ff16608083015260a082015260c081019190915260e00190565b600060208284031215611a6a57600080fd5b5051919050565b600063ffffffff808316818516808303821115611a9057611a9061192a565b01949350505050565b600063ffffffff80841680611ab057611ab06119b3565b92169190910492915050565b600063ffffffff80831681851681830481118215151615611adf57611adf61192a565b02949350505050565b600080835481600182811c915080831680611b0457607f831692505b60208084108203611b2357634e487b7160e01b86526022600452602486fd5b818015611b375760018114611b4857611b75565b60ff19861689528489019650611b75565b60008a81526020902060005b86811015611b6d5781548b820152908501908301611b54565b505084890196505b50949897505050505050505056feddf252ad1be2c89b69c2b068fc378daa952ba7f163c4a11628f55a4df523b3efa26469706673582212205a0841d75025a25cce108c631d2dce0ab4a255efb1ef190ab84a8147742bb78c64736f6c634300080d0033",
    "linkReferences": {}
  },
  "methodIdentifiers": {
    "DOMAIN_SEPARATOR()": "3644e515",
    "allowance(address,address)": "dd62ed3e",
    "approve(address,uint256)": "095ea7b3",
    "asset()": "38d52e0f",
    "balanceOf(address)": "70a08231",
    "convertToAssets(uint256)": "07a2d13a",
    "convertToShares(uint256)": "c6e6f592",
    "decimals()": "313ce567",
    "deposit(uint256,address)": "6e553f65",
    "depositWithSignature(uint256,address,uint256,bool,uint8,bytes32,bytes32)": "75e077c3",
    "input(uint256,address)": "3df094f0",
    "lastRewardAmount()": "bafedcaa",
    "lastSync()": "6917516b",
    "maxDeposit(address)": "402d267d",
    "maxMint(address)": "c63d75b6",
    "maxRedeem(address)": "d905777e",
    "maxWithdraw(address)": "ce96cb77",
    "mint(uint256,address)": "94bf804d",
    "mintWithSignature(uint256,address,uint256,bool,uint8,bytes32,bytes32)": "4af3b3d0",
    "name()": "06fdde03",
    "nonces(address)": "7ecebe00",
    "permit(address,address,uint256,uint256,uint8,bytes32,bytes32)": "d505accf",
    "previewDeposit(uint256)": "ef8b30f7",
    "previewMint(uint256)": "b3d7f6b9",
    "previewRedeem(uint256)": "4cdad506",
    "previewWithdraw(uint256)": "0a28a477",
    "pricePerShare()": "99530b06",
    "redeem(uint256,address,address)": "ba087652",
    "rewardsCycleEnd()": "e7ff69f1",
    "rewardsCycleLength()": "6fcf5e5f",
    "symbol()": "95d89b41",
    "syncRewards()": "72c0c211",
    "totalAssets()": "01e1d114",
    "totalSupply()": "18160ddd",
    "transfer(address,uint256)": "a9059cbb",
    "transferFrom(address,address,uint256)": "23b872dd",
    "withdraw(uint256,address,address)": "b460af94"
  },
  "userdoc": {
    "version": 1,
    "kind": "user",
    "methods": {
      "depositWithSignature(uint256,address,uint256,bool,uint8,bytes32,bytes32)": {
        "notice": "Approve and deposit() in one transaction"
      },
      "lastRewardAmount()": {
        "notice": "the amount of rewards distributed in a the most recent cycle."
      },
      "lastSync()": {
        "notice": "the effective start of the current cycle"
      },
      "mintWithSignature(uint256,address,uint256,bool,uint8,bytes32,bytes32)": {
        "notice": "Approve and mint() in one transaction"
      },
      "pricePerShare()": {
        "notice": "How much frxETH is 1E18 sfrxETH worth. Price is in ETH, not USD"
      },
      "rewardsCycleEnd()": {
        "notice": "the end of the current cycle. Will always be evenly divisible by `rewardsCycleLength`."
      },
      "rewardsCycleLength()": {
        "notice": "the maximum length of a rewards cycle"
      },
      "syncRewards()": {
        "notice": "SFRXETH.SOL rewards to xERC4626 holders. All surplus `asset` balance of the contract over the internal balance becomes queued for the next cycle."
      },
      "totalAssets()": {
        "notice": "Compute the amount of tokens available to share holders.         Increases linearly during a reward distribution period from the sync call, not the cycle start."
      }
    }
  },
  "devdoc": {
    "version": 1,
    "kind": "dev",
    "details": "Exchange rate between frxETH and sfrxETH floats, you can convert your sfrxETH for more frxETH over time. Exchange rate increases as the frax msig mints new frxETH corresponding to the staking yield and drops it into the vault (sfrxETH contract). There is a short time period, cycles which the exchange rate increases linearly over. This is to prevent gaming the exchange rate (MEV). The cycles are constant length, but calling syncRewards slightly into a would-be cycle keeps the same would-be endpoint (so cycle ends are every X seconds). Someone must call syncRewards, which queues any new frxETH in the contract to be added to the redeemable amount. sfrxETH adheres to ERC-4626 vault specs  Mint vs Deposit mint() - deposit targeting a specific number of sfrxETH out deposit() - deposit knowing a specific number of frxETH in ",
    "methods": {
      "mintWithSignature(uint256,address,uint256,bool,uint8,bytes32,bytes32)": {
        "details": "Similar to the deposit method, but you give it the number of shares you want instead."
      }
    },
    "errors": {
      "SyncError()": [
        {
          "details": "thrown when syncing before cycle ends."
        }
      ]
    }
  },
  "id": 37
}