{
  "abi": [
    {
      "inputs": [
        {
          "internalType": "contract ERC20",
          "name": "_underlying",
          "type": "address"
        },
        {
          "internalType": "uint32",
          "name": "_rewardsCycleLength",
          "type": "uint32"
        }
      ],
      "stateMutability": "nonpayable",
      "type": "constructor"
    },
    {
      "inputs": [],
      "name": "SyncError",
      "type": "error"
    },
    {
      "anonymous": false,
      "inputs": [
        {
          "indexed": true,
          "internalType": "address",
          "name": "owner",
          "type": "address"
        },
        {
          "indexed": true,
          "internalType": "address",
          "name": "spender",
          "type": "address"
        },
        {
          "indexed": false,
          "internalType": "uint256",
          "name": "amount",
          "type": "uint256"
        }
      ],
      "name": "Approval",
      "type": "event"
    },
    {
      "anonymous": false,
      "inputs": [
        {
          "indexed": true,
          "internalType": "address",
          "name": "caller",
          "type": "address"
        },
        {
          "indexed": true,
          "internalType": "address",
          "name": "owner",
          "type": "address"
        },
        {
          "indexed": false,
          "internalType": "uint256",
          "name": "assets",
          "type": "uint256"
        },
        {
          "indexed": false,
          "internalType": "uint256",
          "name": "shares",
          "type": "uint256"
        }
      ],
      "name": "Deposit",
      "type": "event"
    },
    {
      "anonymous": false,
      "inputs": [
        {
          "indexed": true,
          "internalType": "uint32",
          "name": "cycleEnd",
          "type": "uint32"
        },
        {
          "indexed": false,
          "internalType": "uint256",
          "name": "rewardAmount",
          "type": "uint256"
        }
      ],
      "name": "NewRewardsCycle",
      "type": "event"
    },
    {
      "anonymous": false,
      "inputs": [
        {
          "indexed": true,
          "internalType": "address",
          "name": "from",
          "type": "address"
        },
        {
          "indexed": true,
          "internalType": "address",
          "name": "to",
          "type": "address"
        },
        {
          "indexed": false,
          "internalType": "uint256",
          "name": "amount",
          "type": "uint256"
        }
      ],
      "name": "Transfer",
      "type": "event"
    },
    {
      "anonymous": false,
      "inputs": [
        {
          "indexed": true,
          "internalType": "address",
          "name": "caller",
          "type": "address"
        },
        {
          "indexed": true,
          "internalType": "address",
          "name": "receiver",
          "type": "address"
        },
        {
          "indexed": true,
          "internalType": "address",
          "name": "owner",
          "type": "address"
        },
        {
          "indexed": false,
          "internalType": "uint256",
          "name": "assets",
          "type": "uint256"
        },
        {
          "indexed": false,
          "internalType": "uint256",
          "name": "shares",
          "type": "uint256"
        }
      ],
      "name": "Withdraw",
      "type": "event"
    },
    {
      "inputs": [],
      "name": "DOMAIN_SEPARATOR",
      "outputs": [
        {
          "internalType": "bytes32",
          "name": "",
          "type": "bytes32"
        }
      ],
      "stateMutability": "view",
      "type": "function"
    },
    {
      "inputs": [
        {
          "internalType": "address",
          "name": "",
          "type": "address"
        },
        {
          "internalType": "address",
          "name": "",
          "type": "address"
        }
      ],
      "name": "allowance",
      "outputs": [
        {
          "internalType": "uint256",
          "name": "",
          "type": "uint256"
        }
      ],
      "stateMutability": "view",
      "type": "function"
    },
    {
      "inputs": [
        {
          "internalType": "address",
          "name": "spender",
          "type": "address"
        },
        {
          "internalType": "uint256",
          "name": "amount",
          "type": "uint256"
        }
      ],
      "name": "approve",
      "outputs": [
        {
          "internalType": "bool",
          "name": "",
          "type": "bool"
        }
      ],
      "stateMutability": "nonpayable",
      "type": "function"
    },
    {
      "inputs": [],
      "name": "asset",
      "outputs": [
        {
          "internalType": "contract ERC20",
          "name": "",
          "type": "address"
        }
      ],
      "stateMutability": "view",
      "type": "function"
    },
    {
      "inputs": [
        {
          "internalType": "address",
          "name": "",
          "type": "address"
        }
      ],
      "name": "balanceOf",
      "outputs": [
        {
          "internalType": "uint256",
          "name": "",
          "type": "uint256"
        }
      ],
      "stateMutability": "view",
      "type": "function"
    },
    {
      "inputs": [
        {
          "internalType": "uint256",
          "name": "shares",
          "type": "uint256"
        }
      ],
      "name": "convertToAssets",
      "outputs": [
        {
          "internalType": "uint256",
          "name": "",
          "type": "uint256"
        }
      ],
      "stateMutability": "view",
      "type": "function"
    },
    {
      "inputs": [
        {
          "internalType": "uint256",
          "name": "assets",
          "type": "uint256"
        }
      ],
      "name": "convertToShares",
      "outputs": [
        {
          "internalType": "uint256",
          "name": "",
          "type": "uint256"
        }
      ],
      "stateMutability": "view",
      "type": "function"
    },
    {
      "inputs": [],
      "name": "decimals",
      "outputs": [
        {
          "internalType": "uint8",
          "name": "",
          "type": "uint8"
        }
      ],
      "stateMutability": "view",
      "type": "function"
    },
    {
      "inputs": [
        {
          "internalType": "uint256",
          "name": "assets",
          "type": "uint256"
        },
        {
          "internalType": "address",
          "name": "receiver",
          "type": "address"
        }
      ],
      "name": "deposit",
      "outputs": [
        {
          "internalType": "uint256",
          "name": "shares",
          "type": "uint256"
        }
      ],
      "stateMutability": "nonpayable",
      "type": "function"
    },
    {
      "inputs": [
        {
          "internalType": "uint256",
          "name": "assets",
          "type": "uint256"
        },
        {
          "internalType": "address",
          "name": "receiver",
          "type": "address"
        },
        {
          "internalType": "uint256",
          "name": "deadline",
          "type": "uint256"
        },
        {
          "internalType": "bool",
          "name": "approveMax",
          "type": "bool"
        },
        {
          "internalType": "uint8",
          "name": "v",
          "type": "uint8"
        },
        {
          "internalType": "bytes32",
          "name": "r",
          "type": "bytes32"
        },
        {
          "internalType": "bytes32",
          "name": "s",
          "type": "bytes32"
        }
      ],
      "name": "depositWithSignature",
      "outputs": [
        {
          "internalType": "uint256",
          "name": "shares",
          "type": "uint256"
        }
      ],
      "stateMutability": "nonpayable",
      "type": "function"
    },
    {
      "inputs": [],
      "name": "lastRewardAmount",
      "outputs": [
        {
          "internalType": "uint192",
          "name": "",
          "type": "uint192"
        }
      ],
      "stateMutability": "view",
      "type": "function"
    },
    {
      "inputs": [],
      "name": "lastSync",
      "outputs": [
        {
          "internalType": "uint32",
          "name": "",
          "type": "uint32"
        }
      ],
      "stateMutability": "view",
      "type": "function"
    },
    {
      "inputs": [
        {
          "internalType": "address",
          "name": "",
          "type": "address"
        }
      ],
      "name": "maxDeposit",
      "outputs": [
        {
          "internalType": "uint256",
          "name": "",
          "type": "uint256"
        }
      ],
      "stateMutability": "view",
      "type": "function"
    },
    {
      "inputs": [
        {
          "internalType": "address",
          "name": "",
          "type": "address"
        }
      ],
      "name": "maxMint",
      "outputs": [
        {
          "internalType": "uint256",
          "name": "",
          "type": "uint256"
        }
      ],
      "stateMutability": "view",
      "type": "function"
    },
    {
      "inputs": [
        {
          "internalType": "address",
          "name": "owner",
          "type": "address"
        }
      ],
      "name": "maxRedeem",
      "outputs": [
        {
          "internalType": "uint256",
          "name": "",
          "type": "uint256"
        }
      ],
      "stateMutability": "view",
      "type": "function"
    },
    {
      "inputs": [
        {
          "internalType": "address",
          "name": "owner",
          "type": "address"
        }
      ],
      "name": "maxWithdraw",
      "outputs": [
        {
          "internalType": "uint256",
          "name": "",
          "type": "uint256"
        }
      ],
      "stateMutability": "view",
      "type": "function"
    },
    {
      "inputs": [
        {
          "internalType": "uint256",
          "name": "shares",
          "type": "uint256"
        },
        {
          "internalType": "address",
          "name": "receiver",
          "type": "address"
        }
      ],
      "name": "mint",
      "outputs": [
        {
          "internalType": "uint256",
          "name": "assets",
          "type": "uint256"
        }
      ],
      "stateMutability": "nonpayable",
      "type": "function"
    },
    {
      "inputs": [
        {
          "internalType": "uint256",
          "name": "shares",
          "type": "uint256"
        },
        {
          "internalType": "address",
          "name": "receiver",
          "type": "address"
        },
        {
          "internalType": "uint256",
          "name": "deadline",
          "type": "uint256"
        },
        {
          "internalType": "bool",
          "name": "approveMax",
          "type": "bool"
        },
        {
          "internalType": "uint8",
          "name": "v",
          "type": "uint8"
        },
        {
          "internalType": "bytes32",
          "name": "r",
          "type": "bytes32"
        },
        {
          "internalType": "bytes32",
          "name": "s",
          "type": "bytes32"
        }
      ],
      "name": "mintWithSignature",
      "outputs": [
        {
          "internalType": "uint256",
          "name": "assets",
          "type": "uint256"
        }
      ],
      "stateMutability": "nonpayable",
      "type": "function"
    },
    {
      "inputs": [],
      "name": "name",
      "outputs": [
        {
          "internalType": "string",
          "name": "",
          "type": "string"
        }
      ],
      "stateMutability": "view",
      "type": "function"
    },
    {
      "inputs": [
        {
          "internalType": "address",
          "name": "",
          "type": "address"
        }
      ],
      "name": "nonces",
      "outputs": [
        {
          "internalType": "uint256",
          "name": "",
          "type": "uint256"
        }
      ],
      "stateMutability": "view",
      "type": "function"
    },
    {
      "inputs": [
        {
          "internalType": "address",
          "name": "owner",
          "type": "address"
        },
        {
          "internalType": "address",
          "name": "spender",
          "type": "address"
        },
        {
          "internalType": "uint256",
          "name": "value",
          "type": "uint256"
        },
        {
          "internalType": "uint256",
          "name": "deadline",
          "type": "uint256"
        },
        {
          "internalType": "uint8",
          "name": "v",
          "type": "uint8"
        },
        {
          "internalType": "bytes32",
          "name": "r",
          "type": "bytes32"
        },
        {
          "internalType": "bytes32",
          "name": "s",
          "type": "bytes32"
        }
      ],
      "name": "permit",
      "outputs": [],
      "stateMutability": "nonpayable",
      "type": "function"
    },
    {
      "inputs": [
        {
          "internalType": "uint256",
          "name": "assets",
          "type": "uint256"
        }
      ],
      "name": "previewDeposit",
      "outputs": [
        {
          "internalType": "uint256",
          "name": "",
          "type": "uint256"
        }
      ],
      "stateMutability": "view",
      "type": "function"
    },
    {
      "inputs": [
        {
          "internalType": "uint256",
          "name": "shares",
          "type": "uint256"
        }
      ],
      "name": "previewMint",
      "outputs": [
        {
          "internalType": "uint256",
          "name": "",
          "type": "uint256"
        }
      ],
      "stateMutability": "view",
      "type": "function"
    },
    {
      "inputs": [
        {
          "internalType": "uint256",
          "name": "shares",
          "type": "uint256"
        }
      ],
      "name": "previewRedeem",
      "outputs": [
        {
          "internalType": "uint256",
          "name": "",
          "type": "uint256"
        }
      ],
      "stateMutability": "view",
      "type": "function"
    },
    {
      "inputs": [
        {
          "internalType": "uint256",
          "name": "assets",
          "type": "uint256"
        }
      ],
      "name": "previewWithdraw",
      "outputs": [
        {
          "internalType": "uint256",
          "name": "",
          "type": "uint256"
        }
      ],
      "stateMutability": "view",
      "type": "function"
    },
    {
      "inputs": [],
      "name": "pricePerShare",
      "outputs": [
        {
          "internalType": "uint256",
          "name": "",
          "type": "uint256"
        }
      ],
      "stateMutability": "view",
      "type": "function"
    },
    {
      "inputs": [
        {
          "internalType": "uint256",
          "name": "shares",
          "type": "uint256"
        },
        {
          "internalType": "address",
          "name": "receiver",
          "type": "address"
        },
        {
          "internalType": "address",
          "name": "owner",
          "type": "address"
        }
      ],
      "name": "redeem",
      "outputs": [
        {
          "internalType": "uint256",
          "name": "assets",
          "type": "uint256"
        }
      ],
      "stateMutability": "nonpayable",
      "type": "function"
    },
    {
      "inputs": [],
      "name": "rewardsCycleEnd",
      "outputs": [
        {
          "internalType": "uint32",
          "name": "",
          "type": "uint32"
        }
      ],
      "stateMutability": "view",
      "type": "function"
    },
    {
      "inputs": [],
      "name": "rewardsCycleLength",
      "outputs": [
        {
          "internalType": "uint32",
          "name": "",
          "type": "uint32"
        }
      ],
      "stateMutability": "view",
      "type": "function"
    },
    {
      "inputs": [],
      "name": "symbol",
      "outputs": [
        {
          "internalType": "string",
          "name": "",
          "type": "string"
        }
      ],
      "stateMutability": "view",
      "type": "function"
    },
    {
      "inputs": [],
      "name": "syncRewards",
      "outputs": [],
      "stateMutability": "nonpayable",
      "type": "function"
    },
    {
      "inputs": [],
      "name": "totalAssets",
      "outputs": [
        {
          "internalType": "uint256",
          "name": "",
          "type": "uint256"
        }
      ],
      "stateMutability": "view",
      "type": "function"
    },
    {
      "inputs": [],
      "name": "totalSupply",
      "outputs": [
        {
          "internalType": "uint256",
          "name": "",
          "type": "uint256"
        }
      ],
      "stateMutability": "view",
      "type": "function"
    },
    {
      "inputs": [
        {
          "internalType": "address",
          "name": "to",
          "type": "address"
        },
        {
          "internalType": "uint256",
          "name": "amount",
          "type": "uint256"
        }
      ],
      "name": "transfer",
      "outputs": [
        {
          "internalType": "bool",
          "name": "",
          "type": "bool"
        }
      ],
      "stateMutability": "nonpayable",
      "type": "function"
    },
    {
      "inputs": [
        {
          "internalType": "address",
          "name": "from",
          "type": "address"
        },
        {
          "internalType": "address",
          "name": "to",
          "type": "address"
        },
        {
          "internalType": "uint256",
          "name": "amount",
          "type": "uint256"
        }
      ],
      "name": "transferFrom",
      "outputs": [
        {
          "internalType": "bool",
          "name": "",
          "type": "bool"
        }
      ],
      "stateMutability": "nonpayable",
      "type": "function"
    },
    {
      "inputs": [
        {
          "internalType": "uint256",
          "name": "assets",
          "type": "uint256"
        },
        {
          "internalType": "address",
          "name": "receiver",
          "type": "address"
        },
        {
          "internalType": "address",
          "name": "owner",
          "type": "address"
        }
      ],
      "name": "withdraw",
      "outputs": [
        {
          "internalType": "uint256",
          "name": "shares",
          "type": "uint256"
        }
      ],
      "stateMutability": "nonpayable",
      "type": "function"
    }
  ],
  "bytecode": {
    "object": "0x6101206040523480156200001257600080fd5b506040516200212838038062002128833981016040819052620000359162000301565b80826040518060400160405280601181526020017029ba30b5b2b210233930bc1022ba3432b960791b815250604051806040016040528060078152602001660e6cce4f08aa8960cb1b8152508181846001600160a01b031663313ce5676040518163ffffffff1660e01b8152600401602060405180830381865afa158015620000c2573d6000803e3d6000fd5b505050506040513d601f19601f82011682018060405250810190620000e8919062000353565b8251620000fd90600090602086019062000265565b5081516200011390600190602085019062000265565b5060ff81166080524660a05262000129620001b1565b60c052505050506001600160a01b039190911660e0525063ffffffff81166101008190528062000165426200024d602090811b6200132f17901c565b6200017191906200037f565b6200017d9190620003b1565b6006805463ffffffff929092166401000000000263ffffffff60201b199092169190911790555050600160085550620004cb565b60007f8b73c3c69bb8fe3d512ecc4cf759cc79239f7b179b0ffacaa9a75d522b39400f6000604051620001e5919062000428565b6040805191829003822060208301939093528101919091527fc89efdaa54c0f20c7adf612882df0950f5a951637e0307cdcb4c672f298b8bc660608201524660808201523060a082015260c00160405160208183030381529060405280519060200120905090565b600064010000000082106200026157600080fd5b5090565b8280546200027390620003ec565b90600052602060002090601f016020900481019282620002975760008555620002e2565b82601f10620002b257805160ff1916838001178555620002e2565b82800160010185558215620002e2579182015b82811115620002e2578251825591602001919060010190620002c5565b50620002619291505b80821115620002615760008155600101620002eb565b600080604083850312156200031557600080fd5b82516001600160a01b03811681146200032d57600080fd5b602084015190925063ffffffff811681146200034857600080fd5b809150509250929050565b6000602082840312156200036657600080fd5b815160ff811681146200037857600080fd5b9392505050565b600063ffffffff80841680620003a557634e487b7160e01b600052601260045260246000fd5b92169190910492915050565b600063ffffffff80831681851681830481118215151615620003e357634e487b7160e01b600052601160045260246000fd5b02949350505050565b600181811c908216806200040157607f821691505b6020821081036200042257634e487b7160e01b600052602260045260246000fd5b50919050565b600080835481600182811c9150808316806200044557607f831692505b602080841082036200046557634e487b7160e01b86526022600452602486fd5b8180156200047c57600181146200048e57620004bd565b60ff19861689528489019650620004bd565b60008a81526020902060005b86811015620004b55781548b8201529085019083016200049a565b505084890196505b509498975050505050505050565b60805160a05160c05160e05161010051611be062000548600039600081816103ae0152610b8c0152600081816102fc015281816108ec015281816109e901528181610ae901528181610c8601528181610d1d01528181610f2b01526110770152600061088d01526000610858015260006102bb0152611be06000f3fe608060405234801561001057600080fd5b506004361061021c5760003560e01c806375e077c311610125578063bafedcaa116100ad578063d505accf1161007c578063d505accf146104f4578063d905777e14610507578063dd62ed3e14610530578063e7ff69f11461055b578063ef8b30f71461057357600080fd5b8063bafedcaa1461049c578063c63d75b614610336578063c6e6f592146104ce578063ce96cb77146104e157600080fd5b806399530b06116100f457806399530b0614610448578063a9059cbb14610450578063b3d7f6b914610463578063b460af9414610476578063ba0876521461048957600080fd5b806375e077c3146103fa5780637ecebe001461040d57806394bf804d1461042d57806395d89b411461044057600080fd5b806338d52e0f116101a85780636917516b116101775780636917516b146103715780636e553f65146103965780636fcf5e5f146103a957806370a08231146103d057806372c0c211146103f057600080fd5b806338d52e0f146102f7578063402d267d146103365780634af3b3d01461034b5780634cdad5061461035e57600080fd5b80630a28a477116101ef5780630a28a4771461028757806318160ddd1461029a57806323b872dd146102a3578063313ce567146102b65780633644e515146102ef57600080fd5b806301e1d1141461022157806306fdde031461023c57806307a2d13a14610251578063095ea7b314610264575b600080fd5b610229610586565b6040519081526020015b60405180910390f35b61024461062c565b60405161023391906116c4565b61022961025f366004611719565b6106ba565b61027761027236600461174e565b6106e7565b6040519015158152602001610233565b610229610295366004611719565b610754565b61022960025481565b6102776102b1366004611778565b610774565b6102dd7f000000000000000000000000000000000000000000000000000000000000000081565b60405160ff9091168152602001610233565b610229610854565b61031e7f000000000000000000000000000000000000000000000000000000000000000081565b6040516001600160a01b039091168152602001610233565b6102296103443660046117b4565b5060001990565b6102296103593660046117e0565b6108af565b61022961036c366004611719565b610981565b6006546103819063ffffffff1681565b60405163ffffffff9091168152602001610233565b6102296103a4366004611851565b61098c565b6103817f000000000000000000000000000000000000000000000000000000000000000081565b6102296103de3660046117b4565b60036020526000908152604090205481565b6103f8610a6b565b005b6102296104083660046117e0565b610c51565b61022961041b3660046117b4565b60056020526000908152604090205481565b61022961043b366004611851565b610d03565b610244610d9f565b610229610dac565b61027761045e36600461174e565b610dbf565b610229610471366004611719565b610e25565b61022961048436600461187d565b610e44565b61022961049736600461187d565b610f52565b6006546104b690600160401b90046001600160c01b031681565b6040516001600160c01b039091168152602001610233565b6102296104dc366004611719565b61109e565b6102296104ef3660046117b4565b6110be565b6103f86105023660046118b9565b6110e0565b6102296105153660046117b4565b6001600160a01b031660009081526003602052604090205490565b61022961053e366004611907565b600460209081526000928352604080842090915290825290205481565b60065461038190640100000000900463ffffffff1681565b610229610581366004611719565b611324565b600754600654600091906001600160c01b03600160401b8204169063ffffffff6401000000008204811691164282116105d5576105cc6001600160c01b03841685611947565b94505050505090565b60006105e1828461195f565b63ffffffff168263ffffffff16426105f99190611984565b61060c906001600160c01b03871661199b565b61061691906119d0565b90506106228186611947565b9550505050505090565b60008054610639906119e4565b80601f0160208091040260200160405190810160405280929190818152602001828054610665906119e4565b80156106b25780601f10610687576101008083540402835291602001916106b2565b820191906000526020600020905b81548152906001019060200180831161069557829003601f168201915b505050505081565b60025460009080156106de576106d96106d1610586565b849083611346565b6106e0565b825b9392505050565b3360008181526004602090815260408083206001600160a01b038716808552925280832085905551919290917f8c5be1e5ebec7d5bd14f71427d1e84f3dd0314c0f7b2291e5b200ac8c7c3b925906107429086815260200190565b60405180910390a35060015b92915050565b60025460009080156106de576106d98161076c610586565b859190611365565b6001600160a01b038316600090815260046020908152604080832033845290915281205460001981146107d0576107ab8382611984565b6001600160a01b03861660009081526004602090815260408083203384529091529020555b6001600160a01b038516600090815260036020526040812080548592906107f8908490611984565b90915550506001600160a01b0380851660008181526003602052604090819020805487019055519091871690600080516020611b8b833981519152906108419087815260200190565b60405180910390a3506001949350505050565b60007f0000000000000000000000000000000000000000000000000000000000000000461461088a57610885611393565b905090565b507f000000000000000000000000000000000000000000000000000000000000000090565b60006108b961142d565b6000856108ce576108c989610e25565b6108d2565b6000195b60405163d505accf60e01b81529091506001600160a01b037f0000000000000000000000000000000000000000000000000000000000000000169063d505accf9061092d903390309086908d908c908c908c90600401611a1e565b600060405180830381600087803b15801561094757600080fd5b505af115801561095b573d6000803e3d6000fd5b505050506109698989610d03565b9150506109766001600855565b979650505050505050565b600061074e826106ba565b600061099783611324565b9050806000036109dc5760405162461bcd60e51b815260206004820152600b60248201526a5a45524f5f53484152455360a81b60448201526064015b60405180910390fd5b610a116001600160a01b037f000000000000000000000000000000000000000000000000000000000000000016333086611486565b610a1b8282611510565b60408051848152602081018390526001600160a01b0384169133917fdcbc1c05240f31ff3ad067ef1ee35ce4997762752e3a095284754544f4c709d7910160405180910390a361074e838261156a565b600654600160401b90046001600160c01b03166000610a894261132f565b60065490915063ffffffff64010000000090910481169082161015610ac15760405163127d33e760e21b815260040160405180910390fd5b6007546040516370a0823160e01b81523060048201526000906001600160c01b0385169083907f00000000000000000000000000000000000000000000000000000000000000006001600160a01b0316906370a0823190602401602060405180830381865afa158015610b38573d6000803e3d6000fd5b505050506040513d601f19601f82011682018060405250810190610b5c9190611a5f565b610b669190611984565b610b709190611984565b9050610b856001600160c01b03851683611947565b60075560007f000000000000000000000000000000000000000000000000000000000000000080610bb68187611a78565b610bc09190611aa0565b610bca9190611ac3565b9050610bd58261158e565b63ffffffff82811664010000000081026001600160c01b0393909316600160401b0267ffffffffffffffff191691871691909117919091176006556040517f2fa39aac60d1c94cda4ab0e86ae9c0ffab5b926e5b827a4ccba1d9b5b2ef596e90610c429085815260200190565b60405180910390a25050505050565b6000610c5b61142d565b600085610c685788610c6c565b6000195b60405163d505accf60e01b81529091506001600160a01b037f0000000000000000000000000000000000000000000000000000000000000000169063d505accf90610cc7903390309086908d908c908c908c90600401611a1e565b600060405180830381600087803b158015610ce157600080fd5b505af1158015610cf5573d6000803e3d6000fd5b50505050610969898961098c565b6000610d0e83610e25565b9050610d456001600160a01b037f000000000000000000000000000000000000000000000000000000000000000016333084611486565b610d4f8284611510565b60408051828152602081018590526001600160a01b0384169133917fdcbc1c05240f31ff3ad067ef1ee35ce4997762752e3a095284754544f4c709d7910160405180910390a361074e818461156a565b60018054610639906119e4565b6000610885670de0b6b3a76400006106ba565b33600090815260036020526040812080548391908390610de0908490611984565b90915550506001600160a01b03831660008181526003602052604090819020805485019055513390600080516020611b8b833981519152906107429086815260200190565b60025460009080156106de576106d9610e3c610586565b849083611365565b6000610e4f84610754565b9050336001600160a01b03831614610ebf576001600160a01b03821660009081526004602090815260408083203384529091529020546000198114610ebd57610e988282611984565b6001600160a01b03841660009081526004602090815260408083203384529091529020555b505b610ec984826115a0565b610ed382826115c9565b60408051858152602081018390526001600160a01b03808516929086169133917ffbde797d201c681b91056529119e0b02407c7bb96a4a2c75c01fc9667232c8db910160405180910390a46106e06001600160a01b037f000000000000000000000000000000000000000000000000000000000000000016848661162b565b6000336001600160a01b03831614610fc2576001600160a01b03821660009081526004602090815260408083203384529091529020546000198114610fc057610f9b8582611984565b6001600160a01b03841660009081526004602090815260408083203384529091529020555b505b610fcb84610981565b90508060000361100b5760405162461bcd60e51b815260206004820152600b60248201526a5a45524f5f41535345545360a81b60448201526064016109d3565b61101581856115a0565b61101f82856115c9565b60408051828152602081018690526001600160a01b03808516929086169133917ffbde797d201c681b91056529119e0b02407c7bb96a4a2c75c01fc9667232c8db910160405180910390a46106e06001600160a01b037f000000000000000000000000000000000000000000000000000000000000000016848361162b565b60025460009080156106de576106d9816110b6610586565b859190611346565b6001600160a01b03811660009081526003602052604081205461074e906106ba565b428410156111305760405162461bcd60e51b815260206004820152601760248201527f5045524d49545f444541444c494e455f4558504952454400000000000000000060448201526064016109d3565b6000600161113c610854565b6001600160a01b038a811660008181526005602090815260409182902080546001810190915582517f6e71edae12b1b97f4d1f60370fef10105fa2faae0126114a169c64845d6126c98184015280840194909452938d166060840152608083018c905260a083019390935260c08083018b90528151808403909101815260e08301909152805192019190912061190160f01b6101008301526101028201929092526101228101919091526101420160408051601f198184030181528282528051602091820120600084529083018083525260ff871690820152606081018590526080810184905260a0016020604051602081039080840390855afa158015611248573d6000803e3d6000fd5b5050604051601f1901519150506001600160a01b0381161580159061127e5750876001600160a01b0316816001600160a01b0316145b6112bb5760405162461bcd60e51b815260206004820152600e60248201526d24a72b20a624a22fa9a4a3a722a960911b60448201526064016109d3565b6001600160a01b0390811660009081526004602090815260408083208a8516808552908352928190208990555188815291928a16917f8c5be1e5ebec7d5bd14f71427d1e84f3dd0314c0f7b2291e5b200ac8c7c3b925910160405180910390a350505050505050565b600061074e8261109e565b6000640100000000821061134257600080fd5b5090565b82820281151584158583048514171661135e57600080fd5b0492915050565b82820281151584158583048514171661137d57600080fd5b6001826001830304018115150290509392505050565b60007f8b73c3c69bb8fe3d512ecc4cf759cc79239f7b179b0ffacaa9a75d522b39400f60006040516113c59190611aef565b6040805191829003822060208301939093528101919091527fc89efdaa54c0f20c7adf612882df0950f5a951637e0307cdcb4c672f298b8bc660608201524660808201523060a082015260c00160405160208183030381529060405280519060200120905090565b60026008540361147f5760405162461bcd60e51b815260206004820152601f60248201527f5265656e7472616e637947756172643a207265656e7472616e742063616c6c0060448201526064016109d3565b6002600855565b60006040516323b872dd60e01b81528460048201528360248201528260448201526020600060648360008a5af13d15601f3d11600160005114161716915050806115095760405162461bcd60e51b81526020600482015260146024820152731514905394d1915497d19493d357d1905253115160621b60448201526064016109d3565b5050505050565b80600260008282546115229190611947565b90915550506001600160a01b038216600081815260036020908152604080832080548601905551848152600080516020611b8b83398151915291015b60405180910390a35050565b816007600082825461157c9190611947565b9091555061158a9050828282565b5050565b6000600160c01b821061134257600080fd5b6115aa82826116a9565b600654640100000000900463ffffffff16421061158a5761158a610a6b565b6001600160a01b038216600090815260036020526040812080548392906115f1908490611984565b90915550506002805482900390556040518181526000906001600160a01b03841690600080516020611b8b8339815191529060200161155e565b600060405163a9059cbb60e01b8152836004820152826024820152602060006044836000895af13d15601f3d11600160005114161716915050806116a35760405162461bcd60e51b815260206004820152600f60248201526e1514905394d1915497d19052531151608a1b60448201526064016109d3565b50505050565b81600760008282546116bb9190611984565b90915550505050565b600060208083528351808285015260005b818110156116f1578581018301518582016040015282016116d5565b81811115611703576000604083870101525b50601f01601f1916929092016040019392505050565b60006020828403121561172b57600080fd5b5035919050565b80356001600160a01b038116811461174957600080fd5b919050565b6000806040838503121561176157600080fd5b61176a83611732565b946020939093013593505050565b60008060006060848603121561178d57600080fd5b61179684611732565b92506117a460208501611732565b9150604084013590509250925092565b6000602082840312156117c657600080fd5b6106e082611732565b803560ff8116811461174957600080fd5b600080600080600080600060e0888a0312156117fb57600080fd5b8735965061180b60208901611732565b9550604088013594506060880135801515811461182757600080fd5b9350611835608089016117cf565b925060a0880135915060c0880135905092959891949750929550565b6000806040838503121561186457600080fd5b8235915061187460208401611732565b90509250929050565b60008060006060848603121561189257600080fd5b833592506118a260208501611732565b91506118b060408501611732565b90509250925092565b600080600080600080600060e0888a0312156118d457600080fd5b6118dd88611732565b96506118eb60208901611732565b95506040880135945060608801359350611835608089016117cf565b6000806040838503121561191a57600080fd5b61192383611732565b915061187460208401611732565b634e487b7160e01b600052601160045260246000fd5b6000821982111561195a5761195a611931565b500190565b600063ffffffff8381169083168181101561197c5761197c611931565b039392505050565b60008282101561199657611996611931565b500390565b60008160001904831182151516156119b5576119b5611931565b500290565b634e487b7160e01b600052601260045260246000fd5b6000826119df576119df6119ba565b500490565b600181811c908216806119f857607f821691505b602082108103611a1857634e487b7160e01b600052602260045260246000fd5b50919050565b6001600160a01b0397881681529590961660208601526040850193909352606084019190915260ff16608083015260a082015260c081019190915260e00190565b600060208284031215611a7157600080fd5b5051919050565b600063ffffffff808316818516808303821115611a9757611a97611931565b01949350505050565b600063ffffffff80841680611ab757611ab76119ba565b92169190910492915050565b600063ffffffff80831681851681830481118215151615611ae657611ae6611931565b02949350505050565b600080835481600182811c915080831680611b0b57607f831692505b60208084108203611b2a57634e487b7160e01b86526022600452602486fd5b818015611b3e5760018114611b4f57611b7c565b60ff19861689528489019650611b7c565b60008a81526020902060005b86811015611b745781548b820152908501908301611b5b565b505084890196505b50949897505050505050505056feddf252ad1be2c89b69c2b068fc378daa952ba7f163c4a11628f55a4df523b3efa26469706673582212209c23c791173fe1a5a58004c6910c038619972d32a2ad871d5225548df00277b164736f6c634300080d0033",
    "linkReferences": {}
  },
  "methodIdentifiers": {
    "DOMAIN_SEPARATOR()": "3644e515",
    "allowance(address,address)": "dd62ed3e",
    "approve(address,uint256)": "095ea7b3",
    "asset()": "38d52e0f",
    "balanceOf(address)": "70a08231",
    "convertToAssets(uint256)": "07a2d13a",
    "convertToShares(uint256)": "c6e6f592",
    "decimals()": "313ce567",
    "deposit(uint256,address)": "6e553f65",
    "depositWithSignature(uint256,address,uint256,bool,uint8,bytes32,bytes32)": "75e077c3",
    "lastRewardAmount()": "bafedcaa",
    "lastSync()": "6917516b",
    "maxDeposit(address)": "402d267d",
    "maxMint(address)": "c63d75b6",
    "maxRedeem(address)": "d905777e",
    "maxWithdraw(address)": "ce96cb77",
    "mint(uint256,address)": "94bf804d",
    "mintWithSignature(uint256,address,uint256,bool,uint8,bytes32,bytes32)": "4af3b3d0",
    "name()": "06fdde03",
    "nonces(address)": "7ecebe00",
    "permit(address,address,uint256,uint256,uint8,bytes32,bytes32)": "d505accf",
    "previewDeposit(uint256)": "ef8b30f7",
    "previewMint(uint256)": "b3d7f6b9",
    "previewRedeem(uint256)": "4cdad506",
    "previewWithdraw(uint256)": "0a28a477",
    "pricePerShare()": "99530b06",
    "redeem(uint256,address,address)": "ba087652",
    "rewardsCycleEnd()": "e7ff69f1",
    "rewardsCycleLength()": "6fcf5e5f",
    "symbol()": "95d89b41",
    "syncRewards()": "72c0c211",
    "totalAssets()": "01e1d114",
    "totalSupply()": "18160ddd",
    "transfer(address,uint256)": "a9059cbb",
    "transferFrom(address,address,uint256)": "23b872dd",
    "withdraw(uint256,address,address)": "b460af94"
  },
  "id": 37
}