{
  "abi": [
    {
      "inputs": [
        {
          "internalType": "address",
          "name": "depositContractAddress",
          "type": "address"
        },
        {
          "internalType": "address",
          "name": "frxETHAddress",
          "type": "address"
        },
        {
          "internalType": "address",
          "name": "sfrxETHAddress",
          "type": "address"
        },
        {
          "internalType": "address",
          "name": "_owner",
          "type": "address"
        },
        {
          "internalType": "address",
          "name": "_timelock_address",
          "type": "address"
        },
        {
          "internalType": "bytes",
          "name": "_withdrawalCredential",
          "type": "bytes"
        }
      ],
      "stateMutability": "nonpayable",
      "type": "constructor"
    },
    {
      "anonymous": false,
      "inputs": [
        {
          "indexed": false,
          "internalType": "bool",
          "name": "new_status",
          "type": "bool"
        }
      ],
      "name": "DepositEtherPaused",
      "type": "event"
    },
    {
      "anonymous": false,
      "inputs": [
        {
          "indexed": true,
          "internalType": "bytes",
          "name": "pubKey",
          "type": "bytes"
        },
        {
          "indexed": false,
          "internalType": "bytes",
          "name": "withdrawalCredential",
          "type": "bytes"
        }
      ],
      "name": "DepositSent",
      "type": "event"
    },
    {
      "anonymous": false,
      "inputs": [
        {
          "indexed": true,
          "internalType": "address",
          "name": "sender",
          "type": "address"
        },
        {
          "indexed": true,
          "internalType": "address",
          "name": "recipient",
          "type": "address"
        },
        {
          "indexed": false,
          "internalType": "uint256",
          "name": "sent_amount",
          "type": "uint256"
        },
        {
          "indexed": false,
          "internalType": "uint256",
          "name": "withheld_amt",
          "type": "uint256"
        }
      ],
      "name": "ETHSubmitted",
      "type": "event"
    },
    {
      "anonymous": false,
      "inputs": [
        {
          "indexed": false,
          "internalType": "address",
          "name": "tokenAddress",
          "type": "address"
        },
        {
          "indexed": false,
          "internalType": "uint256",
          "name": "tokenAmount",
          "type": "uint256"
        }
      ],
      "name": "EmergencyERC20Recovered",
      "type": "event"
    },
    {
      "anonymous": false,
      "inputs": [
        {
          "indexed": false,
          "internalType": "uint256",
          "name": "amount",
          "type": "uint256"
        }
      ],
      "name": "EmergencyEtherRecovered",
      "type": "event"
    },
    {
      "anonymous": false,
      "inputs": [],
      "name": "KeysCleared",
      "type": "event"
    },
    {
      "anonymous": false,
      "inputs": [
        {
          "indexed": false,
          "internalType": "address",
          "name": "oldOwner",
          "type": "address"
        },
        {
          "indexed": false,
          "internalType": "address",
          "name": "newOwner",
          "type": "address"
        }
      ],
      "name": "OwnerChanged",
      "type": "event"
    },
    {
      "anonymous": false,
      "inputs": [
        {
          "indexed": false,
          "internalType": "address",
          "name": "newOwner",
          "type": "address"
        }
      ],
      "name": "OwnerNominated",
      "type": "event"
    },
    {
      "anonymous": false,
      "inputs": [
        {
          "indexed": false,
          "internalType": "bool",
          "name": "new_status",
          "type": "bool"
        }
      ],
      "name": "SubmitPaused",
      "type": "event"
    },
    {
      "anonymous": false,
      "inputs": [
        {
          "indexed": false,
          "internalType": "address",
          "name": "timelock_address",
          "type": "address"
        }
      ],
      "name": "TimelockChanged",
      "type": "event"
    },
    {
      "anonymous": false,
      "inputs": [
        {
          "indexed": false,
          "internalType": "bytes",
          "name": "pubKey",
          "type": "bytes"
        },
        {
          "indexed": false,
          "internalType": "bytes",
          "name": "withdrawalCredential",
          "type": "bytes"
        }
      ],
      "name": "ValidatorAdded",
      "type": "event"
    },
    {
      "anonymous": false,
      "inputs": [],
      "name": "ValidatorArrayCleared",
      "type": "event"
    },
    {
      "anonymous": false,
      "inputs": [
        {
          "indexed": false,
          "internalType": "bytes",
          "name": "pubKey",
          "type": "bytes"
        },
        {
          "indexed": false,
          "internalType": "uint256",
          "name": "remove_idx",
          "type": "uint256"
        },
        {
          "indexed": false,
          "internalType": "bool",
          "name": "dont_care_about_ordering",
          "type": "bool"
        }
      ],
      "name": "ValidatorRemoved",
      "type": "event"
    },
    {
      "anonymous": false,
      "inputs": [
        {
          "indexed": false,
          "internalType": "uint256",
          "name": "times",
          "type": "uint256"
        }
      ],
      "name": "ValidatorsPopped",
      "type": "event"
    },
    {
      "anonymous": false,
      "inputs": [
        {
          "indexed": false,
          "internalType": "bytes",
          "name": "from_pubKey",
          "type": "bytes"
        },
        {
          "indexed": false,
          "internalType": "bytes",
          "name": "to_pubKey",
          "type": "bytes"
        },
        {
          "indexed": false,
          "internalType": "uint256",
          "name": "from_idx",
          "type": "uint256"
        },
        {
          "indexed": false,
          "internalType": "uint256",
          "name": "to_idx",
          "type": "uint256"
        }
      ],
      "name": "ValidatorsSwapped",
      "type": "event"
    },
    {
      "anonymous": false,
      "inputs": [
        {
          "indexed": false,
          "internalType": "bytes",
          "name": "_withdrawalCredential",
          "type": "bytes"
        }
      ],
      "name": "WithdrawalCredentialSet",
      "type": "event"
    },
    {
      "anonymous": false,
      "inputs": [
        {
          "indexed": true,
          "internalType": "address",
          "name": "to",
          "type": "address"
        },
        {
          "indexed": false,
          "internalType": "uint256",
          "name": "amount",
          "type": "uint256"
        }
      ],
      "name": "WithheldETHMoved",
      "type": "event"
    },
    {
      "anonymous": false,
      "inputs": [
        {
          "indexed": false,
          "internalType": "uint256",
          "name": "newRatio",
          "type": "uint256"
        }
      ],
      "name": "WithholdRatioSet",
      "type": "event"
    },
    {
      "inputs": [],
      "name": "DEPOSIT_SIZE",
      "outputs": [
        {
          "internalType": "uint256",
          "name": "",
          "type": "uint256"
        }
      ],
      "stateMutability": "view",
      "type": "function"
    },
    {
      "inputs": [],
      "name": "RATIO_PRECISION",
      "outputs": [
        {
          "internalType": "uint256",
          "name": "",
          "type": "uint256"
        }
      ],
      "stateMutability": "view",
      "type": "function"
    },
    {
      "inputs": [],
      "name": "acceptOwnership",
      "outputs": [],
      "stateMutability": "nonpayable",
      "type": "function"
    },
    {
      "inputs": [
        {
          "internalType": "bytes",
          "name": "",
          "type": "bytes"
        }
      ],
      "name": "activeValidators",
      "outputs": [
        {
          "internalType": "bool",
          "name": "",
          "type": "bool"
        }
      ],
      "stateMutability": "view",
      "type": "function"
    },
    {
      "inputs": [
        {
          "components": [
            {
              "internalType": "bytes",
              "name": "pubKey",
              "type": "bytes"
            },
            {
              "internalType": "bytes",
              "name": "signature",
              "type": "bytes"
            },
            {
              "internalType": "bytes32",
              "name": "depositDataRoot",
              "type": "bytes32"
            }
          ],
          "internalType": "struct OperatorRegistry.Validator",
          "name": "validator",
          "type": "tuple"
        }
      ],
      "name": "addValidator",
      "outputs": [],
      "stateMutability": "nonpayable",
      "type": "function"
    },
    {
      "inputs": [
        {
          "components": [
            {
              "internalType": "bytes",
              "name": "pubKey",
              "type": "bytes"
            },
            {
              "internalType": "bytes",
              "name": "signature",
              "type": "bytes"
            },
            {
              "internalType": "bytes32",
              "name": "depositDataRoot",
              "type": "bytes32"
            }
          ],
          "internalType": "struct OperatorRegistry.Validator[]",
          "name": "validatorArray",
          "type": "tuple[]"
        }
      ],
      "name": "addValidators",
      "outputs": [],
      "stateMutability": "nonpayable",
      "type": "function"
    },
    {
      "inputs": [],
      "name": "clearValidatorArray",
      "outputs": [],
      "stateMutability": "nonpayable",
      "type": "function"
    },
    {
      "inputs": [],
      "name": "currentWithheldETH",
      "outputs": [
        {
          "internalType": "uint256",
          "name": "",
          "type": "uint256"
        }
      ],
      "stateMutability": "view",
      "type": "function"
    },
    {
      "inputs": [],
      "name": "depositContract",
      "outputs": [
        {
          "internalType": "contract IDepositContract",
          "name": "",
          "type": "address"
        }
      ],
      "stateMutability": "view",
      "type": "function"
    },
    {
      "inputs": [],
      "name": "depositEther",
      "outputs": [],
      "stateMutability": "nonpayable",
      "type": "function"
    },
    {
      "inputs": [],
      "name": "depositEtherPaused",
      "outputs": [
        {
          "internalType": "bool",
          "name": "",
          "type": "bool"
        }
      ],
      "stateMutability": "view",
      "type": "function"
    },
    {
      "inputs": [],
      "name": "frxETHToken",
      "outputs": [
        {
          "internalType": "contract frxETH",
          "name": "",
          "type": "address"
        }
      ],
      "stateMutability": "view",
      "type": "function"
    },
    {
      "inputs": [
        {
          "internalType": "uint256",
          "name": "i",
          "type": "uint256"
        }
      ],
      "name": "getValidator",
      "outputs": [
        {
          "internalType": "bytes",
          "name": "pubKey",
          "type": "bytes"
        },
        {
          "internalType": "bytes",
          "name": "withdrawalCredentials",
          "type": "bytes"
        },
        {
          "internalType": "bytes",
          "name": "signature",
          "type": "bytes"
        },
        {
          "internalType": "bytes32",
          "name": "depositDataRoot",
          "type": "bytes32"
        }
      ],
      "stateMutability": "view",
      "type": "function"
    },
    {
      "inputs": [
        {
          "internalType": "bytes",
          "name": "pubKey",
          "type": "bytes"
        },
        {
          "internalType": "bytes",
          "name": "signature",
          "type": "bytes"
        },
        {
          "internalType": "bytes32",
          "name": "depositDataRoot",
          "type": "bytes32"
        }
      ],
      "name": "getValidatorStruct",
      "outputs": [
        {
          "components": [
            {
              "internalType": "bytes",
              "name": "pubKey",
              "type": "bytes"
            },
            {
              "internalType": "bytes",
              "name": "signature",
              "type": "bytes"
            },
            {
              "internalType": "bytes32",
              "name": "depositDataRoot",
              "type": "bytes32"
            }
          ],
          "internalType": "struct OperatorRegistry.Validator",
          "name": "",
          "type": "tuple"
        }
      ],
      "stateMutability": "pure",
      "type": "function"
    },
    {
      "inputs": [
        {
          "internalType": "address payable",
          "name": "to",
          "type": "address"
        },
        {
          "internalType": "uint256",
          "name": "amount",
          "type": "uint256"
        }
      ],
      "name": "moveWithheldETH",
      "outputs": [],
      "stateMutability": "nonpayable",
      "type": "function"
    },
    {
      "inputs": [
        {
          "internalType": "address",
          "name": "_owner",
          "type": "address"
        }
      ],
      "name": "nominateNewOwner",
      "outputs": [],
      "stateMutability": "nonpayable",
      "type": "function"
    },
    {
      "inputs": [],
      "name": "nominatedOwner",
      "outputs": [
        {
          "internalType": "address",
          "name": "",
          "type": "address"
        }
      ],
      "stateMutability": "view",
      "type": "function"
    },
    {
      "inputs": [],
      "name": "numValidators",
      "outputs": [
        {
          "internalType": "uint256",
          "name": "",
          "type": "uint256"
        }
      ],
      "stateMutability": "view",
      "type": "function"
    },
    {
      "inputs": [],
      "name": "owner",
      "outputs": [
        {
          "internalType": "address",
          "name": "",
          "type": "address"
        }
      ],
      "stateMutability": "view",
      "type": "function"
    },
    {
      "inputs": [
        {
          "internalType": "uint256",
          "name": "times",
          "type": "uint256"
        }
      ],
      "name": "popValidators",
      "outputs": [],
      "stateMutability": "nonpayable",
      "type": "function"
    },
    {
      "inputs": [
        {
          "internalType": "address",
          "name": "tokenAddress",
          "type": "address"
        },
        {
          "internalType": "uint256",
          "name": "tokenAmount",
          "type": "uint256"
        }
      ],
      "name": "recoverERC20",
      "outputs": [],
      "stateMutability": "nonpayable",
      "type": "function"
    },
    {
      "inputs": [
        {
          "internalType": "uint256",
          "name": "amount",
          "type": "uint256"
        }
      ],
      "name": "recoverEther",
      "outputs": [],
      "stateMutability": "nonpayable",
      "type": "function"
    },
    {
      "inputs": [
        {
          "internalType": "uint256",
          "name": "remove_idx",
          "type": "uint256"
        },
        {
          "internalType": "bool",
          "name": "dont_care_about_ordering",
          "type": "bool"
        }
      ],
      "name": "removeValidator",
      "outputs": [],
      "stateMutability": "nonpayable",
      "type": "function"
    },
    {
      "inputs": [
        {
          "internalType": "address",
          "name": "_timelock_address",
          "type": "address"
        }
      ],
      "name": "setTimelock",
      "outputs": [],
      "stateMutability": "nonpayable",
      "type": "function"
    },
    {
      "inputs": [
        {
          "internalType": "bytes",
          "name": "_new_withdrawal_pubkey",
          "type": "bytes"
        }
      ],
      "name": "setWithdrawalCredential",
      "outputs": [],
      "stateMutability": "nonpayable",
      "type": "function"
    },
    {
      "inputs": [
        {
          "internalType": "uint256",
          "name": "newRatio",
          "type": "uint256"
        }
      ],
      "name": "setWithholdRatio",
      "outputs": [],
      "stateMutability": "nonpayable",
      "type": "function"
    },
    {
      "inputs": [],
      "name": "sfrxETHToken",
      "outputs": [
        {
          "internalType": "contract IsfrxETH",
          "name": "",
          "type": "address"
        }
      ],
      "stateMutability": "view",
      "type": "function"
    },
    {
      "inputs": [],
      "name": "submit",
      "outputs": [],
      "stateMutability": "payable",
      "type": "function"
    },
    {
      "inputs": [
        {
          "internalType": "address",
          "name": "recipient",
          "type": "address"
        }
      ],
      "name": "submitAndDeposit",
      "outputs": [
        {
          "internalType": "uint256",
          "name": "shares",
          "type": "uint256"
        }
      ],
      "stateMutability": "payable",
      "type": "function"
    },
    {
      "inputs": [
        {
          "internalType": "address",
          "name": "recipient",
          "type": "address"
        }
      ],
      "name": "submitAndGive",
      "outputs": [],
      "stateMutability": "payable",
      "type": "function"
    },
    {
      "inputs": [],
      "name": "submitPaused",
      "outputs": [
        {
          "internalType": "bool",
          "name": "",
          "type": "bool"
        }
      ],
      "stateMutability": "view",
      "type": "function"
    },
    {
      "inputs": [
        {
          "internalType": "uint256",
          "name": "from_idx",
          "type": "uint256"
        },
        {
          "internalType": "uint256",
          "name": "to_idx",
          "type": "uint256"
        }
      ],
      "name": "swapValidator",
      "outputs": [],
      "stateMutability": "nonpayable",
      "type": "function"
    },
    {
      "inputs": [],
      "name": "timelock_address",
      "outputs": [
        {
          "internalType": "address",
          "name": "",
          "type": "address"
        }
      ],
      "stateMutability": "view",
      "type": "function"
    },
    {
      "inputs": [],
      "name": "togglePauseDepositEther",
      "outputs": [],
      "stateMutability": "nonpayable",
      "type": "function"
    },
    {
      "inputs": [],
      "name": "togglePauseSubmits",
      "outputs": [],
      "stateMutability": "nonpayable",
      "type": "function"
    },
    {
      "inputs": [],
      "name": "withholdRatio",
      "outputs": [
        {
          "internalType": "uint256",
          "name": "",
          "type": "uint256"
        }
      ],
      "stateMutability": "view",
      "type": "function"
    },
    {
      "stateMutability": "payable",
      "type": "receive"
    }
  ],
  "bytecode": {
    "object": "0x60e06040523480156200001157600080fd5b50604051620033d6380380620033d6833981016040819052620000349162000228565b828282826001600160a01b038116620000935760405162461bcd60e51b815260206004820152601960248201527f4f776e657220616464726573732063616e6e6f74206265203000000000000000604482015260640160405180910390fd5b600080546001600160a01b0319166001600160a01b03831690811782556040805192835260208301919091527fb532073b38c83145e3e5135377a08bf9aab55bc0fd7c1179cd4fb995d2a5159c910160405180910390a150600480546001600160a01b0319166001600160a01b03841617905580516200011b9060039060208401906200014f565b505060016005555050506001600160a01b03948516608052505090821660a0521660c052600060068190556007556200039f565b8280546200015d9062000363565b90600052602060002090601f016020900481019282620001815760008555620001cc565b82601f106200019c57805160ff1916838001178555620001cc565b82800160010185558215620001cc579182015b82811115620001cc578251825591602001919060010190620001af565b50620001da929150620001de565b5090565b5b80821115620001da5760008155600101620001df565b80516001600160a01b03811681146200020d57600080fd5b919050565b634e487b7160e01b600052604160045260246000fd5b60008060008060008060c087890312156200024257600080fd5b6200024d87620001f5565b955060206200025e818901620001f5565b95506200026e60408901620001f5565b94506200027e60608901620001f5565b93506200028e60808901620001f5565b60a08901519093506001600160401b0380821115620002ac57600080fd5b818a0191508a601f830112620002c157600080fd5b815181811115620002d657620002d662000212565b604051601f8201601f19908116603f0116810190838211818310171562000301576200030162000212565b816040528281528d868487010111156200031a57600080fd5b600093505b828410156200033e57848401860151818501870152928501926200031f565b82841115620003505760008684830101525b8096505050505050509295509295509295565b600181811c908216806200037857607f821691505b6020821081036200039957634e487b7160e01b600052602260045260246000fd5b50919050565b60805160a05160c051612fe4620003f26000396000818161025a015281816110ae0152611172015260008181610534015281816107aa01526110dc0152600081816106ae01526115f50152612fe46000f3fe6080604052600436106102135760003560e01c8063a3f3498011610118578063bdacb303116100a0578063d32867d01161006f578063d32867d014610645578063dc6663c71461065c578063e77df3661461067c578063e94ad65b1461069c578063f63a1711146106d057600080fd5b8063bdacb303146105b7578063bfda0c8c146105d7578063c3d31487146105ea578063cdcedf401461060a57600080fd5b8063b5d89627116100e7578063b5d89627146104c3578063b5e5e64c146104f3578063b6d24f1814610508578063ba947f2714610522578063bc9944f91461055657600080fd5b8063a3f3498014610459578063aa6fa83c1461046e578063ae6e83bf1461048e578063b507fb00146104ae57600080fd5b806353a47bb71161019b57806379ba50971161016a57806379ba5097146103d95780638980f11f146103ee5780638da5cb5b1461040e5780638e69d7ad1461042e57806398ea5fca1461044457600080fd5b806353a47bb71461038657806357c59b04146103a65780635bcb2fc6146103bc5780635d593f8d146103c457600080fd5b80633683c204116101e25780633683c204146102e857806336bf3325146103085780633f8380b6146103335780634b9b90c5146103535780634dcd45471461037357600080fd5b80631627540c146102285780631c568db614610248578063206583ac1461029957806335b5d534146102c857600080fd5b3661022357610221336106f0565b005b600080fd5b34801561023457600080fd5b506102216102433660046126de565b61089c565b34801561025457600080fd5b5061027c7f000000000000000000000000000000000000000000000000000000000000000081565b6040516001600160a01b0390911681526020015b60405180910390f35b3480156102a557600080fd5b506009546102b890610100900460ff1681565b6040519015158152602001610290565b3480156102d457600080fd5b506102216102e3366004612702565b610963565b3480156102f457600080fd5b506102216103033660046127c7565b610d6b565b34801561031457600080fd5b506103256801bc16d674ec80000081565b604051908152602001610290565b34801561033f57600080fd5b5061022161034e366004612804565b610e3d565b34801561035f57600080fd5b5061022161036e366004612830565b610fcd565b6103256103813660046126de565b61108c565b34801561039257600080fd5b5060015461027c906001600160a01b031681565b3480156103b257600080fd5b5061032560065481565b610221611239565b3480156103d057600080fd5b50600254610325565b3480156103e557600080fd5b50610221611244565b3480156103fa57600080fd5b50610221610409366004612804565b61132e565b34801561041a57600080fd5b5060005461027c906001600160a01b031681565b34801561043a57600080fd5b5061032560075481565b34801561045057600080fd5b50610221611477565b34801561046557600080fd5b5061022161170b565b34801561047a57600080fd5b5061022161048936600461286b565b611781565b34801561049a57600080fd5b506102216104a936600461286b565b611848565b3480156104ba57600080fd5b5061022161191e565b3480156104cf57600080fd5b506104e36104de36600461286b565b6119ab565b60405161029094939291906128dc565b3480156104ff57600080fd5b50610221611bb9565b34801561051457600080fd5b506009546102b89060ff1681565b34801561052e57600080fd5b5061027c7f000000000000000000000000000000000000000000000000000000000000000081565b34801561056257600080fd5b506105aa610571366004612927565b60408051606080820183528082526020820152600091810191909152506040805160608101825293845260208401929092529082015290565b6040516102909190612994565b3480156105c357600080fd5b506102216105d23660046126de565b611c50565b6102216105e53660046126de565b611d2b565b3480156105f657600080fd5b5061022161060536600461286b565b611d34565b34801561061657600080fd5b506102b86106253660046127c7565b805160208183018101805160088252928201919093012091525460ff1681565b34801561065157600080fd5b50610325620f424081565b34801561066857600080fd5b5060045461027c906001600160a01b031681565b34801561068857600080fd5b506102216106973660046129f2565b611e39565b3480156106a857600080fd5b5061027c7f000000000000000000000000000000000000000000000000000000000000000081565b3480156106dc57600080fd5b506102216106eb366004612a22565b612206565b6106f861228e565b60095460ff16156107435760405162461bcd60e51b815260206004820152601060248201526f14dd589b5a5d081a5cc81c185d5cd95960821b60448201526064015b60405180910390fd5b346000036107855760405162461bcd60e51b815260206004820152600f60248201526e043616e6e6f74207375626d6974203608c1b604482015260640161073a565b604051631a895faf60e21b81526001600160a01b0382811660048301523460248301527f00000000000000000000000000000000000000000000000000000000000000001690636a257ebc90604401600060405180830381600087803b1580156107ee57600080fd5b505af1158015610802573d6000803e3d6000fd5b50505050600060065460001461084857620f4240600654346108249190612aad565b61082e9190612acc565b905080600760008282546108429190612aee565b90915550505b60408051348152602081018390526001600160a01b0384169133917f29b3e86ecfd94a32218997c40b051e650e4fd8c97fc7a4d266be3f7c61c5205b910160405180910390a3506108996001600555565b50565b6000546001600160a01b0316331461090e5760405162461bcd60e51b815260206004820152602f60248201527f4f6e6c792074686520636f6e7472616374206f776e6572206d6179207065726660448201526e37b936903a3434b99030b1ba34b7b760891b606482015260840161073a565b600180546001600160a01b0319166001600160a01b0383169081179091556040519081527f906a1c6bd7e3091ea86693dd029a831c19049ce77f1dce2ce0bab1cacbabce22906020015b60405180910390a150565b6004546001600160a01b031633148061098657506000546001600160a01b031633145b6109a25760405162461bcd60e51b815260040161073a90612b06565b6000600283815481106109b7576109b7612b35565b90600052602060002090600302016040518060600160405290816000820180546109e090612b4b565b80601f0160208091040260200160405190810160405280929190818152602001828054610a0c90612b4b565b8015610a595780601f10610a2e57610100808354040283529160200191610a59565b820191906000526020600020905b815481529060010190602001808311610a3c57829003601f168201915b50505050508152602001600182018054610a7290612b4b565b80601f0160208091040260200160405190810160405280929190818152602001828054610a9e90612b4b565b8015610aeb5780601f10610ac057610100808354040283529160200191610aeb565b820191906000526020600020905b815481529060010190602001808311610ace57829003601f168201915b505050505081526020016002820154815250509050600060028381548110610b1557610b15612b35565b9060005260206000209060030201604051806060016040529081600082018054610b3e90612b4b565b80601f0160208091040260200160405190810160405280929190818152602001828054610b6a90612b4b565b8015610bb75780601f10610b8c57610100808354040283529160200191610bb7565b820191906000526020600020905b815481529060010190602001808311610b9a57829003601f168201915b50505050508152602001600182018054610bd090612b4b565b80601f0160208091040260200160405190810160405280929190818152602001828054610bfc90612b4b565b8015610c495780601f10610c1e57610100808354040283529160200191610c49565b820191906000526020600020905b815481529060010190602001808311610c2c57829003601f168201915b5050505050815260200160028201548152505090508160028481548110610c7257610c72612b35565b90600052602060002090600302016000820151816000019080519060200190610c9c9291906125a7565b506020828101518051610cb592600185019201906125a7565b50604082015181600201559050508060028581548110610cd757610cd7612b35565b90600052602060002090600302016000820151816000019080519060200190610d019291906125a7565b506020828101518051610d1a92600185019201906125a7565b506040918201516002909101558251825191517f03f1d229173cc08c7c85f7dcd914724184489590489ed1d27b31afb31013506192610d5d929188908890612b85565b60405180910390a150505050565b6004546001600160a01b0316331480610d8e57506000546001600160a01b031633145b610daa5760405162461bcd60e51b815260040161073a90612b06565b60025415610dfa5760405162461bcd60e51b815260206004820152601b60248201527f436c6561722076616c696461746f722061727261792066697273740000000000604482015260640161073a565b8051610e0d9060039060208401906125a7565b507f8ba040512c1273086ac3dc9e59c32b9fc104064d6df4c3747fec10e029bc3fba816040516109589190612bbe565b6004546001600160a01b0316331480610e6057506000546001600160a01b031633145b610e7c5760405162461bcd60e51b815260040161073a90612b06565b600754811115610eda5760405162461bcd60e51b815260206004820152602360248201527f4e6f7420656e6f756768207769746868656c642045544820696e20636f6e74726044820152621858dd60ea1b606482015260840161073a565b8060076000828254610eec9190612bd1565b90915550506040516000906001600160a01b0384169083908381818185875af1925050503d8060008114610f3c576040519150601f19603f3d011682016040523d82523d6000602084013e610f41565b606091505b5050905080610f855760405162461bcd60e51b815260206004820152601060248201526f24b73b30b634b2103a3930b739b332b960811b604482015260640161073a565b826001600160a01b03167f60b677b352dc4c2f8482a85e1557d78515c38e3f3671be950a8357db6f563b9b83604051610fc091815260200190565b60405180910390a2505050565b6004546001600160a01b0316331480610ff057506000546001600160a01b031633145b61100c5760405162461bcd60e51b815260040161073a90612b06565b6002805460018101825560009190915281906003027f405787fa12a823e0f2b7631cc41b3ba8828b3321ca811111fa75cd3aa3bb5ace0161104d8282612d46565b507f56fee40578122d6872c25c03569653f7c3535363d7c04df91aa93806113b50c1905061107b8280612be8565b600360405161095893929190612e39565b6000611097306106f0565b60405163095ea7b360e01b81526001600160a01b037f0000000000000000000000000000000000000000000000000000000000000000811660048301523460248301527f0000000000000000000000000000000000000000000000000000000000000000169063095ea7b3906044016020604051808303816000875af1158015611125573d6000803e3d6000fd5b505050506040513d601f19601f820116820180604052508101906111499190612eed565b50604051636e553f6560e01b81523460048201526001600160a01b0383811660248301526000917f000000000000000000000000000000000000000000000000000000000000000090911690636e553f65906044016020604051808303816000875af11580156111bd573d6000803e3d6000fd5b505050506040513d601f19601f820116820180604052508101906111e19190612f0a565b9050600081116112335760405162461bcd60e51b815260206004820152601760248201527f4e6f2073667278455448207761732072657475726e6564000000000000000000604482015260640161073a565b92915050565b611242336106f0565b565b6001546001600160a01b031633146112bc5760405162461bcd60e51b815260206004820152603560248201527f596f75206d757374206265206e6f6d696e61746564206265666f726520796f7560448201527402063616e20616363657074206f776e65727368697605c1b606482015260840161073a565b600054600154604080516001600160a01b0393841681529290911660208301527fb532073b38c83145e3e5135377a08bf9aab55bc0fd7c1179cd4fb995d2a5159c910160405180910390a160018054600080546001600160a01b03199081166001600160a01b03841617909155169055565b6004546001600160a01b031633148061135157506000546001600160a01b031633145b61136d5760405162461bcd60e51b815260040161073a90612b06565b60005460405163a9059cbb60e01b81526001600160a01b039182166004820152602481018390529083169063a9059cbb906044016020604051808303816000875af11580156113c0573d6000803e3d6000fd5b505050506040513d601f19601f820116820180604052508101906113e49190612eed565b6114305760405162461bcd60e51b815260206004820152601d60248201527f7265636f76657245524332303a205472616e73666572206661696c6564000000604482015260640161073a565b604080516001600160a01b0384168152602081018390527f2178cd1256ad9200080414ad733212aa6401e6a74954264b7654e671db074f5691015b60405180910390a15050565b61147f61228e565b600954610100900460ff16156114d75760405162461bcd60e51b815260206004820152601860248201527f4465706f736974696e6720455448206973207061757365640000000000000000604482015260640161073a565b60006801bc16d674ec800000600754476114f19190612bd1565b6114fb9190612acc565b90506000811161154d5760405162461bcd60e51b815260206004820152601a60248201527f4e6f7420656e6f7567682045544820696e20636f6e7472616374000000000000604482015260640161073a565b60005b818110156116ff576000806000806115666122e7565b935093509350935060088460405161157e9190612f23565b9081526040519081900360200190205460ff16156115de5760405162461bcd60e51b815260206004820152601c60248201527f56616c696461746f7220616c7265616479206861732033322045544800000000604482015260640161073a565b6040516304512a2360e31b81526001600160a01b037f000000000000000000000000000000000000000000000000000000000000000016906322895118906801bc16d674ec8000009061163b9088908890889088906004016128dc565b6000604051808303818588803b15801561165457600080fd5b505af1158015611668573d6000803e3d6000fd5b5050505050600160088560405161167f9190612f23565b908152604051908190036020018120805492151560ff19909316929092179091556116ab908590612f23565b60405180910390207f4d312bd9aebc53f5bfad5cc169f41e65030288ef6b769786d43998abfb69a250846040516116e29190612bbe565b60405180910390a250505050806116f890612f3f565b9050611550565b50506112426001600555565b6004546001600160a01b031633148061172e57506000546001600160a01b031633145b61174a5760405162461bcd60e51b815260040161073a90612b06565b6117566002600061262b565b6040517fbf5f94bdb8a562775e85a1990f734d669663e8de3b240d56ec4b1f71ca66b00790600090a1565b6004546001600160a01b03163314806117a457506000546001600160a01b031633145b6117c05760405162461bcd60e51b815260040161073a90612b06565b620f42408111156118135760405162461bcd60e51b815260206004820152601960248201527f526174696f2063616e6e6f742073757270617373203130302500000000000000604482015260640161073a565b60068190556040518181527f9d9f4a1fa43ffde666e23300e98e21e37dccd7f33bb238071f5341a53f346f9390602001610958565b6004546001600160a01b031633148061186b57506000546001600160a01b031633145b6118875760405162461bcd60e51b815260040161073a90612b06565b60005b818110156118ed5760028054806118a3576118a3612f58565b600082815260208120600019909201916003830201906118c3828261264c565b6118d160018301600061264c565b5060006002919091015590556118e681612f3f565b905061188a565b506040518181527f03ed6e686bcf321d69427b429b8e18745c96afc0ba4e6c7eb1f3aefaff088cf390602001610958565b6004546001600160a01b031633148061194157506000546001600160a01b031633145b61195d5760405162461bcd60e51b815260040161073a90612b06565b6009805460ff8082161560ff1990921682179092556040519116151581527f4aff1af3f32e78f88c86566e6b50fe05d6ba3d9c7374e042ac17e5191c5fac56906020015b60405180910390a1565b6060806060600080600286815481106119c6576119c6612b35565b90600052602060002090600302016040518060600160405290816000820180546119ef90612b4b565b80601f0160208091040260200160405190810160405280929190818152602001828054611a1b90612b4b565b8015611a685780601f10611a3d57610100808354040283529160200191611a68565b820191906000526020600020905b815481529060010190602001808311611a4b57829003601f168201915b50505050508152602001600182018054611a8190612b4b565b80601f0160208091040260200160405190810160405280929190818152602001828054611aad90612b4b565b8015611afa5780601f10611acf57610100808354040283529160200191611afa565b820191906000526020600020905b815481529060010190602001808311611add57829003601f168201915b5050505050815260200160028201548152505090508060000151945060038054611b2390612b4b565b80601f0160208091040260200160405190810160405280929190818152602001828054611b4f90612b4b565b8015611b9c5780601f10611b7157610100808354040283529160200191611b9c565b820191906000526020600020905b815481529060010190602001808311611b7f57829003601f168201915b505050505093508060200151925080604001519150509193509193565b6004546001600160a01b0316331480611bdc57506000546001600160a01b031633145b611bf85760405162461bcd60e51b815260040161073a90612b06565b6009805460ff610100808304821615810261ff001990931692909217928390556040517fcead0025c428cc6485390ecd2b3213d7a3d44d3f190a3b880ba9025521365706936119a19390049091161515815260200190565b6004546001600160a01b0316331480611c7357506000546001600160a01b031633145b611c8f5760405162461bcd60e51b815260040161073a90612b06565b6001600160a01b038116611cdd5760405162461bcd60e51b815260206004820152601560248201527416995c9bc81859191c995cdcc819195d1958dd1959605a1b604482015260640161073a565b600480546001600160a01b0319166001600160a01b0383169081179091556040519081527ff02fdf7b40fb25784d39342249bbb15cee2bc0288f75ded1cf8ad2e63d4d91aa90602001610958565b610899816106f0565b6004546001600160a01b0316331480611d5757506000546001600160a01b031633145b611d735760405162461bcd60e51b815260040161073a90612b06565b600080546040516001600160a01b039091169083908381818185875af1925050503d8060008114611dc0576040519150601f19603f3d011682016040523d82523d6000602084013e611dc5565b606091505b5050905080611e095760405162461bcd60e51b815260206004820152601060248201526f24b73b30b634b2103a3930b739b332b960811b604482015260640161073a565b6040518281527f040130779a9eeca4469ba7b0c5223a65f424ea2a23f9b9ee336afd7905ef68b49060200161146b565b6004546001600160a01b0316331480611e5c57506000546001600160a01b031633145b611e785760405162461bcd60e51b815260040161073a90612b06565b600060028381548110611e8d57611e8d612b35565b90600052602060002090600302016000018054611ea990612b4b565b80601f0160208091040260200160405190810160405280929190818152602001828054611ed590612b4b565b8015611f225780601f10611ef757610100808354040283529160200191611f22565b820191906000526020600020905b815481529060010190602001808311611f0557829003601f168201915b505050505090508115611f9457600254611f449084906102e390600190612bd1565b6002805480611f5557611f55612f58565b60008281526020812060001990920191600383020190611f75828261264c565b611f8360018301600061264c565b6002820160009055505090556121c6565b60006002805480602002602001604051908101604052809291908181526020016000905b828210156121185783829060005260206000209060030201604051806060016040529081600082018054611feb90612b4b565b80601f016020809104026020016040519081016040528092919081815260200182805461201790612b4b565b80156120645780601f1061203957610100808354040283529160200191612064565b820191906000526020600020905b81548152906001019060200180831161204757829003601f168201915b5050505050815260200160018201805461207d90612b4b565b80601f01602080910402602001604051908101604052809291908181526020018280546120a990612b4b565b80156120f65780601f106120cb576101008083540402835291602001916120f6565b820191906000526020600020905b8154815290600101906020018083116120d957829003601f168201915b5050505050815260200160028201548152505081526020019060010190611fb8565b5050505090506002600061212c919061262b565b60005b81518110156121c3578481146121b357600282828151811061215357612153612b35565b60209081029190910181015182546001810184556000938452928290208151805192946003029091019261218c928492909101906125a7565b5060208281015180516121a592600185019201906125a7565b506040820151816002015550505b6121bc81612f3f565b905061212f565b50505b7f0d69d6651f1449a1038428f2773f275a39ef104c76bf46970cdffdbbe1496c518184846040516121f993929190612f6e565b60405180910390a1505050565b6004546001600160a01b031633148061222957506000546001600160a01b031633145b6122455760405162461bcd60e51b815260040161073a90612b06565b8060005b818110156122885761227884848381811061226657612266612b35565b905060200281019061036e9190612f98565b61228181612f3f565b9050612249565b50505050565b6002600554036122e05760405162461bcd60e51b815260206004820152601f60248201527f5265656e7472616e637947756172643a207265656e7472616e742063616c6c00604482015260640161073a565b6002600555565b60608060606000806122f860025490565b90508060000361234a5760405162461bcd60e51b815260206004820152601860248201527f56616c696461746f7220737461636b20697320656d7074790000000000000000604482015260640161073a565b60006002612359600184612bd1565b8154811061236957612369612b35565b906000526020600020906003020160405180606001604052908160008201805461239290612b4b565b80601f01602080910402602001604051908101604052809291908181526020018280546123be90612b4b565b801561240b5780601f106123e05761010080835404028352916020019161240b565b820191906000526020600020905b8154815290600101906020018083116123ee57829003601f168201915b5050505050815260200160018201805461242490612b4b565b80601f016020809104026020016040519081016040528092919081815260200182805461245090612b4b565b801561249d5780601f106124725761010080835404028352916020019161249d565b820191906000526020600020905b81548152906001019060200180831161248057829003601f168201915b50505050508152602001600282015481525050905060028054806124c3576124c3612f58565b600082815260208120600019909201916003830201906124e3828261264c565b6124f160018301600061264c565b600282016000905550509055806000015195506003805461251190612b4b565b80601f016020809104026020016040519081016040528092919081815260200182805461253d90612b4b565b801561258a5780601f1061255f5761010080835404028352916020019161258a565b820191906000526020600020905b81548152906001019060200180831161256d57829003601f168201915b505050505094508060200151935080604001519250505090919293565b8280546125b390612b4b565b90600052602060002090601f0160209004810192826125d5576000855561261b565b82601f106125ee57805160ff191683800117855561261b565b8280016001018555821561261b579182015b8281111561261b578251825591602001919060010190612600565b50612627929150612682565b5090565b50805460008255600302906000526020600020908101906108999190612697565b50805461265890612b4b565b6000825580601f10612668575050565b601f01602090049060005260206000209081019061089991905b5b808211156126275760008155600101612683565b808211156126275760006126ab828261264c565b6126b960018301600061264c565b5060006002820155600301612697565b6001600160a01b038116811461089957600080fd5b6000602082840312156126f057600080fd5b81356126fb816126c9565b9392505050565b6000806040838503121561271557600080fd5b50508035926020909101359150565b634e487b7160e01b600052604160045260246000fd5b600082601f83011261274b57600080fd5b813567ffffffffffffffff8082111561276657612766612724565b604051601f8301601f19908116603f0116810190828211818310171561278e5761278e612724565b816040528381528660208588010111156127a757600080fd5b836020870160208301376000602085830101528094505050505092915050565b6000602082840312156127d957600080fd5b813567ffffffffffffffff8111156127f057600080fd5b6127fc8482850161273a565b949350505050565b6000806040838503121561281757600080fd5b8235612822816126c9565b946020939093013593505050565b60006020828403121561284257600080fd5b813567ffffffffffffffff81111561285957600080fd5b8201606081850312156126fb57600080fd5b60006020828403121561287d57600080fd5b5035919050565b60005b8381101561289f578181015183820152602001612887565b838111156122885750506000910152565b600081518084526128c8816020860160208601612884565b601f01601f19169290920160200192915050565b6080815260006128ef60808301876128b0565b828103602084015261290181876128b0565b9050828103604084015261291581866128b0565b91505082606083015295945050505050565b60008060006060848603121561293c57600080fd5b833567ffffffffffffffff8082111561295457600080fd5b6129608783880161273a565b9450602086013591508082111561297657600080fd5b506129838682870161273a565b925050604084013590509250925092565b6020815260008251606060208401526129b060808401826128b0565b90506020840151601f198483030160408501526129cd82826128b0565b915050604084015160608401528091505092915050565b801515811461089957600080fd5b60008060408385031215612a0557600080fd5b823591506020830135612a17816129e4565b809150509250929050565b60008060208385031215612a3557600080fd5b823567ffffffffffffffff80821115612a4d57600080fd5b818501915085601f830112612a6157600080fd5b813581811115612a7057600080fd5b8660208260051b8501011115612a8557600080fd5b60209290920196919550909350505050565b634e487b7160e01b600052601160045260246000fd5b6000816000190483118215151615612ac757612ac7612a97565b500290565b600082612ae957634e487b7160e01b600052601260045260246000fd5b500490565b60008219821115612b0157612b01612a97565b500190565b6020808252601590820152744e6f74206f776e6572206f722074696d656c6f636b60581b604082015260600190565b634e487b7160e01b600052603260045260246000fd5b600181811c90821680612b5f57607f821691505b602082108103612b7f57634e487b7160e01b600052602260045260246000fd5b50919050565b608081526000612b9860808301876128b0565b8281036020840152612baa81876128b0565b604084019590955250506060015292915050565b6020815260006126fb60208301846128b0565b600082821015612be357612be3612a97565b500390565b6000808335601e19843603018112612bff57600080fd5b83018035915067ffffffffffffffff821115612c1a57600080fd5b602001915036819003821315612c2f57600080fd5b9250929050565b601f821115612c8057600081815260208120601f850160051c81016020861015612c5d5750805b601f850160051c820191505b81811015612c7c57828155600101612c69565b5050505b505050565b67ffffffffffffffff831115612c9d57612c9d612724565b612cb183612cab8354612b4b565b83612c36565b6000601f841160018114612ce55760008515612ccd5750838201355b600019600387901b1c1916600186901b178355612d3f565b600083815260209020601f19861690835b82811015612d165786850135825560209485019460019092019101612cf6565b5086821015612d335760001960f88860031b161c19848701351681555b505060018560011b0183555b5050505050565b612d508283612be8565b67ffffffffffffffff811115612d6857612d68612724565b612d7c81612d768554612b4b565b85612c36565b6000601f821160018114612db05760008315612d985750838201355b600019600385901b1c1916600184901b178555612e0a565b600085815260209020601f19841690835b82811015612de15786850135825560209485019460019092019101612dc1565b5084821015612dfe5760001960f88660031b161c19848701351681555b505060018360011b0185555b50505050612e1b6020830183612be8565b612e29818360018601612c85565b5050604082013560028201555050565b60408152826040820152828460608301376000606084830101526000601f19601f850116820160206060848303018185015260008554612e7881612b4b565b8060608601526080600180841660008114612e9a5760018114612eae57612edc565b60ff1985168884015260a088019550612edc565b8a6000528660002060005b85811015612ed45781548a8201860152908301908801612eb9565b890184019650505b50939b9a5050505050505050505050565b600060208284031215612eff57600080fd5b81516126fb816129e4565b600060208284031215612f1c57600080fd5b5051919050565b60008251612f35818460208701612884565b9190910192915050565b600060018201612f5157612f51612a97565b5060010190565b634e487b7160e01b600052603160045260246000fd5b606081526000612f8160608301866128b0565b602083019490945250901515604090910152919050565b60008235605e19833603018112612f3557600080fdfea2646970667358221220b668a7de9bc24ab49a13e5951cd1134f41a18cf97e575642dfc0860b0d9257fc64736f6c634300080d0033",
    "linkReferences": {}
  },
  "methodIdentifiers": {
    "DEPOSIT_SIZE()": "36bf3325",
    "RATIO_PRECISION()": "d32867d0",
    "acceptOwnership()": "79ba5097",
    "activeValidators(bytes)": "cdcedf40",
    "addValidator((bytes,bytes,bytes32))": "4b9b90c5",
    "addValidators((bytes,bytes,bytes32)[])": "f63a1711",
    "clearValidatorArray()": "a3f34980",
    "currentWithheldETH()": "8e69d7ad",
    "depositContract()": "e94ad65b",
    "depositEther()": "98ea5fca",
    "depositEtherPaused()": "206583ac",
    "frxETHToken()": "ba947f27",
    "getValidator(uint256)": "b5d89627",
    "getValidatorStruct(bytes,bytes,bytes32)": "bc9944f9",
    "moveWithheldETH(address,uint256)": "3f8380b6",
    "nominateNewOwner(address)": "1627540c",
    "nominatedOwner()": "53a47bb7",
    "numValidators()": "5d593f8d",
    "owner()": "8da5cb5b",
    "popValidators(uint256)": "ae6e83bf",
    "recoverERC20(address,uint256)": "8980f11f",
    "recoverEther(uint256)": "c3d31487",
    "removeValidator(uint256,bool)": "e77df366",
    "setTimelock(address)": "bdacb303",
    "setWithdrawalCredential(bytes)": "3683c204",
    "setWithholdRatio(uint256)": "aa6fa83c",
    "sfrxETHToken()": "1c568db6",
    "submit()": "5bcb2fc6",
    "submitAndDeposit(address)": "4dcd4547",
    "submitAndGive(address)": "bfda0c8c",
    "submitPaused()": "b6d24f18",
    "swapValidator(uint256,uint256)": "35b5d534",
    "timelock_address()": "dc6663c7",
    "togglePauseDepositEther()": "b5e5e64c",
    "togglePauseSubmits()": "b507fb00",
    "withholdRatio()": "57c59b04"
  },
  "userdoc": {
    "version": 1,
    "kind": "user",
    "methods": {
      "clearValidatorArray()": {
        "notice": "Empties the validator array"
      },
      "depositEther()": {
        "notice": "Deposit batches of ETH to the ETH 2.0 deposit contract"
      },
      "getValidator(uint256)": {
        "notice": "Return the information of the i'th validator in the registry"
      },
      "getValidatorStruct(bytes,bytes,bytes32)": {
        "notice": "Returns a Validator struct of the given inputs to make formatting addValidator inputs easier"
      },
      "moveWithheldETH(address,uint256)": {
        "notice": "Give the withheld ETH to the \"to\" address"
      },
      "numValidators()": {
        "notice": "Returns the number of validators"
      },
      "popValidators(uint256)": {
        "notice": "Remove validators from the end of the validators array, in case they were added in error"
      },
      "recoverERC20(address,uint256)": {
        "notice": "For emergencies if someone accidentally sent some ERC20 tokens here"
      },
      "recoverEther(uint256)": {
        "notice": "For emergencies if something gets stuck"
      },
      "removeValidator(uint256,bool)": {
        "notice": "Remove a validator from the array. If dont_care_about_ordering is true,   a swap and pop will occur instead of a more gassy loop "
      },
      "setTimelock(address)": {
        "notice": "Set the timelock contract"
      },
      "setWithdrawalCredential(bytes)": {
        "notice": "Requires empty validator stack as changing withdrawal creds invalidates signature"
      },
      "setWithholdRatio(uint256)": {
        "notice": "An input of 1e6 results in 100% of Eth deposited, 0% withheld"
      },
      "submit()": {
        "notice": "Mint frxETH to the sender depending on the ETH value sent"
      },
      "submitAndGive(address)": {
        "notice": "Mint frxETH to the recipient using sender's funds"
      },
      "swapValidator(uint256,uint256)": {
        "notice": "Swap the location of one validator with another"
      },
      "togglePauseDepositEther()": {
        "notice": "Toggle allowing depositing ETH to validators"
      },
      "togglePauseSubmits()": {
        "notice": "Toggle allowing submites"
      }
    }
  },
  "devdoc": {
    "version": 1,
    "kind": "dev",
    "details": "Has permission to mint frxETH.  Once +32 ETH has accumulated, adds it to a validator, which then deposits it for ETH 2.0 staking (depositEther()) Withhold ratio refers to what percentage of ETH this contract keeps whenever a user makes a deposit. 0% is kept initially ",
    "methods": {
      "addValidator((bytes,bytes,bytes32))": {
        "details": "You should verify offchain that the validator is indeed valid before adding it Reason we don't do that here is for gas "
      },
      "addValidators((bytes,bytes,bytes32)[])": {
        "details": "You should verify offchain that the validators are indeed valid before adding them Reason we don't do that here is for gas "
      },
      "clearValidatorArray()": {
        "details": "Need to do this before setWithdrawalCredential()"
      },
      "depositEther()": {
        "details": "Usually a bot will call this periodically"
      },
      "setWithdrawalCredential(bytes)": {
        "details": "May need to call clearValidatorArray() first"
      },
      "setWithholdRatio(uint256)": {
        "params": {
          "newRatio": "of ETH that is sent to deposit contract vs withheld, 1e6 precision"
        }
      },
      "submitAndDeposit(address)": {
        "details": "Could try using EIP-712 / EIP-2612 here in the future if you replace this contract, but you might run into msg.sender vs tx.origin issues with the ERC4626 "
      }
    }
  },
  "id": 36
}