{
  "abi": [
    {
      "inputs": [
        {
          "internalType": "address",
          "name": "_owner",
          "type": "address"
        },
        {
          "internalType": "address",
          "name": "_timelock_address",
          "type": "address"
        },
        {
          "internalType": "bytes",
          "name": "_withdrawal_pubkey",
          "type": "bytes"
        }
      ],
      "stateMutability": "nonpayable",
      "type": "constructor"
    },
    {
      "anonymous": false,
      "inputs": [],
      "name": "KeysCleared",
      "type": "event"
    },
    {
      "anonymous": false,
      "inputs": [
        {
          "indexed": false,
          "internalType": "address",
          "name": "oldOwner",
          "type": "address"
        },
        {
          "indexed": false,
          "internalType": "address",
          "name": "newOwner",
          "type": "address"
        }
      ],
      "name": "OwnerChanged",
      "type": "event"
    },
    {
      "anonymous": false,
      "inputs": [
        {
          "indexed": false,
          "internalType": "address",
          "name": "newOwner",
          "type": "address"
        }
      ],
      "name": "OwnerNominated",
      "type": "event"
    },
    {
      "anonymous": false,
      "inputs": [
        {
          "indexed": false,
          "internalType": "address",
          "name": "timelock_address",
          "type": "address"
        }
      ],
      "name": "TimelockChanged",
      "type": "event"
    },
    {
      "anonymous": false,
      "inputs": [
        {
          "indexed": false,
          "internalType": "bytes",
          "name": "pubKey",
          "type": "bytes"
        },
        {
          "indexed": false,
          "internalType": "bytes",
          "name": "withdrawalCredential",
          "type": "bytes"
        }
      ],
      "name": "ValidatorAdded",
      "type": "event"
    },
    {
      "anonymous": false,
      "inputs": [],
      "name": "ValidatorArrayCleared",
      "type": "event"
    },
    {
      "anonymous": false,
      "inputs": [
        {
          "indexed": false,
          "internalType": "bytes",
          "name": "pubKey",
          "type": "bytes"
        },
        {
          "indexed": false,
          "internalType": "uint256",
          "name": "remove_idx",
          "type": "uint256"
        },
        {
          "indexed": false,
          "internalType": "bool",
          "name": "dont_care_about_ordering",
          "type": "bool"
        }
      ],
      "name": "ValidatorRemoved",
      "type": "event"
    },
    {
      "anonymous": false,
      "inputs": [
        {
          "indexed": false,
          "internalType": "uint256",
          "name": "times",
          "type": "uint256"
        }
      ],
      "name": "ValidatorsPopped",
      "type": "event"
    },
    {
      "anonymous": false,
      "inputs": [
        {
          "indexed": false,
          "internalType": "bytes",
          "name": "from_pubKey",
          "type": "bytes"
        },
        {
          "indexed": false,
          "internalType": "bytes",
          "name": "to_pubKey",
          "type": "bytes"
        },
        {
          "indexed": false,
          "internalType": "uint256",
          "name": "from_idx",
          "type": "uint256"
        },
        {
          "indexed": false,
          "internalType": "uint256",
          "name": "to_idx",
          "type": "uint256"
        }
      ],
      "name": "ValidatorsSwapped",
      "type": "event"
    },
    {
      "anonymous": false,
      "inputs": [
        {
          "indexed": false,
          "internalType": "bytes",
          "name": "_withdrawalCredential",
          "type": "bytes"
        }
      ],
      "name": "WithdrawalCredentialSet",
      "type": "event"
    },
    {
      "inputs": [],
      "name": "acceptOwnership",
      "outputs": [],
      "stateMutability": "nonpayable",
      "type": "function"
    },
    {
      "inputs": [
        {
          "components": [
            {
              "internalType": "bytes",
              "name": "pubKey",
              "type": "bytes"
            },
            {
              "internalType": "bytes",
              "name": "signature",
              "type": "bytes"
            },
            {
              "internalType": "bytes32",
              "name": "depositDataRoot",
              "type": "bytes32"
            }
          ],
          "internalType": "struct OperatorRegistry.Validator",
          "name": "validator",
          "type": "tuple"
        }
      ],
      "name": "addValidator",
      "outputs": [],
      "stateMutability": "nonpayable",
      "type": "function"
    },
    {
      "inputs": [
        {
          "components": [
            {
              "internalType": "bytes",
              "name": "pubKey",
              "type": "bytes"
            },
            {
              "internalType": "bytes",
              "name": "signature",
              "type": "bytes"
            },
            {
              "internalType": "bytes32",
              "name": "depositDataRoot",
              "type": "bytes32"
            }
          ],
          "internalType": "struct OperatorRegistry.Validator[]",
          "name": "validatorArray",
          "type": "tuple[]"
        }
      ],
      "name": "addValidators",
      "outputs": [],
      "stateMutability": "nonpayable",
      "type": "function"
    },
    {
      "inputs": [],
      "name": "clearValidatorArray",
      "outputs": [],
      "stateMutability": "nonpayable",
      "type": "function"
    },
    {
      "inputs": [
        {
          "internalType": "uint256",
          "name": "i",
          "type": "uint256"
        }
      ],
      "name": "getValidator",
      "outputs": [
        {
          "internalType": "bytes",
          "name": "pubKey",
          "type": "bytes"
        },
        {
          "internalType": "bytes",
          "name": "withdrawalCredentials",
          "type": "bytes"
        },
        {
          "internalType": "bytes",
          "name": "signature",
          "type": "bytes"
        },
        {
          "internalType": "bytes32",
          "name": "depositDataRoot",
          "type": "bytes32"
        }
      ],
      "stateMutability": "view",
      "type": "function"
    },
    {
      "inputs": [
        {
          "internalType": "bytes",
          "name": "pubKey",
          "type": "bytes"
        },
        {
          "internalType": "bytes",
          "name": "signature",
          "type": "bytes"
        },
        {
          "internalType": "bytes32",
          "name": "depositDataRoot",
          "type": "bytes32"
        }
      ],
      "name": "getValidatorStruct",
      "outputs": [
        {
          "components": [
            {
              "internalType": "bytes",
              "name": "pubKey",
              "type": "bytes"
            },
            {
              "internalType": "bytes",
              "name": "signature",
              "type": "bytes"
            },
            {
              "internalType": "bytes32",
              "name": "depositDataRoot",
              "type": "bytes32"
            }
          ],
          "internalType": "struct OperatorRegistry.Validator",
          "name": "",
          "type": "tuple"
        }
      ],
      "stateMutability": "pure",
      "type": "function"
    },
    {
      "inputs": [
        {
          "internalType": "address",
          "name": "_owner",
          "type": "address"
        }
      ],
      "name": "nominateNewOwner",
      "outputs": [],
      "stateMutability": "nonpayable",
      "type": "function"
    },
    {
      "inputs": [],
      "name": "nominatedOwner",
      "outputs": [
        {
          "internalType": "address",
          "name": "",
          "type": "address"
        }
      ],
      "stateMutability": "view",
      "type": "function"
    },
    {
      "inputs": [],
      "name": "numValidators",
      "outputs": [
        {
          "internalType": "uint256",
          "name": "",
          "type": "uint256"
        }
      ],
      "stateMutability": "view",
      "type": "function"
    },
    {
      "inputs": [],
      "name": "owner",
      "outputs": [
        {
          "internalType": "address",
          "name": "",
          "type": "address"
        }
      ],
      "stateMutability": "view",
      "type": "function"
    },
    {
      "inputs": [
        {
          "internalType": "uint256",
          "name": "times",
          "type": "uint256"
        }
      ],
      "name": "popValidators",
      "outputs": [],
      "stateMutability": "nonpayable",
      "type": "function"
    },
    {
      "inputs": [
        {
          "internalType": "uint256",
          "name": "remove_idx",
          "type": "uint256"
        },
        {
          "internalType": "bool",
          "name": "dont_care_about_ordering",
          "type": "bool"
        }
      ],
      "name": "removeValidator",
      "outputs": [],
      "stateMutability": "nonpayable",
      "type": "function"
    },
    {
      "inputs": [
        {
          "internalType": "address",
          "name": "_timelock_address",
          "type": "address"
        }
      ],
      "name": "setTimelock",
      "outputs": [],
      "stateMutability": "nonpayable",
      "type": "function"
    },
    {
      "inputs": [
        {
          "internalType": "bytes",
          "name": "_new_withdrawal_pubkey",
          "type": "bytes"
        }
      ],
      "name": "setWithdrawalCredential",
      "outputs": [],
      "stateMutability": "nonpayable",
      "type": "function"
    },
    {
      "inputs": [
        {
          "internalType": "uint256",
          "name": "from_idx",
          "type": "uint256"
        },
        {
          "internalType": "uint256",
          "name": "to_idx",
          "type": "uint256"
        }
      ],
      "name": "swapValidator",
      "outputs": [],
      "stateMutability": "nonpayable",
      "type": "function"
    },
    {
      "inputs": [],
      "name": "timelock_address",
      "outputs": [
        {
          "internalType": "address",
          "name": "",
          "type": "address"
        }
      ],
      "stateMutability": "view",
      "type": "function"
    }
  ],
  "bytecode": {
    "object": "0x60806040523480156200001157600080fd5b5060405162001f0738038062001f078339810160408190526200003491620001fb565b826001600160a01b038116620000905760405162461bcd60e51b815260206004820152601960248201527f4f776e657220616464726573732063616e6e6f74206265203000000000000000604482015260640160405180910390fd5b600080546001600160a01b0319166001600160a01b03831690811782556040805192835260208301919091527fb532073b38c83145e3e5135377a08bf9aab55bc0fd7c1179cd4fb995d2a5159c910160405180910390a150600480546001600160a01b0319166001600160a01b03841617905580516200011890600390602084019062000122565b505050506200033b565b8280546200013090620002ff565b90600052602060002090601f0160209004810192826200015457600085556200019f565b82601f106200016f57805160ff19168380011785556200019f565b828001600101855582156200019f579182015b828111156200019f57825182559160200191906001019062000182565b50620001ad929150620001b1565b5090565b5b80821115620001ad5760008155600101620001b2565b80516001600160a01b0381168114620001e057600080fd5b919050565b634e487b7160e01b600052604160045260246000fd5b6000806000606084860312156200021157600080fd5b6200021c84620001c8565b925060206200022d818601620001c8565b60408601519093506001600160401b03808211156200024b57600080fd5b818701915087601f8301126200026057600080fd5b815181811115620002755762000275620001e5565b604051601f8201601f19908116603f01168101908382118183101715620002a057620002a0620001e5565b816040528281528a86848701011115620002b957600080fd5b600093505b82841015620002dd5784840186015181850187015292850192620002be565b82841115620002ef5760008684830101525b8096505050505050509250925092565b600181811c908216806200031457607f821691505b6020821081036200033557634e487b7160e01b600052602260045260246000fd5b50919050565b611bbc806200034b6000396000f3fe608060405234801561001057600080fd5b50600436106101005760003560e01c8063a3f3498011610097578063bdacb30311610066578063bdacb30314610241578063dc6663c714610254578063e77df36614610267578063f63a17111461027a57600080fd5b8063a3f34980146101af578063ae6e83bf146101b7578063b5d89627146101ca578063bc9944f9146101ed57600080fd5b806353a47bb7116100d357806353a47bb7146101535780635d593f8d1461018357806379ba5097146101945780638da5cb5b1461019c57600080fd5b80631627540c1461010557806335b5d5341461011a5780633683c2041461012d5780634b9b90c514610140575b600080fd5b61011861011336600461138b565b61028d565b005b6101186101283660046113bb565b610359565b61011861013b366004611480565b610761565b61011861014e3660046114bd565b610833565b600154610166906001600160a01b031681565b6040516001600160a01b0390911681526020015b60405180910390f35b60025460405190815260200161017a565b6101186108f2565b600054610166906001600160a01b031681565b6101186109dc565b6101186101c53660046114f8565b610a52565b6101dd6101d83660046114f8565b610b28565b60405161017a949392919061155e565b6102346101fb3660046115a9565b60408051606080820183528082526020820152600091810191909152506040805160608101825293845260208401929092529082015290565b60405161017a9190611616565b61011861024f36600461138b565b610d36565b600454610166906001600160a01b031681565b610118610275366004611666565b610e11565b61011861028836600461169b565b6111de565b6000546001600160a01b031633146103045760405162461bcd60e51b815260206004820152602f60248201527f4f6e6c792074686520636f6e7472616374206f776e6572206d6179207065726660448201526e37b936903a3434b99030b1ba34b7b760891b60648201526084015b60405180910390fd5b600180546001600160a01b0319166001600160a01b0383169081179091556040519081527f906a1c6bd7e3091ea86693dd029a831c19049ce77f1dce2ce0bab1cacbabce22906020015b60405180910390a150565b6004546001600160a01b031633148061037c57506000546001600160a01b031633145b6103985760405162461bcd60e51b81526004016102fb90611710565b6000600283815481106103ad576103ad61173f565b90600052602060002090600302016040518060600160405290816000820180546103d690611755565b80601f016020809104026020016040519081016040528092919081815260200182805461040290611755565b801561044f5780601f106104245761010080835404028352916020019161044f565b820191906000526020600020905b81548152906001019060200180831161043257829003601f168201915b5050505050815260200160018201805461046890611755565b80601f016020809104026020016040519081016040528092919081815260200182805461049490611755565b80156104e15780601f106104b6576101008083540402835291602001916104e1565b820191906000526020600020905b8154815290600101906020018083116104c457829003601f168201915b50505050508152602001600282015481525050905060006002838154811061050b5761050b61173f565b906000526020600020906003020160405180606001604052908160008201805461053490611755565b80601f016020809104026020016040519081016040528092919081815260200182805461056090611755565b80156105ad5780601f10610582576101008083540402835291602001916105ad565b820191906000526020600020905b81548152906001019060200180831161059057829003601f168201915b505050505081526020016001820180546105c690611755565b80601f01602080910402602001604051908101604052809291908181526020018280546105f290611755565b801561063f5780601f106106145761010080835404028352916020019161063f565b820191906000526020600020905b81548152906001019060200180831161062257829003601f168201915b50505050508152602001600282015481525050905081600284815481106106685761066861173f565b90600052602060002090600302016000820151816000019080519060200190610692929190611266565b5060208281015180516106ab9260018501920190611266565b506040820151816002015590505080600285815481106106cd576106cd61173f565b906000526020600020906003020160008201518160000190805190602001906106f7929190611266565b5060208281015180516107109260018501920190611266565b506040918201516002909101558251825191517f03f1d229173cc08c7c85f7dcd914724184489590489ed1d27b31afb3101350619261075392918890889061178f565b60405180910390a150505050565b6004546001600160a01b031633148061078457506000546001600160a01b031633145b6107a05760405162461bcd60e51b81526004016102fb90611710565b600254156107f05760405162461bcd60e51b815260206004820152601b60248201527f436c6561722076616c696461746f72206172726179206669727374000000000060448201526064016102fb565b8051610803906003906020840190611266565b507f8ba040512c1273086ac3dc9e59c32b9fc104064d6df4c3747fec10e029bc3fba8160405161034e91906117c8565b6004546001600160a01b031633148061085657506000546001600160a01b031633145b6108725760405162461bcd60e51b81526004016102fb90611710565b6002805460018101825560009190915281906003027f405787fa12a823e0f2b7631cc41b3ba8828b3321ca811111fa75cd3aa3bb5ace016108b38282611939565b507f56fee40578122d6872c25c03569653f7c3535363d7c04df91aa93806113b50c190506108e182806117db565b600360405161034e93929190611a2c565b6001546001600160a01b0316331461096a5760405162461bcd60e51b815260206004820152603560248201527f596f75206d757374206265206e6f6d696e61746564206265666f726520796f7560448201527402063616e20616363657074206f776e65727368697605c1b60648201526084016102fb565b600054600154604080516001600160a01b0393841681529290911660208301527fb532073b38c83145e3e5135377a08bf9aab55bc0fd7c1179cd4fb995d2a5159c910160405180910390a160018054600080546001600160a01b03199081166001600160a01b03841617909155169055565b6004546001600160a01b03163314806109ff57506000546001600160a01b031633145b610a1b5760405162461bcd60e51b81526004016102fb90611710565b610a27600260006112ea565b6040517fbf5f94bdb8a562775e85a1990f734d669663e8de3b240d56ec4b1f71ca66b00790600090a1565b6004546001600160a01b0316331480610a7557506000546001600160a01b031633145b610a915760405162461bcd60e51b81526004016102fb90611710565b60005b81811015610af7576002805480610aad57610aad611ae0565b60008281526020812060001990920191600383020190610acd828261130e565b610adb60018301600061130e565b506000600291909101559055610af081611b0c565b9050610a94565b506040518181527f03ed6e686bcf321d69427b429b8e18745c96afc0ba4e6c7eb1f3aefaff088cf39060200161034e565b606080606060008060028681548110610b4357610b4361173f565b9060005260206000209060030201604051806060016040529081600082018054610b6c90611755565b80601f0160208091040260200160405190810160405280929190818152602001828054610b9890611755565b8015610be55780601f10610bba57610100808354040283529160200191610be5565b820191906000526020600020905b815481529060010190602001808311610bc857829003601f168201915b50505050508152602001600182018054610bfe90611755565b80601f0160208091040260200160405190810160405280929190818152602001828054610c2a90611755565b8015610c775780601f10610c4c57610100808354040283529160200191610c77565b820191906000526020600020905b815481529060010190602001808311610c5a57829003601f168201915b5050505050815260200160028201548152505090508060000151945060038054610ca090611755565b80601f0160208091040260200160405190810160405280929190818152602001828054610ccc90611755565b8015610d195780601f10610cee57610100808354040283529160200191610d19565b820191906000526020600020905b815481529060010190602001808311610cfc57829003601f168201915b505050505093508060200151925080604001519150509193509193565b6004546001600160a01b0316331480610d5957506000546001600160a01b031633145b610d755760405162461bcd60e51b81526004016102fb90611710565b6001600160a01b038116610dc35760405162461bcd60e51b815260206004820152601560248201527416995c9bc81859191c995cdcc819195d1958dd1959605a1b60448201526064016102fb565b600480546001600160a01b0319166001600160a01b0383169081179091556040519081527ff02fdf7b40fb25784d39342249bbb15cee2bc0288f75ded1cf8ad2e63d4d91aa9060200161034e565b6004546001600160a01b0316331480610e3457506000546001600160a01b031633145b610e505760405162461bcd60e51b81526004016102fb90611710565b600060028381548110610e6557610e6561173f565b90600052602060002090600302016000018054610e8190611755565b80601f0160208091040260200160405190810160405280929190818152602001828054610ead90611755565b8015610efa5780601f10610ecf57610100808354040283529160200191610efa565b820191906000526020600020905b815481529060010190602001808311610edd57829003601f168201915b505050505090508115610f6c57600254610f1c90849061012890600190611b25565b6002805480610f2d57610f2d611ae0565b60008281526020812060001990920191600383020190610f4d828261130e565b610f5b60018301600061130e565b60028201600090555050905561119e565b60006002805480602002602001604051908101604052809291908181526020016000905b828210156110f05783829060005260206000209060030201604051806060016040529081600082018054610fc390611755565b80601f0160208091040260200160405190810160405280929190818152602001828054610fef90611755565b801561103c5780601f106110115761010080835404028352916020019161103c565b820191906000526020600020905b81548152906001019060200180831161101f57829003601f168201915b5050505050815260200160018201805461105590611755565b80601f016020809104026020016040519081016040528092919081815260200182805461108190611755565b80156110ce5780601f106110a3576101008083540402835291602001916110ce565b820191906000526020600020905b8154815290600101906020018083116110b157829003601f168201915b5050505050815260200160028201548152505081526020019060010190610f90565b5050505090506002600061110491906112ea565b60005b815181101561119b5784811461118b57600282828151811061112b5761112b61173f565b60209081029190910181015182546001810184556000938452928290208151805192946003029091019261116492849290910190611266565b50602082810151805161117d9260018501920190611266565b506040820151816002015550505b61119481611b0c565b9050611107565b50505b7f0d69d6651f1449a1038428f2773f275a39ef104c76bf46970cdffdbbe1496c518184846040516111d193929190611b3c565b60405180910390a1505050565b6004546001600160a01b031633148061120157506000546001600160a01b031633145b61121d5760405162461bcd60e51b81526004016102fb90611710565b8060005b818110156112605761125084848381811061123e5761123e61173f565b905060200281019061014e9190611b66565b61125981611b0c565b9050611221565b50505050565b82805461127290611755565b90600052602060002090601f01602090048101928261129457600085556112da565b82601f106112ad57805160ff19168380011785556112da565b828001600101855582156112da579182015b828111156112da5782518255916020019190600101906112bf565b506112e6929150611344565b5090565b508054600082556003029060005260206000209081019061130b9190611359565b50565b50805461131a90611755565b6000825580601f1061132a575050565b601f01602090049060005260206000209081019061130b91905b5b808211156112e65760008155600101611345565b808211156112e657600061136d828261130e565b61137b60018301600061130e565b5060006002820155600301611359565b60006020828403121561139d57600080fd5b81356001600160a01b03811681146113b457600080fd5b9392505050565b600080604083850312156113ce57600080fd5b50508035926020909101359150565b634e487b7160e01b600052604160045260246000fd5b600082601f83011261140457600080fd5b813567ffffffffffffffff8082111561141f5761141f6113dd565b604051601f8301601f19908116603f01168101908282118183101715611447576114476113dd565b8160405283815286602085880101111561146057600080fd5b836020870160208301376000602085830101528094505050505092915050565b60006020828403121561149257600080fd5b813567ffffffffffffffff8111156114a957600080fd5b6114b5848285016113f3565b949350505050565b6000602082840312156114cf57600080fd5b813567ffffffffffffffff8111156114e657600080fd5b8201606081850312156113b457600080fd5b60006020828403121561150a57600080fd5b5035919050565b6000815180845260005b818110156115375760208185018101518683018201520161151b565b81811115611549576000602083870101525b50601f01601f19169290920160200192915050565b6080815260006115716080830187611511565b82810360208401526115838187611511565b905082810360408401526115978186611511565b91505082606083015295945050505050565b6000806000606084860312156115be57600080fd5b833567ffffffffffffffff808211156115d657600080fd5b6115e2878388016113f3565b945060208601359150808211156115f857600080fd5b50611605868287016113f3565b925050604084013590509250925092565b6020815260008251606060208401526116326080840182611511565b90506020840151601f1984830301604085015261164f8282611511565b915050604084015160608401528091505092915050565b6000806040838503121561167957600080fd5b823591506020830135801515811461169057600080fd5b809150509250929050565b600080602083850312156116ae57600080fd5b823567ffffffffffffffff808211156116c657600080fd5b818501915085601f8301126116da57600080fd5b8135818111156116e957600080fd5b8660208260051b85010111156116fe57600080fd5b60209290920196919550909350505050565b6020808252601590820152744e6f74206f776e6572206f722074696d656c6f636b60581b604082015260600190565b634e487b7160e01b600052603260045260246000fd5b600181811c9082168061176957607f821691505b60208210810361178957634e487b7160e01b600052602260045260246000fd5b50919050565b6080815260006117a26080830187611511565b82810360208401526117b48187611511565b604084019590955250506060015292915050565b6020815260006113b46020830184611511565b6000808335601e198436030181126117f257600080fd5b83018035915067ffffffffffffffff82111561180d57600080fd5b60200191503681900382131561182257600080fd5b9250929050565b601f82111561187357600081815260208120601f850160051c810160208610156118505750805b601f850160051c820191505b8181101561186f5782815560010161185c565b5050505b505050565b67ffffffffffffffff831115611890576118906113dd565b6118a48361189e8354611755565b83611829565b6000601f8411600181146118d857600085156118c05750838201355b600019600387901b1c1916600186901b178355611932565b600083815260209020601f19861690835b8281101561190957868501358255602094850194600190920191016118e9565b50868210156119265760001960f88860031b161c19848701351681555b505060018560011b0183555b5050505050565b61194382836117db565b67ffffffffffffffff81111561195b5761195b6113dd565b61196f816119698554611755565b85611829565b6000601f8211600181146119a3576000831561198b5750838201355b600019600385901b1c1916600184901b1785556119fd565b600085815260209020601f19841690835b828110156119d457868501358255602094850194600190920191016119b4565b50848210156119f15760001960f88660031b161c19848701351681555b505060018360011b0185555b50505050611a0e60208301836117db565b611a1c818360018601611878565b5050604082013560028201555050565b60408152826040820152828460608301376000606084830101526000601f19601f850116820160206060848303018185015260008554611a6b81611755565b8060608601526080600180841660008114611a8d5760018114611aa157611acf565b60ff1985168884015260a088019550611acf565b8a6000528660002060005b85811015611ac75781548a8201860152908301908801611aac565b890184019650505b50939b9a5050505050505050505050565b634e487b7160e01b600052603160045260246000fd5b634e487b7160e01b600052601160045260246000fd5b600060018201611b1e57611b1e611af6565b5060010190565b600082821015611b3757611b37611af6565b500390565b606081526000611b4f6060830186611511565b602083019490945250901515604090910152919050565b60008235605e19833603018112611b7c57600080fd5b919091019291505056fea264697066735822122056b63fb2643cabf62c091ec813734804e19a61914850f75bf997fc8981da2b9e64736f6c634300080d0033",
    "linkReferences": {}
  },
  "methodIdentifiers": {
    "acceptOwnership()": "79ba5097",
    "addValidator((bytes,bytes,bytes32))": "4b9b90c5",
    "addValidators((bytes,bytes,bytes32)[])": "f63a1711",
    "clearValidatorArray()": "a3f34980",
    "getValidator(uint256)": "b5d89627",
    "getValidatorStruct(bytes,bytes,bytes32)": "bc9944f9",
    "nominateNewOwner(address)": "1627540c",
    "nominatedOwner()": "53a47bb7",
    "numValidators()": "5d593f8d",
    "owner()": "8da5cb5b",
    "popValidators(uint256)": "ae6e83bf",
    "removeValidator(uint256,bool)": "e77df366",
    "setTimelock(address)": "bdacb303",
    "setWithdrawalCredential(bytes)": "3683c204",
    "swapValidator(uint256,uint256)": "35b5d534",
    "timelock_address()": "dc6663c7"
  },
  "id": 32
}